{
	"Connect4Stakes.sol": {
		"Connect4Stakes": {
			"abi": [
				{
					"inputs": [
						{
							"internalType": "address",
							"name": "_feeRecipient",
							"type": "address"
						}
					],
					"stateMutability": "nonpayable",
					"type": "constructor"
				},
				{
					"inputs": [
						{
							"internalType": "address",
							"name": "owner",
							"type": "address"
						}
					],
					"name": "OwnableInvalidOwner",
					"type": "error"
				},
				{
					"inputs": [
						{
							"internalType": "address",
							"name": "account",
							"type": "address"
						}
					],
					"name": "OwnableUnauthorizedAccount",
					"type": "error"
				},
				{
					"inputs": [
						{
							"internalType": "address",
							"name": "token",
							"type": "address"
						}
					],
					"name": "SafeERC20FailedOperation",
					"type": "error"
				},
				{
					"anonymous": false,
					"inputs": [
						{
							"indexed": true,
							"internalType": "address",
							"name": "recipient",
							"type": "address"
						},
						{
							"indexed": false,
							"internalType": "uint16",
							"name": "defaultFeeBps",
							"type": "uint16"
						},
						{
							"indexed": false,
							"internalType": "uint16",
							"name": "maxFeeBps",
							"type": "uint16"
						}
					],
					"name": "FeesUpdated",
					"type": "event"
				},
				{
					"anonymous": false,
					"inputs": [
						{
							"indexed": true,
							"internalType": "uint256",
							"name": "id",
							"type": "uint256"
						},
						{
							"indexed": true,
							"internalType": "address",
							"name": "creator",
							"type": "address"
						},
						{
							"indexed": true,
							"internalType": "address",
							"name": "token",
							"type": "address"
						},
						{
							"indexed": false,
							"internalType": "uint256",
							"name": "stake",
							"type": "uint256"
						},
						{
							"indexed": false,
							"internalType": "address",
							"name": "opponent",
							"type": "address"
						},
						{
							"indexed": false,
							"internalType": "uint256",
							"name": "startDeadline",
							"type": "uint256"
						},
						{
							"indexed": false,
							"internalType": "uint256",
							"name": "resolveWindow",
							"type": "uint256"
						},
						{
							"indexed": false,
							"internalType": "address",
							"name": "resolver",
							"type": "address"
						}
					],
					"name": "MatchCreated",
					"type": "event"
				},
				{
					"anonymous": false,
					"inputs": [
						{
							"indexed": true,
							"internalType": "uint256",
							"name": "id",
							"type": "uint256"
						},
						{
							"indexed": true,
							"internalType": "address",
							"name": "opponent",
							"type": "address"
						},
						{
							"indexed": false,
							"internalType": "uint256",
							"name": "resolveDeadline",
							"type": "uint256"
						}
					],
					"name": "MatchJoined",
					"type": "event"
				},
				{
					"anonymous": false,
					"inputs": [
						{
							"indexed": true,
							"internalType": "uint256",
							"name": "id",
							"type": "uint256"
						}
					],
					"name": "MatchRefunded",
					"type": "event"
				},
				{
					"anonymous": false,
					"inputs": [
						{
							"indexed": true,
							"internalType": "uint256",
							"name": "id",
							"type": "uint256"
						},
						{
							"indexed": true,
							"internalType": "address",
							"name": "winner",
							"type": "address"
						},
						{
							"indexed": false,
							"internalType": "uint256",
							"name": "prize",
							"type": "uint256"
						},
						{
							"indexed": false,
							"internalType": "uint256",
							"name": "fee",
							"type": "uint256"
						}
					],
					"name": "MatchResolved",
					"type": "event"
				},
				{
					"anonymous": false,
					"inputs": [
						{
							"indexed": true,
							"internalType": "uint256",
							"name": "id",
							"type": "uint256"
						},
						{
							"indexed": true,
							"internalType": "address",
							"name": "submitter",
							"type": "address"
						},
						{
							"indexed": false,
							"internalType": "address",
							"name": "winner",
							"type": "address"
						}
					],
					"name": "MatchResultSubmitted",
					"type": "event"
				},
				{
					"anonymous": false,
					"inputs": [
						{
							"indexed": true,
							"internalType": "address",
							"name": "previousOwner",
							"type": "address"
						},
						{
							"indexed": true,
							"internalType": "address",
							"name": "newOwner",
							"type": "address"
						}
					],
					"name": "OwnershipTransferred",
					"type": "event"
				},
				{
					"anonymous": false,
					"inputs": [
						{
							"indexed": true,
							"internalType": "address",
							"name": "resolver",
							"type": "address"
						},
						{
							"indexed": false,
							"internalType": "bool",
							"name": "allowed",
							"type": "bool"
						}
					],
					"name": "ResolverSet",
					"type": "event"
				},
				{
					"inputs": [
						{
							"internalType": "address",
							"name": "token",
							"type": "address"
						},
						{
							"internalType": "uint96",
							"name": "stake",
							"type": "uint96"
						},
						{
							"internalType": "address",
							"name": "opponent",
							"type": "address"
						},
						{
							"internalType": "uint32",
							"name": "startDeadlineSec",
							"type": "uint32"
						},
						{
							"internalType": "uint32",
							"name": "resolveWindowSec",
							"type": "uint32"
						},
						{
							"internalType": "address",
							"name": "resolver",
							"type": "address"
						}
					],
					"name": "createMatch",
					"outputs": [
						{
							"internalType": "uint256",
							"name": "id",
							"type": "uint256"
						}
					],
					"stateMutability": "nonpayable",
					"type": "function"
				},
				{
					"inputs": [
						{
							"internalType": "address",
							"name": "token",
							"type": "address"
						},
						{
							"internalType": "uint96",
							"name": "stake",
							"type": "uint96"
						},
						{
							"internalType": "address",
							"name": "opponent",
							"type": "address"
						},
						{
							"internalType": "uint32",
							"name": "startDeadlineSec",
							"type": "uint32"
						},
						{
							"internalType": "uint32",
							"name": "resolveWindowSec",
							"type": "uint32"
						},
						{
							"internalType": "address",
							"name": "resolver",
							"type": "address"
						},
						{
							"internalType": "uint256",
							"name": "permitValue",
							"type": "uint256"
						},
						{
							"internalType": "uint256",
							"name": "permitDeadline",
							"type": "uint256"
						},
						{
							"internalType": "uint8",
							"name": "v",
							"type": "uint8"
						},
						{
							"internalType": "bytes32",
							"name": "r",
							"type": "bytes32"
						},
						{
							"internalType": "bytes32",
							"name": "s",
							"type": "bytes32"
						}
					],
					"name": "createMatchWithPermit",
					"outputs": [
						{
							"internalType": "uint256",
							"name": "id",
							"type": "uint256"
						}
					],
					"stateMutability": "nonpayable",
					"type": "function"
				},
				{
					"inputs": [],
					"name": "defaultFeeBps",
					"outputs": [
						{
							"internalType": "uint16",
							"name": "",
							"type": "uint16"
						}
					],
					"stateMutability": "view",
					"type": "function"
				},
				{
					"inputs": [],
					"name": "feeRecipient",
					"outputs": [
						{
							"internalType": "address",
							"name": "",
							"type": "address"
						}
					],
					"stateMutability": "view",
					"type": "function"
				},
				{
					"inputs": [
						{
							"internalType": "uint256",
							"name": "id",
							"type": "uint256"
						}
					],
					"name": "getMatch",
					"outputs": [
						{
							"components": [
								{
									"internalType": "address",
									"name": "creator",
									"type": "address"
								},
								{
									"internalType": "address",
									"name": "opponent",
									"type": "address"
								},
								{
									"internalType": "address",
									"name": "token",
									"type": "address"
								},
								{
									"internalType": "uint96",
									"name": "stake",
									"type": "uint96"
								},
								{
									"internalType": "uint40",
									"name": "createdAt",
									"type": "uint40"
								},
								{
									"internalType": "uint40",
									"name": "startDeadline",
									"type": "uint40"
								},
								{
									"internalType": "uint40",
									"name": "resolveDeadline",
									"type": "uint40"
								},
								{
									"internalType": "uint32",
									"name": "resolveWindow",
									"type": "uint32"
								},
								{
									"internalType": "address",
									"name": "resolver",
									"type": "address"
								},
								{
									"internalType": "uint16",
									"name": "feeBps",
									"type": "uint16"
								},
								{
									"internalType": "enum Connect4Stakes.Status",
									"name": "status",
									"type": "uint8"
								},
								{
									"internalType": "address",
									"name": "winner",
									"type": "address"
								},
								{
									"internalType": "address",
									"name": "creatorVote",
									"type": "address"
								},
								{
									"internalType": "address",
									"name": "opponentVote",
									"type": "address"
								}
							],
							"internalType": "struct Connect4Stakes.Match",
							"name": "",
							"type": "tuple"
						}
					],
					"stateMutability": "view",
					"type": "function"
				},
				{
					"inputs": [
						{
							"internalType": "address",
							"name": "",
							"type": "address"
						}
					],
					"name": "isResolver",
					"outputs": [
						{
							"internalType": "bool",
							"name": "",
							"type": "bool"
						}
					],
					"stateMutability": "view",
					"type": "function"
				},
				{
					"inputs": [
						{
							"internalType": "uint256",
							"name": "id",
							"type": "uint256"
						}
					],
					"name": "joinMatch",
					"outputs": [],
					"stateMutability": "nonpayable",
					"type": "function"
				},
				{
					"inputs": [
						{
							"internalType": "uint256",
							"name": "",
							"type": "uint256"
						}
					],
					"name": "matches",
					"outputs": [
						{
							"internalType": "address",
							"name": "creator",
							"type": "address"
						},
						{
							"internalType": "address",
							"name": "opponent",
							"type": "address"
						},
						{
							"internalType": "address",
							"name": "token",
							"type": "address"
						},
						{
							"internalType": "uint96",
							"name": "stake",
							"type": "uint96"
						},
						{
							"internalType": "uint40",
							"name": "createdAt",
							"type": "uint40"
						},
						{
							"internalType": "uint40",
							"name": "startDeadline",
							"type": "uint40"
						},
						{
							"internalType": "uint40",
							"name": "resolveDeadline",
							"type": "uint40"
						},
						{
							"internalType": "uint32",
							"name": "resolveWindow",
							"type": "uint32"
						},
						{
							"internalType": "address",
							"name": "resolver",
							"type": "address"
						},
						{
							"internalType": "uint16",
							"name": "feeBps",
							"type": "uint16"
						},
						{
							"internalType": "enum Connect4Stakes.Status",
							"name": "status",
							"type": "uint8"
						},
						{
							"internalType": "address",
							"name": "winner",
							"type": "address"
						},
						{
							"internalType": "address",
							"name": "creatorVote",
							"type": "address"
						},
						{
							"internalType": "address",
							"name": "opponentVote",
							"type": "address"
						}
					],
					"stateMutability": "view",
					"type": "function"
				},
				{
					"inputs": [],
					"name": "maxFeeBps",
					"outputs": [
						{
							"internalType": "uint16",
							"name": "",
							"type": "uint16"
						}
					],
					"stateMutability": "view",
					"type": "function"
				},
				{
					"inputs": [],
					"name": "nextMatchId",
					"outputs": [
						{
							"internalType": "uint256",
							"name": "",
							"type": "uint256"
						}
					],
					"stateMutability": "view",
					"type": "function"
				},
				{
					"inputs": [],
					"name": "owner",
					"outputs": [
						{
							"internalType": "address",
							"name": "",
							"type": "address"
						}
					],
					"stateMutability": "view",
					"type": "function"
				},
				{
					"inputs": [
						{
							"internalType": "uint256",
							"name": "id",
							"type": "uint256"
						}
					],
					"name": "pot",
					"outputs": [
						{
							"internalType": "uint256",
							"name": "",
							"type": "uint256"
						}
					],
					"stateMutability": "view",
					"type": "function"
				},
				{
					"inputs": [
						{
							"internalType": "uint256",
							"name": "id",
							"type": "uint256"
						}
					],
					"name": "refundIfUnjoined",
					"outputs": [],
					"stateMutability": "nonpayable",
					"type": "function"
				},
				{
					"inputs": [],
					"name": "renounceOwnership",
					"outputs": [],
					"stateMutability": "nonpayable",
					"type": "function"
				},
				{
					"inputs": [
						{
							"internalType": "uint256",
							"name": "id",
							"type": "uint256"
						},
						{
							"internalType": "address",
							"name": "winner",
							"type": "address"
						}
					],
					"name": "resolveByReferee",
					"outputs": [],
					"stateMutability": "nonpayable",
					"type": "function"
				},
				{
					"inputs": [
						{
							"internalType": "address",
							"name": "recipient",
							"type": "address"
						},
						{
							"internalType": "uint16",
							"name": "_defaultFeeBps",
							"type": "uint16"
						},
						{
							"internalType": "uint16",
							"name": "_maxFeeBps",
							"type": "uint16"
						}
					],
					"name": "setFees",
					"outputs": [],
					"stateMutability": "nonpayable",
					"type": "function"
				},
				{
					"inputs": [
						{
							"internalType": "address",
							"name": "account",
							"type": "address"
						},
						{
							"internalType": "bool",
							"name": "allowed",
							"type": "bool"
						}
					],
					"name": "setResolver",
					"outputs": [],
					"stateMutability": "nonpayable",
					"type": "function"
				},
				{
					"inputs": [
						{
							"internalType": "uint256",
							"name": "id",
							"type": "uint256"
						},
						{
							"internalType": "address",
							"name": "winner",
							"type": "address"
						}
					],
					"name": "submitResult",
					"outputs": [],
					"stateMutability": "nonpayable",
					"type": "function"
				},
				{
					"inputs": [
						{
							"internalType": "address",
							"name": "newOwner",
							"type": "address"
						}
					],
					"name": "transferOwnership",
					"outputs": [],
					"stateMutability": "nonpayable",
					"type": "function"
				},
				{
					"inputs": [
						{
							"internalType": "uint256",
							"name": "id",
							"type": "uint256"
						}
					],
					"name": "withdrawAfterTimeout",
					"outputs": [],
					"stateMutability": "nonpayable",
					"type": "function"
				},
				{
					"inputs": [
						{
							"internalType": "uint256",
							"name": "",
							"type": "uint256"
						},
						{
							"internalType": "address",
							"name": "",
							"type": "address"
						}
					],
					"name": "withdrawnAfterTimeout",
					"outputs": [
						{
							"internalType": "bool",
							"name": "",
							"type": "bool"
						}
					],
					"stateMutability": "view",
					"type": "function"
				}
			],
			"devdoc": {
				"errors": {
					"OwnableInvalidOwner(address)": [
						{
							"details": "The owner is not a valid owner account. (eg. `address(0)`)"
						}
					],
					"OwnableUnauthorizedAccount(address)": [
						{
							"details": "The caller account is not authorized to perform an operation."
						}
					],
					"SafeERC20FailedOperation(address)": [
						{
							"details": "An operation with an ERC-20 token failed."
						}
					]
				},
				"kind": "dev",
				"methods": {
					"createMatch(address,uint96,address,uint32,uint32,address)": {
						"params": {
							"opponent": "If nonzero, only this address may join. Zero => open challenge",
							"resolveWindowSec": "Seconds allowed for resolution after opponent joins (>= 300)",
							"resolver": "Optional per-match referee (can be zero)",
							"stake": "Amount each player must deposit (same token decimals for both)",
							"startDeadlineSec": "Seconds from now for the join window (>= 60)",
							"token": "ERC-20 token address for stakes"
						}
					},
					"owner()": {
						"details": "Returns the address of the current owner."
					},
					"renounceOwnership()": {
						"details": "Leaves the contract without owner. It will not be possible to call `onlyOwner` functions. Can only be called by the current owner. NOTE: Renouncing ownership will leave the contract without an owner, thereby disabling any functionality that is only available to the owner."
					},
					"submitResult(uint256,address)": {
						"params": {
							"id": "Match id",
							"winner": "Claimed winner (must be creator or opponent)"
						}
					},
					"transferOwnership(address)": {
						"details": "Transfers ownership of the contract to a new account (`newOwner`). Can only be called by the current owner."
					}
				},
				"version": 1
			},
			"evm": {
				"assembly": "    /* \"Connect4Stakes.sol\":912:12937  contract Connect4Stakes is Ownable, ReentrancyGuard {... */\n  0x80\n  jumpi(tag_7, callvalue)\n  0x1f\n  bytecodeSize\n  codesize\n  dup2\n  swap1\n  sub\n  swap2\n  dup3\n  add\n  not(0x1f)\n  and\n  dup4\n  add\n  swap2\n  sub(shl(0x40, 0x01), 0x01)\n  dup4\n  gt\n  dup5\n  dup5\n  lt\n  or\n  tag_3\n  jumpi\n  dup1\n  dup5\n  swap3\n  0x20\n  swap5\n  0x40\n  mstore\n  dup4\n  codecopy\n  dup2\n  add\n  sub\n  slt\n  tag_7\n  jumpi\n  mload\n  sub(shl(0xa0, 0x01), 0x01)\n  dup2\n  and\n  swap1\n  dup2\n  swap1\n  sub\n  tag_7\n  jumpi\n    /* \"Connect4Stakes.sol\":3701:3711  msg.sender */\n  caller\n    /* \"@openzeppelin/contracts/access/Ownable.sol\":1273:1299  initialOwner == address(0) */\n  iszero\n    /* \"@openzeppelin/contracts/access/Ownable.sol\":1269:1364  if (initialOwner == address(0)) {... */\n  tag_9\n  jumpi\n  0x00\n    /* \"Connect4Stakes.sol\":912:12937  contract Connect4Stakes is Ownable, ReentrancyGuard {... */\n  dup1\n  sload\n    /* \"Connect4Stakes.sol\":3701:3711  msg.sender */\n  caller\n  not(sub(shl(0xa0, 0x01), 0x01))\n    /* \"Connect4Stakes.sol\":912:12937  contract Connect4Stakes is Ownable, ReentrancyGuard {... */\n  dup3\n  and\n  dup2\n  or\n  dup4\n  sstore\n  mload(0x40)\n  swap4\n  swap3\n    /* \"Connect4Stakes.sol\":3701:3711  msg.sender */\n  swap1\n  swap2\n  sub(shl(0xa0, 0x01), 0x01)\n    /* \"Connect4Stakes.sol\":912:12937  contract Connect4Stakes is Ownable, ReentrancyGuard {... */\n  and\n  swap1\n    /* \"@openzeppelin/contracts/access/Ownable.sol\":3052:3092  OwnershipTransferred(oldOwner, newOwner) */\n  0x8be0079c531659141344cd1fd0a4f28419497f9722a3daafe3b4186f6b6457e0\n  swap1\n  dup1\n  log3\n    /* \"@openzeppelin/contracts/security/ReentrancyGuard.sol\":1716:1717  1 */\n  0x01\n    /* \"Connect4Stakes.sol\":912:12937  contract Connect4Stakes is Ownable, ReentrancyGuard {... */\n  dup1\n  dup1\n  sstore\n    /* \"Connect4Stakes.sol\":2376:2377  0 */\n  0x02\n    /* \"Connect4Stakes.sol\":912:12937  contract Connect4Stakes is Ownable, ReentrancyGuard {... */\n  dup1\n  sload\n    /* \"Connect4Stakes.sol\":2615:2616  1 */\n  0x04\n    /* \"Connect4Stakes.sol\":912:12937  contract Connect4Stakes is Ownable, ReentrancyGuard {... */\n  swap3\n  swap1\n  swap3\n  sstore\n  not(sub(shl(0xc0, 0x01), 0x01))\n  swap1\n  swap2\n  and\n  swap1\n  swap2\n  or\n  shl(0xb2, 0x7d)\n  or\n  swap1\n  sstore\n  dataSize(sub_0)\n  swap1\n  dup2\n  dataOffset(sub_0)\n  dup3\n  codecopy\n  return\n    /* \"@openzeppelin/contracts/access/Ownable.sol\":1269:1364  if (initialOwner == address(0)) {... */\ntag_9:\n    /* \"@openzeppelin/contracts/access/Ownable.sol\":1322:1353  OwnableInvalidOwner(address(0)) */\n  mstore(0x00, shl(0xe0, 0x1e4fbdf7))\n  0x00\n  0x04\n    /* \"Connect4Stakes.sol\":912:12937  contract Connect4Stakes is Ownable, ReentrancyGuard {... */\n  mstore\n  0x24\n  0x00\n    /* \"@openzeppelin/contracts/access/Ownable.sol\":1322:1353  OwnableInvalidOwner(address(0)) */\n  revert\n    /* \"Connect4Stakes.sol\":912:12937  contract Connect4Stakes is Ownable, ReentrancyGuard {... */\ntag_7:\n  0x00\n  dup1\n  revert\ntag_3:\n  mstore(0x00, shl(0xe0, 0x4e487b71))\n  mstore(0x04, 0x41)\n  revert(0x00, 0x24)\nstop\n\nsub_0: assembly {\n        /* \"Connect4Stakes.sol\":912:12937  contract Connect4Stakes is Ownable, ReentrancyGuard {... */\n      mstore(0x40, 0x80)\n      jumpi(tag_30, iszero(lt(calldatasize, 0x04)))\n      0x00\n      dup1\n      revert\n    tag_30:\n      0x00\n      dup1\n      calldataload\n      0xe0\n      shr\n      dup1\n      0x1da6ed7c\n      eq\n      tag_32\n      jumpi\n      dup1\n      0x3d092b3d\n      eq\n      tag_34\n      jumpi\n      dup1\n      0x45c67d86\n      eq\n      tag_36\n      jumpi\n      dup1\n      0x46904840\n      eq\n      tag_38\n      jumpi\n      dup1\n      0x4768d4ef\n      eq\n      tag_40\n      jumpi\n      dup1\n      0x4e55a1c2\n      eq\n      tag_42\n      jumpi\n      dup1\n      0x63feb74e\n      eq\n      tag_44\n      jumpi\n      dup1\n      0x715018a6\n      eq\n      tag_46\n      jumpi\n      dup1\n      0x8c4b2aae\n      eq\n      tag_48\n      jumpi\n      dup1\n      0x8da5cb5b\n      eq\n      tag_50\n      jumpi\n      dup1\n      0x92dc24bb\n      eq\n      tag_52\n      jumpi\n      dup1\n      0x99ac48b4\n      eq\n      tag_54\n      jumpi\n      dup1\n      0x9ea7d587\n      eq\n      tag_56\n      jumpi\n      dup1\n      0xbcae25a4\n      eq\n      tag_58\n      jumpi\n      dup1\n      0xbf769a3f\n      eq\n      tag_60\n      jumpi\n      dup1\n      0xc1eecdc6\n      eq\n      tag_62\n      jumpi\n      dup1\n      0xc5adf7c9\n      eq\n      tag_64\n      jumpi\n      dup1\n      0xe73b54a5\n      eq\n      tag_66\n      jumpi\n      dup1\n      0xe8c228db\n      eq\n      tag_68\n      jumpi\n      dup1\n      0xf2fde38b\n      eq\n      tag_70\n      jumpi\n      0xfeb8c438\n      eq\n      tag_72\n      jumpi\n      0x00\n      dup1\n      revert\n    tag_72:\n      jumpi(tag_76, callvalue)\n      jumpi(tag_76, slt(add(not(0x03), calldatasize), 0x20))\n      calldataload(0x04)\n        /* \"@openzeppelin/contracts/security/ReentrancyGuard.sol\":2227:2330  modifier nonReentrant() {... */\n      tag_78\n      tag_24\n      jump\t// in\n    tag_78:\n        /* \"Connect4Stakes.sol\":912:12937  contract Connect4Stakes is Ownable, ReentrancyGuard {... */\n      dup1\n      dup3\n      mstore\n        /* \"Connect4Stakes.sol\":8023:8030  matches */\n      0x05\n        /* \"Connect4Stakes.sol\":912:12937  contract Connect4Stakes is Ownable, ReentrancyGuard {... */\n      0x20\n      mstore\n      0x40\n      dup3\n      keccak256\n        /* \"Connect4Stakes.sol\":8052:8060  m.status */\n      swap1\n        /* \"Connect4Stakes.sol\":912:12937  contract Connect4Stakes is Ownable, ReentrancyGuard {... */\n      0x04\n        /* \"Connect4Stakes.sol\":8052:8060  m.status */\n      dup3\n      add\n        /* \"Connect4Stakes.sol\":912:12937  contract Connect4Stakes is Ownable, ReentrancyGuard {... */\n      0xff\n      dup2\n      sload\n      0xb0\n      shr\n      and\n      0x04\n      dup2\n      lt\n      iszero\n      tag_79\n      jumpi\n      tag_81\n      jumpi\n        /* \"Connect4Stakes.sol\":8132:8147  m.startDeadline */\n      0x03\n      dup4\n      add\n        /* \"Connect4Stakes.sol\":912:12937  contract Connect4Stakes is Ownable, ReentrancyGuard {... */\n      swap3\n      0xffffffffff\n      dup5\n      sload\n      0x28\n      shr\n      and\n        /* \"Connect4Stakes.sol\":8113:8128  block.timestamp */\n      timestamp\n        /* \"Connect4Stakes.sol\":8113:8147  block.timestamp <= m.startDeadline */\n      gt\n        /* \"Connect4Stakes.sol\":912:12937  contract Connect4Stakes is Ownable, ReentrancyGuard {... */\n      tag_83\n      jumpi\n      0x01\n        /* \"Connect4Stakes.sol\":8183:8193  m.opponent */\n      dup2\n      add\n        /* \"Connect4Stakes.sol\":912:12937  contract Connect4Stakes is Ownable, ReentrancyGuard {... */\n      dup1\n      sload\n      sub(shl(0xa0, 0x01), 0x01)\n      and\n        /* \"Connect4Stakes.sol\":8183:8207  m.opponent != address(0) */\n      iszero\n        /* \"Connect4Stakes.sol\":912:12937  contract Connect4Stakes is Ownable, ReentrancyGuard {... */\n      tag_85\n      jumpi\n      dup1\n      sload\n      sub(shl(0xa0, 0x01), 0x01)\n      and\n        /* \"Connect4Stakes.sol\":8231:8241  msg.sender */\n      caller\n        /* \"Connect4Stakes.sol\":8231:8255  msg.sender == m.opponent */\n      sub\n        /* \"Connect4Stakes.sol\":912:12937  contract Connect4Stakes is Ownable, ReentrancyGuard {... */\n      tag_87\n      jumpi\n        /* \"Connect4Stakes.sol\":8537:8583  MatchJoined(id, m.opponent, m.resolveDeadline) */\n      0xbac6c1f65fa2e0f78a4e7dead8b72a284ff81ba7c397e22f9cf0e7ed2f7efd1a\n        /* \"Connect4Stakes.sol\":8179:8336  if (m.opponent != address(0)) {... */\n      swap3\n        /* \"Connect4Stakes.sol\":8346:8414  IERC20(m.token).safeTransferFrom(msg.sender, address(this), m.stake) */\n      tag_89\n        /* \"Connect4Stakes.sol\":8353:8360  m.token */\n      0x02\n        /* \"Connect4Stakes.sol\":912:12937  contract Connect4Stakes is Ownable, ReentrancyGuard {... */\n      0x20\n        /* \"Connect4Stakes.sol\":8179:8336  if (m.opponent != address(0)) {... */\n      swap5\n    tag_90:\n        /* \"Connect4Stakes.sol\":8353:8360  m.token */\n      add\n        /* \"Connect4Stakes.sol\":912:12937  contract Connect4Stakes is Ownable, ReentrancyGuard {... */\n      sload\n      0xa0\n      dup2\n      swap1\n      shr\n      swap1\n        /* \"Connect4Stakes.sol\":8399:8403  this */\n      address\n      swap1\n        /* \"Connect4Stakes.sol\":8379:8389  msg.sender */\n      caller\n      swap1\n      sub(shl(0xa0, 0x01), 0x01)\n        /* \"Connect4Stakes.sol\":912:12937  contract Connect4Stakes is Ownable, ReentrancyGuard {... */\n      and\n        /* \"Connect4Stakes.sol\":8346:8414  IERC20(m.token).safeTransferFrom(msg.sender, address(this), m.stake) */\n      tag_26\n      jump\t// in\n    tag_89:\n        /* \"Connect4Stakes.sol\":912:12937  contract Connect4Stakes is Ownable, ReentrancyGuard {... */\n      dup1\n      sload\n      not(shl(0xb0, 0xff))\n      and\n      shl(0xb0, 0x01)\n      or\n      swap1\n      sstore\n      dup5\n      sload\n      shl(0x50, 0xffffffffff)\n        /* \"Connect4Stakes.sol\":8487:8520  block.timestamp + m.resolveWindow */\n      tag_91\n        /* \"Connect4Stakes.sol\":912:12937  contract Connect4Stakes is Ownable, ReentrancyGuard {... */\n      0x78\n      dup4\n      swap1\n      shr\n      0xffffffff\n      and\n        /* \"Connect4Stakes.sol\":8113:8128  block.timestamp */\n      timestamp\n        /* \"Connect4Stakes.sol\":8487:8520  block.timestamp + m.resolveWindow */\n      tag_13\n      jump\t// in\n    tag_91:\n        /* \"Connect4Stakes.sol\":912:12937  contract Connect4Stakes is Ownable, ReentrancyGuard {... */\n      0x50\n      shl\n      and\n      swap1\n      not(shl(0x50, 0xffffffffff))\n      and\n      or\n      dup1\n      swap6\n      sstore\n      0x01\n      dup1\n      0xa0\n      shl\n      sub\n      swap1\n      sload\n      and\n      swap4\n      0xffffffffff\n      mload(0x40)\n      swap2\n      0x50\n      shr\n      and\n      dup2\n      mstore\n        /* \"Connect4Stakes.sol\":8537:8583  MatchJoined(id, m.opponent, m.resolveDeadline) */\n      log3\n        /* \"Connect4Stakes.sol\":912:12937  contract Connect4Stakes is Ownable, ReentrancyGuard {... */\n      0x01\n      dup1\n      sstore\n      dup1\n      return\n    tag_87:\n      mload(0x40)\n      shl(0xe5, 0x461bcd)\n      dup2\n      mstore\n      0x20\n      0x04\n      dup3\n      add\n      mstore\n      0x0b\n      0x24\n      dup3\n      add\n      mstore\n      shl(0xaa, 0x1b9bdd081a5b9d9a5d1959)\n      0x44\n      dup3\n      add\n      mstore\n      0x64\n      swap1\n      revert\n        /* \"Connect4Stakes.sol\":8179:8336  if (m.opponent != address(0)) {... */\n    tag_85:\n        /* \"Connect4Stakes.sol\":912:12937  contract Connect4Stakes is Ownable, ReentrancyGuard {... */\n      dup1\n      sload\n      not(sub(shl(0xa0, 0x01), 0x01))\n      and\n        /* \"Connect4Stakes.sol\":8315:8325  msg.sender */\n      caller\n        /* \"Connect4Stakes.sol\":912:12937  contract Connect4Stakes is Ownable, ReentrancyGuard {... */\n      or\n      dup2\n      sstore\n        /* \"Connect4Stakes.sol\":8537:8583  MatchJoined(id, m.opponent, m.resolveDeadline) */\n      0xbac6c1f65fa2e0f78a4e7dead8b72a284ff81ba7c397e22f9cf0e7ed2f7efd1a\n      swap3\n        /* \"Connect4Stakes.sol\":912:12937  contract Connect4Stakes is Ownable, ReentrancyGuard {... */\n      0x20\n      swap3\n        /* \"Connect4Stakes.sol\":8346:8414  IERC20(m.token).safeTransferFrom(msg.sender, address(this), m.stake) */\n      tag_89\n      swap1\n        /* \"Connect4Stakes.sol\":8353:8360  m.token */\n      0x02\n      swap1\n        /* \"Connect4Stakes.sol\":8179:8336  if (m.opponent != address(0)) {... */\n      jump(tag_90)\n        /* \"Connect4Stakes.sol\":912:12937  contract Connect4Stakes is Ownable, ReentrancyGuard {... */\n    tag_83:\n      mload(0x40)\n      shl(0xe5, 0x461bcd)\n      dup2\n      mstore\n      0x20\n      0x04\n      dup3\n      add\n      mstore\n      0x10\n      0x24\n      dup3\n      add\n      mstore\n      shl(0x81, 0x3537b4b7103bb4b73237bb9037bb32b9)\n      0x44\n      dup3\n      add\n      mstore\n      0x64\n      swap1\n      revert\n    tag_81:\n      mload(0x40)\n      shl(0xe5, 0x461bcd)\n      dup2\n      mstore\n      0x20\n      0x04\n      dup3\n      add\n      mstore\n      0x0c\n      0x24\n      dup3\n      add\n      mstore\n      shl(0xa0, 0x6e6f74206a6f696e61626c65)\n      0x44\n      dup3\n      add\n      mstore\n      0x64\n      swap1\n      revert\n    tag_79:\n      shl(0xe0, 0x4e487b71)\n      dup6\n      mstore\n      mstore(0x04, 0x21)\n      0x24\n      dup6\n      revert\n    tag_76:\n      dup1\n      revert\n    tag_70:\n      pop\n      jumpi(tag_76, callvalue)\n      jumpi(tag_76, slt(add(not(0x03), calldatasize), 0x20))\n      tag_96\n      tag_1\n      jump\t// in\n    tag_96:\n        /* \"@openzeppelin/contracts/access/Ownable.sol\":1500:1562  modifier onlyOwner() {... */\n      tag_97\n      tag_23\n      jump\t// in\n    tag_97:\n      sub(shl(0xa0, 0x01), 0x01)\n        /* \"Connect4Stakes.sol\":912:12937  contract Connect4Stakes is Ownable, ReentrancyGuard {... */\n      and\n        /* \"@openzeppelin/contracts/access/Ownable.sol\":2627:2649  newOwner == address(0) */\n      dup1\n      iszero\n        /* \"@openzeppelin/contracts/access/Ownable.sol\":2623:2714  if (newOwner == address(0)) {... */\n      tag_98\n      jumpi\n        /* \"Connect4Stakes.sol\":912:12937  contract Connect4Stakes is Ownable, ReentrancyGuard {... */\n      dup2\n      sload\n      not(sub(shl(0xa0, 0x01), 0x01))\n      dup2\n      and\n      dup3\n      or\n      dup4\n      sstore\n      sub(shl(0xa0, 0x01), 0x01)\n      and\n        /* \"@openzeppelin/contracts/access/Ownable.sol\":3052:3092  OwnershipTransferred(oldOwner, newOwner) */\n      0x8be0079c531659141344cd1fd0a4f28419497f9722a3daafe3b4186f6b6457e0\n        /* \"Connect4Stakes.sol\":912:12937  contract Connect4Stakes is Ownable, ReentrancyGuard {... */\n      dup4\n      dup1\n        /* \"@openzeppelin/contracts/access/Ownable.sol\":3052:3092  OwnershipTransferred(oldOwner, newOwner) */\n      log3\n        /* \"Connect4Stakes.sol\":912:12937  contract Connect4Stakes is Ownable, ReentrancyGuard {... */\n      dup1\n      return\n        /* \"@openzeppelin/contracts/access/Ownable.sol\":2623:2714  if (newOwner == address(0)) {... */\n    tag_98:\n      shl(0xe0, 0x1e4fbdf7)\n        /* \"@openzeppelin/contracts/access/Ownable.sol\":2672:2703  OwnableInvalidOwner(address(0)) */\n      dup3\n      mstore\n        /* \"Connect4Stakes.sol\":912:12937  contract Connect4Stakes is Ownable, ReentrancyGuard {... */\n      0x04\n      dup3\n      swap1\n      mstore\n      0x24\n        /* \"@openzeppelin/contracts/access/Ownable.sol\":2672:2703  OwnableInvalidOwner(address(0)) */\n      dup3\n      revert\n        /* \"Connect4Stakes.sol\":912:12937  contract Connect4Stakes is Ownable, ReentrancyGuard {... */\n    tag_68:\n      pop\n      jumpi(tag_114, callvalue)\n      jumpi(tag_114, slt(add(not(0x03), calldatasize), 0x0160))\n      tag_104\n      tag_1\n      jump\t// in\n    tag_104:\n      tag_105\n      tag_6\n      jump\t// in\n    tag_105:\n      swap2\n      tag_106\n      tag_2\n      jump\t// in\n    tag_106:\n      swap1\n      tag_107\n      tag_7\n      jump\t// in\n    tag_107:\n      tag_108\n      tag_8\n      jump\t// in\n    tag_108:\n      swap5\n      tag_109\n      tag_3\n      jump\t// in\n    tag_109:\n      swap2\n      calldataload(0xc4)\n      calldataload(0x0104)\n      swap7\n      0xff\n      dup9\n      and\n      dup1\n      swap9\n      sub\n      tag_114\n      jumpi\n        /* \"@openzeppelin/contracts/security/ReentrancyGuard.sol\":2227:2330  modifier nonReentrant() {... */\n      tag_112\n      tag_24\n      jump\t// in\n    tag_112:\n        /* \"Connect4Stakes.sol\":6566:6582  resolveWindowSec */\n      tag_113\n      dup10\n      dup5\n      dup7\n      tag_25\n      jump\t// in\n    tag_113:\n      sub(shl(0xa0, 0x01), 0x01)\n        /* \"Connect4Stakes.sol\":912:12937  contract Connect4Stakes is Ownable, ReentrancyGuard {... */\n      and\n      swap7\n        /* \"Connect4Stakes.sol\":6653:6744  IERC20Permit(token).permit(msg.sender, address(this), permitValue, permitDeadline, v, r, s) */\n      dup8\n      extcodesize\n      iszero\n      tag_114\n      jumpi\n        /* \"Connect4Stakes.sol\":912:12937  contract Connect4Stakes is Ownable, ReentrancyGuard {... */\n      mload(0x40)\n      swap1\n      shl(0xe0, 0xd505accf)\n        /* \"Connect4Stakes.sol\":6653:6744  IERC20Permit(token).permit(msg.sender, address(this), permitValue, permitDeadline, v, r, s) */\n      dup3\n      mstore\n        /* \"Connect4Stakes.sol\":6680:6690  msg.sender */\n      caller\n        /* \"Connect4Stakes.sol\":912:12937  contract Connect4Stakes is Ownable, ReentrancyGuard {... */\n      0x04\n        /* \"Connect4Stakes.sol\":6653:6744  IERC20Permit(token).permit(msg.sender, address(this), permitValue, permitDeadline, v, r, s) */\n      dup4\n      add\n        /* \"Connect4Stakes.sol\":912:12937  contract Connect4Stakes is Ownable, ReentrancyGuard {... */\n      mstore\n        /* \"Connect4Stakes.sol\":6700:6704  this */\n      address\n        /* \"Connect4Stakes.sol\":912:12937  contract Connect4Stakes is Ownable, ReentrancyGuard {... */\n      0x24\n      dup4\n      add\n      mstore\n      dup3\n      0x44\n      dup4\n      add\n      mstore\n      calldataload(0xe4)\n      0x64\n      dup4\n      add\n      mstore\n      0x84\n      dup3\n      add\n      mstore\n      calldataload(0x0124)\n      0xa4\n      dup3\n      add\n      mstore\n      calldataload(0x0144)\n      0xc4\n      dup3\n      add\n      mstore\n      0x00\n        /* \"Connect4Stakes.sol\":6653:6744  IERC20Permit(token).permit(msg.sender, address(this), permitValue, permitDeadline, v, r, s) */\n      dup2\n        /* \"Connect4Stakes.sol\":912:12937  contract Connect4Stakes is Ownable, ReentrancyGuard {... */\n      0xe4\n        /* \"Connect4Stakes.sol\":6653:6744  IERC20Permit(token).permit(msg.sender, address(this), permitValue, permitDeadline, v, r, s) */\n      dup2\n      dup4\n      dup13\n      gas\n      call\n      dup1\n      iszero\n      tag_116\n      jumpi\n      tag_118\n      jumpi\n        /* \"Connect4Stakes.sol\":912:12937  contract Connect4Stakes is Ownable, ReentrancyGuard {... */\n    tag_119:\n      pop\n      sub(shl(0x60, 0x01), 0x01)\n      dup4\n      and\n        /* \"Connect4Stakes.sol\":6762:6782  permitValue >= stake */\n      dup1\n      swap2\n      lt\n        /* \"Connect4Stakes.sol\":912:12937  contract Connect4Stakes is Ownable, ReentrancyGuard {... */\n      tag_120\n      jumpi\n      sload(0x04)\n        /* \"Connect4Stakes.sol\":6817:6830  nextMatchId++ */\n      swap8\n      dup9\n      swap6\n      tag_122\n      dup8\n      tag_11\n      jump\t// in\n    tag_122:\n        /* \"Connect4Stakes.sol\":912:12937  contract Connect4Stakes is Ownable, ReentrancyGuard {... */\n      0x04\n      sstore\n      dup7\n      dup2\n      mstore\n        /* \"Connect4Stakes.sol\":6858:6865  matches */\n      0x05\n        /* \"Connect4Stakes.sol\":912:12937  contract Connect4Stakes is Ownable, ReentrancyGuard {... */\n      0x20\n      mstore\n      0x40\n      swap1\n      keccak256\n      dup1\n      sload\n      not(sub(shl(0xa0, 0x01), 0x01))\n      swap1\n      dup2\n      and\n        /* \"Connect4Stakes.sol\":6680:6690  msg.sender */\n      caller\n        /* \"Connect4Stakes.sol\":912:12937  contract Connect4Stakes is Ownable, ReentrancyGuard {... */\n      or\n      dup3\n      sstore\n      0x01\n        /* \"Connect4Stakes.sol\":6911:6921  m.opponent */\n      dup3\n      add\n        /* \"Connect4Stakes.sol\":912:12937  contract Connect4Stakes is Ownable, ReentrancyGuard {... */\n      dup1\n      sload\n      dup3\n      and\n      sub(shl(0xa0, 0x01), 0x01)\n      dup12\n      dup2\n      and\n      swap2\n      swap1\n      swap2\n      or\n      swap1\n      swap2\n      sstore\n      dup11\n      and\n      0xa0\n      dup8\n      swap1\n      shl\n      swap1\n      swap2\n      and\n      or\n        /* \"Connect4Stakes.sol\":6942:6949  m.token */\n      0x02\n      dup3\n      add\n        /* \"Connect4Stakes.sol\":912:12937  contract Connect4Stakes is Ownable, ReentrancyGuard {... */\n      sstore\n      swap1\n        /* \"Connect4Stakes.sol\":6992:7003  m.createdAt */\n      0x03\n      dup3\n      add\n        /* \"Connect4Stakes.sol\":7013:7028  block.timestamp */\n      swap4\n      timestamp\n        /* \"Connect4Stakes.sol\":912:12937  contract Connect4Stakes is Ownable, ReentrancyGuard {... */\n      0xffffffffff\n      and\n      0xffffffffff\n      and\n      not(0xffffffffff)\n      dup7\n      sload\n      and\n      or\n      dup6\n      sstore\n      0xffffffff\n      and\n        /* \"Connect4Stakes.sol\":7013:7028  block.timestamp */\n      timestamp\n        /* \"Connect4Stakes.sol\":7064:7098  block.timestamp + startDeadlineSec */\n      swap1\n      tag_124\n      swap2\n      tag_13\n      jump\t// in\n    tag_124:\n        /* \"Connect4Stakes.sol\":912:12937  contract Connect4Stakes is Ownable, ReentrancyGuard {... */\n      dup5\n      sload\n      not(0xffffffffff0000000000)\n      and\n      0x28\n      swap2\n      swap1\n      swap2\n      shl\n      0xffffffffff0000000000\n      and\n      or\n      dup5\n      sstore\n      dup4\n      sload\n      not(shl(0x78, 0xffffffff))\n      and\n      0x78\n      swap2\n      swap1\n      swap2\n      shl\n      shl(0x78, 0xffffffff)\n      and\n      or\n      dup4\n      sstore\n      0x04\n        /* \"Connect4Stakes.sol\":7153:7163  m.resolver */\n      add\n        /* \"Connect4Stakes.sol\":912:12937  contract Connect4Stakes is Ownable, ReentrancyGuard {... */\n      dup1\n      sload\n      sub(shl(0xa0, 0x01), 0x01)\n      dup7\n      and\n      not(sub(shl(0xa0, 0xff0001), 0x01))\n      dup3\n      and\n      dup2\n      or\n      dup4\n      sstore\n        /* \"Connect4Stakes.sol\":6942:6949  m.token */\n      0x02\n        /* \"Connect4Stakes.sol\":912:12937  contract Connect4Stakes is Ownable, ReentrancyGuard {... */\n      sload\n      shl(0xa0, 0xffff)\n      and\n      not(sub(shl(0xb8, 0x01), 0x01))\n      swap1\n      swap3\n      and\n      or\n      or\n      swap1\n      sstore\n        /* \"Connect4Stakes.sol\":7254:7318  IERC20(token).safeTransferFrom(msg.sender, address(this), stake) */\n      tag_128\n      swap1\n        /* \"Connect4Stakes.sol\":6700:6704  this */\n      address\n        /* \"Connect4Stakes.sol\":6680:6690  msg.sender */\n      caller\n        /* \"Connect4Stakes.sol\":7254:7318  IERC20(token).safeTransferFrom(msg.sender, address(this), stake) */\n      dup10\n      tag_26\n      jump\t// in\n    tag_128:\n        /* \"Connect4Stakes.sol\":912:12937  contract Connect4Stakes is Ownable, ReentrancyGuard {... */\n      sload\n      0x40\n      dup1\n      mload\n      sub(shl(0x60, 0x01), 0x01)\n      swap4\n      swap1\n      swap4\n      and\n      dup4\n      mstore\n      sub(shl(0xa0, 0x01), 0x01)\n      swap6\n      dup7\n      and\n      0x20\n      dup5\n      add\n      mstore\n      0x28\n      dup3\n      swap1\n      shr\n      0xffffffffff\n      and\n      swap1\n      dup4\n      add\n      mstore\n      0x78\n      shr\n      0xffffffff\n      and\n      0x60\n      dup3\n      add\n      mstore\n      swap3\n      and\n      0x80\n      dup4\n      add\n      mstore\n        /* \"Connect4Stakes.sol\":6680:6690  msg.sender */\n      caller\n      swap2\n        /* \"Connect4Stakes.sol\":912:12937  contract Connect4Stakes is Ownable, ReentrancyGuard {... */\n      dup1\n      0xa0\n      dup2\n      add\n        /* \"Connect4Stakes.sol\":7334:7452  MatchCreated(... */\n      sub\n      0xf976ac1091ae1d609c0dc3a04834e4964b264db74217663204ce435fee968f50\n      swap2\n      log4\n        /* \"Connect4Stakes.sol\":912:12937  contract Connect4Stakes is Ownable, ReentrancyGuard {... */\n      0x01\n      dup1\n      sstore\n      mload(0x40)\n      swap1\n      dup2\n      mstore\n      0x20\n      swap1\n      return\n    tag_120:\n      mload(0x40)\n      shl(0xe5, 0x461bcd)\n      dup2\n      mstore\n      0x20\n      0x04\n      dup3\n      add\n      mstore\n      0x0e\n      0x24\n      dup3\n      add\n      mstore\n      shl(0x90, 0x7065726d6974203c207374616b65)\n      0x44\n      dup3\n      add\n      mstore\n      0x64\n      swap1\n      revert\n        /* \"Connect4Stakes.sol\":6653:6744  IERC20Permit(token).permit(msg.sender, address(this), permitValue, permitDeadline, v, r, s) */\n    tag_118:\n      tag_130\n      swap2\n      swap6\n      pop\n        /* \"Connect4Stakes.sol\":912:12937  contract Connect4Stakes is Ownable, ReentrancyGuard {... */\n      0x00\n        /* \"Connect4Stakes.sol\":6653:6744  IERC20Permit(token).permit(msg.sender, address(this), permitValue, permitDeadline, v, r, s) */\n      swap1\n      tag_10\n      jump\t// in\n    tag_130:\n        /* \"Connect4Stakes.sol\":912:12937  contract Connect4Stakes is Ownable, ReentrancyGuard {... */\n      0x00\n        /* \"Connect4Stakes.sol\":6653:6744  IERC20Permit(token).permit(msg.sender, address(this), permitValue, permitDeadline, v, r, s) */\n      swap4\n      0x00\n      jump(tag_119)\n    tag_116:\n        /* \"Connect4Stakes.sol\":912:12937  contract Connect4Stakes is Ownable, ReentrancyGuard {... */\n      mload(0x40)\n      returndatasize\n      0x00\n      dup3\n      returndatacopy\n      returndatasize\n      swap1\n      revert\n        /* \"Connect4Stakes.sol\":6653:6744  IERC20Permit(token).permit(msg.sender, address(this), permitValue, permitDeadline, v, r, s) */\n    tag_114:\n        /* \"Connect4Stakes.sol\":912:12937  contract Connect4Stakes is Ownable, ReentrancyGuard {... */\n      0x00\n      dup1\n      revert\n    tag_66:\n      jumpi(tag_114, callvalue)\n      jumpi(tag_114, slt(add(not(0x03), calldatasize), 0x40))\n      calldataload(0x04)\n      tag_135\n      tag_4\n      jump\t// in\n    tag_135:\n        /* \"@openzeppelin/contracts/security/ReentrancyGuard.sol\":2227:2330  modifier nonReentrant() {... */\n      tag_136\n      tag_24\n      jump\t// in\n    tag_136:\n        /* \"Connect4Stakes.sol\":912:12937  contract Connect4Stakes is Ownable, ReentrancyGuard {... */\n      dup2\n      0x00\n      mstore\n        /* \"Connect4Stakes.sol\":9857:9864  matches */\n      0x05\n        /* \"Connect4Stakes.sol\":912:12937  contract Connect4Stakes is Ownable, ReentrancyGuard {... */\n      0x20\n      mstore\n      keccak256(0x00, 0x40)\n        /* \"Connect4Stakes.sol\":9886:9894  m.status */\n      swap2\n        /* \"Connect4Stakes.sol\":912:12937  contract Connect4Stakes is Ownable, ReentrancyGuard {... */\n      0x04\n        /* \"Connect4Stakes.sol\":9886:9894  m.status */\n      dup4\n      add\n        /* \"Connect4Stakes.sol\":912:12937  contract Connect4Stakes is Ownable, ReentrancyGuard {... */\n      sload\n      0xff\n      dup2\n      0xb0\n      shr\n      and\n      0x04\n      dup2\n      lt\n      iszero\n      tag_137\n      jumpi\n      0x01\n        /* \"Connect4Stakes.sol\":9878:9928  require(m.status == Status.Started, \"not started\") */\n      tag_139\n        /* \"Connect4Stakes.sol\":9886:9912  m.status == Status.Started */\n      swap2\n      eq\n        /* \"Connect4Stakes.sol\":9878:9928  require(m.status == Status.Started, \"not started\") */\n      tag_20\n      jump\t// in\n    tag_139:\n      sub(shl(0xa0, 0x01), 0x01)\n        /* \"Connect4Stakes.sol\":912:12937  contract Connect4Stakes is Ownable, ReentrancyGuard {... */\n      and\n        /* \"Connect4Stakes.sol\":9959:9969  msg.sender */\n      caller\n        /* \"Connect4Stakes.sol\":9959:9983  msg.sender == m.resolver */\n      eq\n        /* \"Connect4Stakes.sol\":9959:10009  msg.sender == m.resolver || isResolver[msg.sender] */\n      dup1\n      iszero\n      tag_140\n      jumpi\n        /* \"Connect4Stakes.sol\":912:12937  contract Connect4Stakes is Ownable, ReentrancyGuard {... */\n    tag_141:\n        /* \"Connect4Stakes.sol\":9959:10034  msg.sender == m.resolver || isResolver[msg.sender] || msg.sender == owner() */\n      dup1\n      iszero\n      tag_142\n      jumpi\n        /* \"Connect4Stakes.sol\":912:12937  contract Connect4Stakes is Ownable, ReentrancyGuard {... */\n    tag_143:\n      iszero\n      tag_144\n      jumpi\n      dup3\n      sload\n        /* \"Connect4Stakes.sol\":10176:10182  winner */\n      tag_147\n      swap4\n        /* \"Connect4Stakes.sol\":10084:10154  require(winner == m.creator || winner == m.opponent, \"invalid winner\") */\n      tag_146\n      swap2\n      sub(shl(0xa0, 0x01), 0x01)\n        /* \"Connect4Stakes.sol\":912:12937  contract Connect4Stakes is Ownable, ReentrancyGuard {... */\n      dup6\n      dup2\n      and\n      swap2\n      and\n        /* \"Connect4Stakes.sol\":10092:10111  winner == m.creator */\n      dup2\n      eq\n      swap2\n        /* \"Connect4Stakes.sol\":10092:10135  winner == m.creator || winner == m.opponent */\n      dup3\n      iszero\n      tag_148\n      jumpi\n        /* \"Connect4Stakes.sol\":912:12937  contract Connect4Stakes is Ownable, ReentrancyGuard {... */\n    tag_149:\n        /* \"Connect4Stakes.sol\":10084:10154  require(winner == m.creator || winner == m.opponent, \"invalid winner\") */\n      pop\n      pop\n      tag_21\n      jump\t// in\n    tag_146:\n        /* \"Connect4Stakes.sol\":10176:10182  winner */\n      tag_28\n      jump\t// in\n    tag_147:\n        /* \"Connect4Stakes.sol\":912:12937  contract Connect4Stakes is Ownable, ReentrancyGuard {... */\n      0x01\n      dup1\n      sstore\n      stop\n        /* \"Connect4Stakes.sol\":10092:10135  winner == m.creator || winner == m.opponent */\n    tag_148:\n        /* \"Connect4Stakes.sol\":912:12937  contract Connect4Stakes is Ownable, ReentrancyGuard {... */\n      0x01\n        /* \"Connect4Stakes.sol\":10125:10135  m.opponent */\n      add\n        /* \"Connect4Stakes.sol\":912:12937  contract Connect4Stakes is Ownable, ReentrancyGuard {... */\n      sload\n      sub(shl(0xa0, 0x01), 0x01)\n      and\n        /* \"Connect4Stakes.sol\":10115:10135  winner == m.opponent */\n      eq\n      swap1\n      pop\n        /* \"Connect4Stakes.sol\":10092:10135  winner == m.creator || winner == m.opponent */\n      dup6\n      dup1\n      jump(tag_149)\n        /* \"Connect4Stakes.sol\":912:12937  contract Connect4Stakes is Ownable, ReentrancyGuard {... */\n    tag_144:\n      mload(0x40)\n      shl(0xe5, 0x461bcd)\n      dup2\n      mstore\n      0x20\n      0x04\n      dup3\n      add\n      mstore\n      0x0e\n      0x24\n      dup3\n      add\n      mstore\n      shl(0x92, 0x1b9bdd08185d5d1a1bdc9a5e9959)\n      0x44\n      dup3\n      add\n      mstore\n      0x64\n      swap1\n      revert\n        /* \"Connect4Stakes.sol\":9959:10034  msg.sender == m.resolver || isResolver[msg.sender] || msg.sender == owner() */\n    tag_142:\n      pop\n        /* \"Connect4Stakes.sol\":912:12937  contract Connect4Stakes is Ownable, ReentrancyGuard {... */\n      and(sub(shl(0xa0, 0x01), 0x01), sload(0x00))\n        /* \"Connect4Stakes.sol\":9959:9969  msg.sender */\n      caller\n        /* \"Connect4Stakes.sol\":10013:10034  msg.sender == owner() */\n      eq\n        /* \"Connect4Stakes.sol\":9959:10034  msg.sender == m.resolver || isResolver[msg.sender] || msg.sender == owner() */\n      jump(tag_143)\n        /* \"Connect4Stakes.sol\":9959:10009  msg.sender == m.resolver || isResolver[msg.sender] */\n    tag_140:\n        /* \"Connect4Stakes.sol\":9959:9969  msg.sender */\n      pop\n      caller\n        /* \"Connect4Stakes.sol\":912:12937  contract Connect4Stakes is Ownable, ReentrancyGuard {... */\n      0x00\n      mstore\n        /* \"Connect4Stakes.sol\":9987:9997  isResolver */\n      0x03\n        /* \"Connect4Stakes.sol\":912:12937  contract Connect4Stakes is Ownable, ReentrancyGuard {... */\n      0x20\n      mstore\n      and(sload(keccak256(0x00, 0x40)), 0xff)\n        /* \"Connect4Stakes.sol\":9959:10009  msg.sender == m.resolver || isResolver[msg.sender] */\n      jump(tag_141)\n        /* \"Connect4Stakes.sol\":912:12937  contract Connect4Stakes is Ownable, ReentrancyGuard {... */\n    tag_137:\n      mstore(0x00, shl(0xe0, 0x4e487b71))\n      mstore(0x04, 0x21)\n      revert(0x00, 0x24)\n    tag_64:\n      jumpi(tag_114, callvalue)\n      jumpi(tag_114, slt(add(not(0x03), calldatasize), 0x00))\n      0x20\n      sload(0x04)\n      mload(0x40)\n      swap1\n      dup2\n      mstore\n      return\n    tag_62:\n      jumpi(tag_114, callvalue)\n      jumpi(tag_114, slt(add(not(0x03), calldatasize), 0x20))\n      0x20\n      tag_158\n      calldataload(0x04)\n      tag_22\n      jump\t// in\n    tag_158:\n      mload(0x40)\n      swap1\n      dup2\n      mstore\n      return\n    tag_60:\n      jumpi(tag_114, callvalue)\n      jumpi(tag_114, slt(add(not(0x03), calldatasize), 0x00))\n      0x20\n      0xffff\n        /* \"Connect4Stakes.sol\":2397:2427  uint16  public maxFeeBps = 500 */\n      0x02\n        /* \"Connect4Stakes.sol\":912:12937  contract Connect4Stakes is Ownable, ReentrancyGuard {... */\n      sload\n      0xb0\n      shr\n      and\n      mload(0x40)\n      swap1\n      dup2\n      mstore\n      return\n    tag_58:\n      jumpi(tag_114, callvalue)\n      jumpi(tag_114, slt(add(not(0x03), calldatasize), 0x00))\n      0x20\n      0xffff\n        /* \"Connect4Stakes.sol\":2345:2377  uint16  public defaultFeeBps = 0 */\n      0x02\n        /* \"Connect4Stakes.sol\":912:12937  contract Connect4Stakes is Ownable, ReentrancyGuard {... */\n      sload\n      0xa0\n      shr\n      and\n      mload(0x40)\n      swap1\n      dup2\n      mstore\n      return\n    tag_56:\n      jumpi(tag_114, callvalue)\n      jumpi(tag_114, slt(add(not(0x03), calldatasize), 0x20))\n      sub(shl(0xa0, 0x01), 0x01)\n      tag_171\n      tag_1\n      jump\t// in\n    tag_171:\n      and\n      0x00\n      mstore\n        /* \"Connect4Stakes.sol\":2451:2493  mapping(address => bool) public isResolver */\n      0x03\n        /* \"Connect4Stakes.sol\":912:12937  contract Connect4Stakes is Ownable, ReentrancyGuard {... */\n      0x20\n      mstore\n      0x20\n      and(sload(keccak256(0x00, 0x40)), 0xff)\n      mload(0x40)\n      swap1\n      iszero\n      iszero\n      dup2\n      mstore\n      return\n    tag_54:\n      jumpi(tag_114, callvalue)\n      jumpi(tag_114, slt(add(not(0x03), calldatasize), 0x20))\n      calldataload(0x04)\n        /* \"@openzeppelin/contracts/security/ReentrancyGuard.sol\":2227:2330  modifier nonReentrant() {... */\n      tag_176\n      tag_24\n      jump\t// in\n    tag_176:\n        /* \"Connect4Stakes.sol\":912:12937  contract Connect4Stakes is Ownable, ReentrancyGuard {... */\n      dup1\n      0x00\n      mstore\n        /* \"Connect4Stakes.sol\":10462:10469  matches */\n      0x05\n        /* \"Connect4Stakes.sol\":912:12937  contract Connect4Stakes is Ownable, ReentrancyGuard {... */\n      0x20\n      mstore\n      keccak256(0x00, 0x40)\n      0x04\n        /* \"Connect4Stakes.sol\":10491:10499  m.status */\n      dup2\n      add\n        /* \"Connect4Stakes.sol\":912:12937  contract Connect4Stakes is Ownable, ReentrancyGuard {... */\n      swap1\n      0xff\n      dup3\n      sload\n      0xb0\n      shr\n      and\n      0x04\n      dup2\n      lt\n      iszero\n      tag_137\n      jumpi\n        /* \"Connect4Stakes.sol\":10483:10534  require(m.status == Status.Created, \"wrong status\") */\n      tag_179\n        /* \"Connect4Stakes.sol\":10491:10517  m.status == Status.Created */\n      swap1\n      iszero\n        /* \"Connect4Stakes.sol\":10483:10534  require(m.status == Status.Created, \"wrong status\") */\n      tag_18\n      jump\t// in\n    tag_179:\n        /* \"Connect4Stakes.sol\":912:12937  contract Connect4Stakes is Ownable, ReentrancyGuard {... */\n      0xffffffffff\n        /* \"Connect4Stakes.sol\":10570:10585  m.startDeadline */\n      0x03\n      dup3\n      add\n        /* \"Connect4Stakes.sol\":912:12937  contract Connect4Stakes is Ownable, ReentrancyGuard {... */\n      sload\n      0x28\n      shr\n      and\n        /* \"Connect4Stakes.sol\":10552:10567  block.timestamp */\n      timestamp\n        /* \"Connect4Stakes.sol\":10552:10585  block.timestamp > m.startDeadline */\n      gt\n        /* \"Connect4Stakes.sol\":912:12937  contract Connect4Stakes is Ownable, ReentrancyGuard {... */\n      iszero\n      tag_180\n      jumpi\n      dup1\n      sload\n      sub(shl(0xa0, 0x01), 0x01)\n      and\n        /* \"Connect4Stakes.sol\":10628:10638  msg.sender */\n      caller\n        /* \"Connect4Stakes.sol\":10628:10651  msg.sender == m.creator */\n      sub\n        /* \"Connect4Stakes.sol\":912:12937  contract Connect4Stakes is Ownable, ReentrancyGuard {... */\n      tag_182\n      jumpi\n      dup2\n      sload\n      not(shl(0xb0, 0xff))\n      and\n      shl(0xb0, 0x03)\n      or\n      swap1\n      swap2\n      sstore\n        /* \"Connect4Stakes.sol\":10722:10729  m.token */\n      0x02\n      dup2\n      add\n        /* \"Connect4Stakes.sol\":912:12937  contract Connect4Stakes is Ownable, ReentrancyGuard {... */\n      sload\n      swap1\n      sload\n        /* \"Connect4Stakes.sol\":10715:10763  IERC20(m.token).safeTransfer(m.creator, m.stake) */\n      tag_184\n      swap2\n        /* \"Connect4Stakes.sol\":912:12937  contract Connect4Stakes is Ownable, ReentrancyGuard {... */\n      0xa0\n      dup2\n      swap1\n      shr\n      swap2\n      sub(shl(0xa0, 0x01), 0x01)\n      swap1\n      dup2\n      and\n      swap2\n      and\n        /* \"Connect4Stakes.sol\":10715:10763  IERC20(m.token).safeTransfer(m.creator, m.stake) */\n      tag_27\n      jump\t// in\n    tag_184:\n        /* \"Connect4Stakes.sol\":10778:10795  MatchRefunded(id) */\n      0xd032e44272ccb930cd0264251a97b70771f63de576a3fbeff5f2afe58f9c91be\n        /* \"Connect4Stakes.sol\":912:12937  contract Connect4Stakes is Ownable, ReentrancyGuard {... */\n      0x00\n        /* \"Connect4Stakes.sol\":10778:10795  MatchRefunded(id) */\n      dup1\n      log2\n        /* \"Connect4Stakes.sol\":912:12937  contract Connect4Stakes is Ownable, ReentrancyGuard {... */\n      0x01\n      dup1\n      sstore\n      stop\n    tag_182:\n      mload(0x40)\n      shl(0xe5, 0x461bcd)\n      dup2\n      mstore\n      0x20\n      0x04\n      dup3\n      add\n      mstore\n      0x0c\n      0x24\n      dup3\n      add\n      mstore\n      shl(0xa1, 0x37b7363c9031b932b0ba37b9)\n      0x44\n      dup3\n      add\n      mstore\n      0x64\n      swap1\n      revert\n    tag_180:\n      mload(0x40)\n      shl(0xe5, 0x461bcd)\n      dup2\n      mstore\n      0x20\n      0x04\n      dup3\n      add\n      mstore\n      0x14\n      0x24\n      dup3\n      add\n      mstore\n      shl(0x61, 0x3537b4b7103bb4b73237bb903737ba1037bb32b9)\n      0x44\n      dup3\n      add\n      mstore\n      0x64\n      swap1\n      revert\n    tag_52:\n      jumpi(tag_114, callvalue)\n      jumpi(tag_114, slt(add(not(0x03), calldatasize), 0x40))\n      calldataload(0x04)\n      tag_189\n      tag_4\n      jump\t// in\n    tag_189:\n        /* \"@openzeppelin/contracts/security/ReentrancyGuard.sol\":2227:2330  modifier nonReentrant() {... */\n      tag_190\n      tag_24\n      jump\t// in\n    tag_190:\n        /* \"Connect4Stakes.sol\":912:12937  contract Connect4Stakes is Ownable, ReentrancyGuard {... */\n      dup2\n      0x00\n      mstore\n        /* \"Connect4Stakes.sol\":8975:8982  matches */\n      0x05\n        /* \"Connect4Stakes.sol\":912:12937  contract Connect4Stakes is Ownable, ReentrancyGuard {... */\n      0x20\n      mstore\n      keccak256(0x00, 0x40)\n      0xff\n      0x04\n        /* \"Connect4Stakes.sol\":9004:9012  m.status */\n      dup3\n      add\n        /* \"Connect4Stakes.sol\":912:12937  contract Connect4Stakes is Ownable, ReentrancyGuard {... */\n      sload\n      0xb0\n      shr\n      and\n      0x04\n      dup2\n      lt\n      iszero\n      tag_137\n      jumpi\n      0x01\n        /* \"Connect4Stakes.sol\":8996:9046  require(m.status == Status.Started, \"not started\") */\n      tag_193\n        /* \"Connect4Stakes.sol\":9004:9030  m.status == Status.Started */\n      swap2\n      eq\n        /* \"Connect4Stakes.sol\":8996:9046  require(m.status == Status.Started, \"not started\") */\n      tag_20\n      jump\t// in\n    tag_193:\n        /* \"Connect4Stakes.sol\":912:12937  contract Connect4Stakes is Ownable, ReentrancyGuard {... */\n      0xffffffffff\n        /* \"Connect4Stakes.sol\":9083:9100  m.resolveDeadline */\n      0x03\n      dup3\n      add\n        /* \"Connect4Stakes.sol\":912:12937  contract Connect4Stakes is Ownable, ReentrancyGuard {... */\n      sload\n      0x50\n      shr\n      and\n        /* \"Connect4Stakes.sol\":9064:9079  block.timestamp */\n      timestamp\n        /* \"Connect4Stakes.sol\":9064:9100  block.timestamp <= m.resolveDeadline */\n      gt\n        /* \"Connect4Stakes.sol\":912:12937  contract Connect4Stakes is Ownable, ReentrancyGuard {... */\n      tag_194\n      jumpi\n      dup1\n      sload\n      sub(shl(0xa0, 0x01), 0x01)\n      dup4\n      dup2\n      and\n      swap2\n      and\n        /* \"Connect4Stakes.sol\":9145:9164  winner == m.creator */\n      dup2\n      dup2\n      eq\n        /* \"Connect4Stakes.sol\":9145:9188  winner == m.creator || winner == m.opponent */\n      dup1\n      iszero\n      tag_196\n      jumpi\n        /* \"Connect4Stakes.sol\":912:12937  contract Connect4Stakes is Ownable, ReentrancyGuard {... */\n    tag_197:\n        /* \"Connect4Stakes.sol\":9137:9207  require(winner == m.creator || winner == m.opponent, \"invalid winner\") */\n      tag_198\n      swap1\n      tag_21\n      jump\t// in\n    tag_198:\n        /* \"Connect4Stakes.sol\":9225:9235  msg.sender */\n      caller\n        /* \"Connect4Stakes.sol\":9225:9248  msg.sender == m.creator */\n      eq\n      dup1\n        /* \"Connect4Stakes.sol\":9225:9276  msg.sender == m.creator || msg.sender == m.opponent */\n      dup1\n      iszero\n      tag_199\n      jumpi\n        /* \"Connect4Stakes.sol\":912:12937  contract Connect4Stakes is Ownable, ReentrancyGuard {... */\n    tag_200:\n        /* \"Connect4Stakes.sol\":9217:9293  require(msg.sender == m.creator || msg.sender == m.opponent, \"not a player\") */\n      tag_201\n      swap1\n      tag_19\n      jump\t// in\n    tag_201:\n        /* \"Connect4Stakes.sol\":9308:9331  msg.sender == m.creator */\n      iszero\n      tag_202\n      jumpi\n        /* \"Connect4Stakes.sol\":9347:9360  m.creatorVote */\n      0x06\n      dup3\n      add\n        /* \"Connect4Stakes.sol\":912:12937  contract Connect4Stakes is Ownable, ReentrancyGuard {... */\n      dup1\n      sload\n      not(sub(shl(0xa0, 0x01), 0x01))\n      and\n      dup3\n      or\n      swap1\n      sstore\n        /* \"Connect4Stakes.sol\":9304:9434  if (msg.sender == m.creator) {... */\n    tag_204:\n        /* \"Connect4Stakes.sol\":912:12937  contract Connect4Stakes is Ownable, ReentrancyGuard {... */\n      mload(0x40)\n      swap1\n      dup2\n      mstore\n        /* \"Connect4Stakes.sol\":9225:9235  msg.sender */\n      dup4\n        /* \"Connect4Stakes.sol\":9449:9493  MatchResultSubmitted(id, msg.sender, winner) */\n      0x0c9b740236bb539e45eb1efa55cd846ada59902e71f281c7e6f8db14fe6582f0\n        /* \"Connect4Stakes.sol\":912:12937  contract Connect4Stakes is Ownable, ReentrancyGuard {... */\n      0x20\n        /* \"Connect4Stakes.sol\":9225:9235  msg.sender */\n      caller\n        /* \"Connect4Stakes.sol\":9449:9493  MatchResultSubmitted(id, msg.sender, winner) */\n      swap4\n      log3\n        /* \"Connect4Stakes.sol\":9508:9521  m.creatorVote */\n      0x06\n      dup2\n      add\n        /* \"Connect4Stakes.sol\":912:12937  contract Connect4Stakes is Ownable, ReentrancyGuard {... */\n      sload\n      sub(shl(0xa0, 0x01), 0x01)\n      and\n        /* \"Connect4Stakes.sol\":9508:9535  m.creatorVote != address(0) */\n      dup1\n      iszero\n      iszero\n      swap2\n      dup3\n        /* \"Connect4Stakes.sol\":9508:9570  m.creatorVote != address(0) && m.creatorVote == m.opponentVote */\n      tag_205\n      jumpi\n        /* \"Connect4Stakes.sol\":9304:9434  if (msg.sender == m.creator) {... */\n    tag_206:\n        /* \"Connect4Stakes.sol\":9504:9616  if (m.creatorVote != address(0) && m.creatorVote == m.opponentVote) {... */\n      pop\n      pop\n      tag_207\n      jumpi\n        /* \"Connect4Stakes.sol\":912:12937  contract Connect4Stakes is Ownable, ReentrancyGuard {... */\n      0x01\n      dup1\n      sstore\n      stop\n        /* \"Connect4Stakes.sol\":9504:9616  if (m.creatorVote != address(0) && m.creatorVote == m.opponentVote) {... */\n    tag_207:\n        /* \"Connect4Stakes.sol\":9598:9604  winner */\n      tag_209\n      swap2\n      tag_28\n      jump\t// in\n    tag_209:\n        /* \"Connect4Stakes.sol\":9504:9616  if (m.creatorVote != address(0) && m.creatorVote == m.opponentVote) {... */\n      dup1\n      dup1\n      jump(tag_147)\n        /* \"Connect4Stakes.sol\":9508:9570  m.creatorVote != address(0) && m.creatorVote == m.opponentVote */\n    tag_205:\n        /* \"Connect4Stakes.sol\":9556:9570  m.opponentVote */\n      0x07\n      add\n        /* \"Connect4Stakes.sol\":912:12937  contract Connect4Stakes is Ownable, ReentrancyGuard {... */\n      sload\n      sub(shl(0xa0, 0x01), 0x01)\n      and\n        /* \"Connect4Stakes.sol\":9539:9570  m.creatorVote == m.opponentVote */\n      eq\n      swap1\n      pop\n        /* \"Connect4Stakes.sol\":9508:9570  m.creatorVote != address(0) && m.creatorVote == m.opponentVote */\n      dup4\n      dup1\n      jump(tag_206)\n        /* \"Connect4Stakes.sol\":9304:9434  if (msg.sender == m.creator) {... */\n    tag_202:\n        /* \"Connect4Stakes.sol\":9400:9414  m.opponentVote */\n      0x07\n      dup3\n      add\n        /* \"Connect4Stakes.sol\":912:12937  contract Connect4Stakes is Ownable, ReentrancyGuard {... */\n      dup1\n      sload\n      not(sub(shl(0xa0, 0x01), 0x01))\n      and\n      dup3\n      or\n      swap1\n      sstore\n        /* \"Connect4Stakes.sol\":9304:9434  if (msg.sender == m.creator) {... */\n      jump(tag_204)\n        /* \"Connect4Stakes.sol\":9225:9276  msg.sender == m.creator || msg.sender == m.opponent */\n    tag_199:\n      pop\n        /* \"Connect4Stakes.sol\":912:12937  contract Connect4Stakes is Ownable, ReentrancyGuard {... */\n      0x01\n        /* \"Connect4Stakes.sol\":9266:9276  m.opponent */\n      dup4\n      add\n        /* \"Connect4Stakes.sol\":912:12937  contract Connect4Stakes is Ownable, ReentrancyGuard {... */\n      sload\n      sub(shl(0xa0, 0x01), 0x01)\n      and\n        /* \"Connect4Stakes.sol\":9225:9235  msg.sender */\n      caller\n        /* \"Connect4Stakes.sol\":9252:9276  msg.sender == m.opponent */\n      eq\n        /* \"Connect4Stakes.sol\":9225:9276  msg.sender == m.creator || msg.sender == m.opponent */\n      jump(tag_200)\n        /* \"Connect4Stakes.sol\":9145:9188  winner == m.creator || winner == m.opponent */\n    tag_196:\n      pop\n        /* \"Connect4Stakes.sol\":912:12937  contract Connect4Stakes is Ownable, ReentrancyGuard {... */\n      0x01\n        /* \"Connect4Stakes.sol\":9178:9188  m.opponent */\n      dup4\n      add\n        /* \"Connect4Stakes.sol\":912:12937  contract Connect4Stakes is Ownable, ReentrancyGuard {... */\n      sload\n      sub(shl(0xa0, 0x01), 0x01)\n      and\n        /* \"Connect4Stakes.sol\":9168:9188  winner == m.opponent */\n      dup3\n      eq\n        /* \"Connect4Stakes.sol\":9145:9188  winner == m.creator || winner == m.opponent */\n      jump(tag_197)\n        /* \"Connect4Stakes.sol\":912:12937  contract Connect4Stakes is Ownable, ReentrancyGuard {... */\n    tag_194:\n      mload(0x40)\n      shl(0xe5, 0x461bcd)\n      dup2\n      mstore\n      0x20\n      0x04\n      dup3\n      add\n      mstore\n      0x16\n      0x24\n      dup3\n      add\n      mstore\n      shl(0x51, 0x3932b9b7b63aba34b7b7103bb4b73237bb9037bb32b9)\n      0x44\n      dup3\n      add\n      mstore\n      0x64\n      swap1\n      revert\n    tag_50:\n      jumpi(tag_114, callvalue)\n      jumpi(tag_114, slt(add(not(0x03), calldatasize), 0x00))\n      sload(0x00)\n      mload(0x40)\n      sub(shl(0xa0, 0x01), 0x01)\n      swap1\n      swap2\n      and\n      dup2\n      mstore\n      0x20\n      swap1\n      return\n    tag_48:\n      jumpi(tag_114, callvalue)\n      jumpi(tag_114, slt(add(not(0x03), calldatasize), 0x60))\n      tag_218\n      tag_1\n      jump\t// in\n    tag_218:\n      calldataload(0x24)\n      swap1\n      0xffff\n      dup3\n      and\n      swap1\n      dup2\n      dup4\n      sub\n      tag_114\n      jumpi\n      calldataload(0x44)\n      swap2\n      0xffff\n      dup4\n      and\n      dup1\n      dup5\n      sub\n      tag_114\n      jumpi\n        /* \"@openzeppelin/contracts/access/Ownable.sol\":1500:1562  modifier onlyOwner() {... */\n      tag_223\n      tag_23\n      jump\t// in\n    tag_223:\n        /* \"Connect4Stakes.sol\":4125:4129  1000 */\n      0x03e8\n        /* \"Connect4Stakes.sol\":4111:4129  _maxFeeBps <= 1000 */\n      dup2\n      gt\n        /* \"Connect4Stakes.sol\":912:12937  contract Connect4Stakes is Ownable, ReentrancyGuard {... */\n      tag_224\n      jumpi\n        /* \"Connect4Stakes.sol\":4160:4188  _defaultFeeBps <= _maxFeeBps */\n      dup1\n      dup3\n      gt\n        /* \"Connect4Stakes.sol\":912:12937  contract Connect4Stakes is Ownable, ReentrancyGuard {... */\n      tag_226\n      jumpi\n        /* \"Connect4Stakes.sol\":4327:4377  FeesUpdated(recipient, _defaultFeeBps, _maxFeeBps) */\n      0xf44d9b22cdd87e55b71b9245548303c18d17a3c912a4e0b135ea1330351a1fc1\n        /* \"Connect4Stakes.sol\":912:12937  contract Connect4Stakes is Ownable, ReentrancyGuard {... */\n      swap4\n      0x40\n      swap4\n      0x01\n      dup1\n      0xa0\n      shl\n      sub\n      and\n      swap6\n      dup7\n        /* \"Connect4Stakes.sol\":4216:4240  feeRecipient = recipient */\n      0x02\n        /* \"Connect4Stakes.sol\":912:12937  contract Connect4Stakes is Ownable, ReentrancyGuard {... */\n      sload\n      swap3\n      shl(0xb0, 0xffff)\n      swap1\n      0xb0\n      shl\n      and\n      swap3\n      shl(0xc0, 0xffffffffffffffff)\n      and\n      or\n      swap1\n      shl(0xa0, 0xffff)\n      swap1\n      0xa0\n      shl\n      and\n      or\n      or\n        /* \"Connect4Stakes.sol\":4216:4240  feeRecipient = recipient */\n      0x02\n        /* \"Connect4Stakes.sol\":912:12937  contract Connect4Stakes is Ownable, ReentrancyGuard {... */\n      sstore\n      dup3\n      mload\n      swap2\n      dup3\n      mstore\n      0x20\n      dup3\n      add\n      mstore\n        /* \"Connect4Stakes.sol\":4327:4377  FeesUpdated(recipient, _defaultFeeBps, _maxFeeBps) */\n      log2\n        /* \"Connect4Stakes.sol\":912:12937  contract Connect4Stakes is Ownable, ReentrancyGuard {... */\n      stop\n    tag_226:\n      mload(0x40)\n      shl(0xe5, 0x461bcd)\n      dup2\n      mstore\n      0x20\n      0x04\n      dup3\n      add\n      mstore\n      0x0d\n      0x24\n      dup3\n      add\n      mstore\n      shl(0x9b, 0x0c8caccc2ead8e8407c40dac2f)\n      0x44\n      dup3\n      add\n      mstore\n      0x64\n      swap1\n      revert\n    tag_224:\n      mload(0x40)\n      shl(0xe5, 0x461bcd)\n      dup2\n      mstore\n      0x20\n      0x04\n      dup3\n      add\n      mstore\n      0x08\n      0x24\n      dup3\n      add\n      mstore\n      shl(0xc0, 0x6d6178203e313025)\n      0x44\n      dup3\n      add\n      mstore\n      0x64\n      swap1\n      revert\n    tag_46:\n      jumpi(tag_114, callvalue)\n      jumpi(tag_114, slt(add(not(0x03), calldatasize), 0x00))\n        /* \"@openzeppelin/contracts/access/Ownable.sol\":1500:1562  modifier onlyOwner() {... */\n      tag_232\n      tag_23\n      jump\t// in\n    tag_232:\n        /* \"Connect4Stakes.sol\":912:12937  contract Connect4Stakes is Ownable, ReentrancyGuard {... */\n      0x00\n      dup1\n      sload\n      not(sub(shl(0xa0, 0x01), 0x01))\n      dup2\n      and\n      dup3\n      sstore\n      sub(shl(0xa0, 0x01), 0x01)\n      and\n        /* \"@openzeppelin/contracts/access/Ownable.sol\":3052:3092  OwnershipTransferred(oldOwner, newOwner) */\n      0x8be0079c531659141344cd1fd0a4f28419497f9722a3daafe3b4186f6b6457e0\n        /* \"Connect4Stakes.sol\":912:12937  contract Connect4Stakes is Ownable, ReentrancyGuard {... */\n      dup3\n      dup1\n        /* \"@openzeppelin/contracts/access/Ownable.sol\":3052:3092  OwnershipTransferred(oldOwner, newOwner) */\n      log3\n        /* \"Connect4Stakes.sol\":912:12937  contract Connect4Stakes is Ownable, ReentrancyGuard {... */\n      stop\n    tag_44:\n      jumpi(tag_114, callvalue)\n      jumpi(tag_114, slt(add(not(0x03), calldatasize), 0x20))\n      calldataload(0x04)\n        /* \"@openzeppelin/contracts/security/ReentrancyGuard.sol\":2227:2330  modifier nonReentrant() {... */\n      tag_237\n      tag_24\n      jump\t// in\n    tag_237:\n        /* \"Connect4Stakes.sol\":912:12937  contract Connect4Stakes is Ownable, ReentrancyGuard {... */\n      dup1\n      0x00\n      mstore\n        /* \"Connect4Stakes.sol\":11095:11102  matches */\n      0x05\n        /* \"Connect4Stakes.sol\":912:12937  contract Connect4Stakes is Ownable, ReentrancyGuard {... */\n      0x20\n      mstore\n      keccak256(0x00, 0x40)\n      0x04\n        /* \"Connect4Stakes.sol\":11124:11132  m.status */\n      dup2\n      add\n        /* \"Connect4Stakes.sol\":912:12937  contract Connect4Stakes is Ownable, ReentrancyGuard {... */\n      swap1\n      0xff\n      dup3\n      sload\n      0xb0\n      shr\n      and\n      0x04\n      dup2\n      lt\n      iszero\n      tag_137\n      jumpi\n      0x01\n        /* \"Connect4Stakes.sol\":11116:11167  require(m.status == Status.Started, \"wrong status\") */\n      tag_240\n        /* \"Connect4Stakes.sol\":11124:11150  m.status == Status.Started */\n      swap2\n      eq\n        /* \"Connect4Stakes.sol\":11116:11167  require(m.status == Status.Started, \"wrong status\") */\n      tag_18\n      jump\t// in\n    tag_240:\n        /* \"Connect4Stakes.sol\":912:12937  contract Connect4Stakes is Ownable, ReentrancyGuard {... */\n      0xffffffffff\n        /* \"Connect4Stakes.sol\":11203:11220  m.resolveDeadline */\n      0x03\n      dup3\n      add\n        /* \"Connect4Stakes.sol\":912:12937  contract Connect4Stakes is Ownable, ReentrancyGuard {... */\n      sload\n      0x50\n      shr\n      and\n        /* \"Connect4Stakes.sol\":11185:11200  block.timestamp */\n      timestamp\n        /* \"Connect4Stakes.sol\":11185:11220  block.timestamp > m.resolveDeadline */\n      gt\n        /* \"Connect4Stakes.sol\":912:12937  contract Connect4Stakes is Ownable, ReentrancyGuard {... */\n      iszero\n      tag_241\n      jumpi\n      dup1\n      sload\n      sub(shl(0xa0, 0x01), 0x01)\n      and\n        /* \"Connect4Stakes.sol\":11266:11276  msg.sender */\n      caller\n        /* \"Connect4Stakes.sol\":11266:11289  msg.sender == m.creator */\n      eq\n        /* \"Connect4Stakes.sol\":11266:11317  msg.sender == m.creator || msg.sender == m.opponent */\n      dup1\n      iszero\n      tag_243\n      jumpi\n        /* \"Connect4Stakes.sol\":912:12937  contract Connect4Stakes is Ownable, ReentrancyGuard {... */\n    tag_244:\n        /* \"Connect4Stakes.sol\":11258:11334  require(msg.sender == m.creator || msg.sender == m.opponent, \"not a player\") */\n      tag_245\n      swap1\n      tag_19\n      jump\t// in\n    tag_245:\n        /* \"Connect4Stakes.sol\":912:12937  contract Connect4Stakes is Ownable, ReentrancyGuard {... */\n      0x00\n      dup4\n      dup2\n      mstore\n        /* \"Connect4Stakes.sol\":11353:11374  withdrawnAfterTimeout */\n      0x06\n        /* \"Connect4Stakes.sol\":912:12937  contract Connect4Stakes is Ownable, ReentrancyGuard {... */\n      0x20\n      swap1\n      dup2\n      mstore\n      0x40\n      dup1\n      dup4\n      keccak256\n        /* \"Connect4Stakes.sol\":11266:11276  msg.sender */\n      caller\n        /* \"Connect4Stakes.sol\":912:12937  contract Connect4Stakes is Ownable, ReentrancyGuard {... */\n      dup5\n      mstore\n      swap1\n      swap2\n      mstore\n      swap1\n      keccak256\n      sload\n      0xff\n      and\n      tag_246\n      jumpi\n      0x00\n      dup4\n      dup2\n      mstore\n        /* \"Connect4Stakes.sol\":11353:11374  withdrawnAfterTimeout */\n      0x06\n        /* \"Connect4Stakes.sol\":912:12937  contract Connect4Stakes is Ownable, ReentrancyGuard {... */\n      0x20\n      swap1\n      dup2\n      mstore\n      0x40\n      dup1\n      dup4\n      keccak256\n        /* \"Connect4Stakes.sol\":11266:11276  msg.sender */\n      caller\n        /* \"Connect4Stakes.sol\":912:12937  contract Connect4Stakes is Ownable, ReentrancyGuard {... */\n      dup1\n      dup6\n      mstore\n      swap3\n      mstore\n      swap1\n      swap2\n      keccak256\n      dup1\n      sload\n      not(0xff)\n      and\n      0x01\n      or\n      swap1\n      sstore\n        /* \"Connect4Stakes.sol\":11484:11491  m.token */\n      0x02\n      dup3\n      add\n        /* \"Connect4Stakes.sol\":912:12937  contract Connect4Stakes is Ownable, ReentrancyGuard {... */\n      sload\n        /* \"Connect4Stakes.sol\":11477:11526  IERC20(m.token).safeTransfer(msg.sender, m.stake) */\n      tag_248\n      swap2\n        /* \"Connect4Stakes.sol\":912:12937  contract Connect4Stakes is Ownable, ReentrancyGuard {... */\n      0xa0\n      dup3\n      swap1\n      shr\n      swap2\n      sub(shl(0xa0, 0x01), 0x01)\n      and\n        /* \"Connect4Stakes.sol\":11477:11526  IERC20(m.token).safeTransfer(msg.sender, m.stake) */\n      tag_27\n      jump\t// in\n    tag_248:\n        /* \"Connect4Stakes.sol\":912:12937  contract Connect4Stakes is Ownable, ReentrancyGuard {... */\n      0x00\n      dup4\n      dup2\n      mstore\n        /* \"Connect4Stakes.sol\":11353:11374  withdrawnAfterTimeout */\n      0x06\n        /* \"Connect4Stakes.sol\":912:12937  contract Connect4Stakes is Ownable, ReentrancyGuard {... */\n      0x20\n      swap1\n      dup2\n      mstore\n      0x40\n      dup1\n      dup4\n      keccak256\n      dup5\n      sload\n      sub(shl(0xa0, 0x01), 0x01)\n      and\n      dup5\n      mstore\n      swap1\n      swap2\n      mstore\n      swap1\n      keccak256\n      sload\n      0xff\n      and\n      swap1\n      dup2\n        /* \"Connect4Stakes.sol\":11541:11618  withdrawnAfterTimeout[id][m.creator] && withdrawnAfterTimeout[id][m.opponent] */\n      tag_249\n      jumpi\n        /* \"Connect4Stakes.sol\":912:12937  contract Connect4Stakes is Ownable, ReentrancyGuard {... */\n    tag_250:\n        /* \"Connect4Stakes.sol\":11537:11707  if (withdrawnAfterTimeout[id][m.creator] && withdrawnAfterTimeout[id][m.opponent]) {... */\n      pop\n      tag_251\n      jumpi\n        /* \"Connect4Stakes.sol\":912:12937  contract Connect4Stakes is Ownable, ReentrancyGuard {... */\n      0x01\n      dup1\n      sstore\n      stop\n        /* \"Connect4Stakes.sol\":11537:11707  if (withdrawnAfterTimeout[id][m.creator] && withdrawnAfterTimeout[id][m.opponent]) {... */\n    tag_251:\n        /* \"Connect4Stakes.sol\":912:12937  contract Connect4Stakes is Ownable, ReentrancyGuard {... */\n      dup1\n      sload\n      not(shl(0xb0, 0xff))\n      and\n      shl(0xb0, 0x03)\n      or\n      swap1\n      sstore\n        /* \"Connect4Stakes.sol\":11679:11696  MatchRefunded(id) */\n      0xd032e44272ccb930cd0264251a97b70771f63de576a3fbeff5f2afe58f9c91be\n      0x00\n      dup1\n      log2\n        /* \"Connect4Stakes.sol\":11537:11707  if (withdrawnAfterTimeout[id][m.creator] && withdrawnAfterTimeout[id][m.opponent]) {... */\n      dup1\n      dup1\n      jump(tag_147)\n        /* \"Connect4Stakes.sol\":11541:11618  withdrawnAfterTimeout[id][m.creator] && withdrawnAfterTimeout[id][m.opponent] */\n    tag_249:\n        /* \"Connect4Stakes.sol\":912:12937  contract Connect4Stakes is Ownable, ReentrancyGuard {... */\n      0x00\n      dup5\n      dup2\n      mstore\n        /* \"Connect4Stakes.sol\":11353:11374  withdrawnAfterTimeout */\n      0x06\n        /* \"Connect4Stakes.sol\":912:12937  contract Connect4Stakes is Ownable, ReentrancyGuard {... */\n      0x20\n      swap1\n      dup2\n      mstore\n      0x40\n      dup1\n      dup4\n      keccak256\n      0x01\n        /* \"Connect4Stakes.sol\":11607:11617  m.opponent */\n      swap1\n      swap5\n      add\n        /* \"Connect4Stakes.sol\":912:12937  contract Connect4Stakes is Ownable, ReentrancyGuard {... */\n      sload\n      sub(shl(0xa0, 0x01), 0x01)\n      and\n      dup4\n      mstore\n      swap3\n      swap1\n      mstore\n      keccak256\n      sload\n      0xff\n      and\n      swap1\n      pop\n        /* \"Connect4Stakes.sol\":11541:11618  withdrawnAfterTimeout[id][m.creator] && withdrawnAfterTimeout[id][m.opponent] */\n      dup4\n      jump(tag_250)\n        /* \"Connect4Stakes.sol\":912:12937  contract Connect4Stakes is Ownable, ReentrancyGuard {... */\n    tag_246:\n      mload(0x40)\n      shl(0xe5, 0x461bcd)\n      dup2\n      mstore\n      0x20\n      0x04\n      dup3\n      add\n      mstore\n      0x11\n      0x24\n      dup3\n      add\n      mstore\n      shl(0x79, 0x30b63932b0b23c903bb4ba34323930bbb7)\n      0x44\n      dup3\n      add\n      mstore\n      0x64\n      swap1\n      revert\n        /* \"Connect4Stakes.sol\":11266:11317  msg.sender == m.creator || msg.sender == m.opponent */\n    tag_243:\n      pop\n        /* \"Connect4Stakes.sol\":912:12937  contract Connect4Stakes is Ownable, ReentrancyGuard {... */\n      0x01\n        /* \"Connect4Stakes.sol\":11307:11317  m.opponent */\n      dup2\n      add\n        /* \"Connect4Stakes.sol\":912:12937  contract Connect4Stakes is Ownable, ReentrancyGuard {... */\n      sload\n      sub(shl(0xa0, 0x01), 0x01)\n      and\n        /* \"Connect4Stakes.sol\":11266:11276  msg.sender */\n      caller\n        /* \"Connect4Stakes.sol\":11293:11317  msg.sender == m.opponent */\n      eq\n        /* \"Connect4Stakes.sol\":11266:11317  msg.sender == m.creator || msg.sender == m.opponent */\n      jump(tag_244)\n        /* \"Connect4Stakes.sol\":912:12937  contract Connect4Stakes is Ownable, ReentrancyGuard {... */\n    tag_241:\n      mload(0x40)\n      shl(0xe5, 0x461bcd)\n      dup2\n      mstore\n      0x20\n      0x04\n      dup3\n      add\n      mstore\n      0x17\n      0x24\n      dup3\n      add\n      mstore\n      0x7265736f6c76652077696e646f77206e6f74206f766572000000000000000000\n      0x44\n      dup3\n      add\n      mstore\n      0x64\n      swap1\n      revert\n    tag_42:\n      jumpi(tag_114, callvalue)\n      jumpi(tag_114, slt(add(not(0x03), calldatasize), 0x40))\n      tag_257\n      tag_4\n      jump\t// in\n    tag_257:\n      mstore(0x00, calldataload(0x04))\n        /* \"Connect4Stakes.sol\":2668:2741  mapping(uint256 => mapping(address => bool)) public withdrawnAfterTimeout */\n      0x06\n        /* \"Connect4Stakes.sol\":912:12937  contract Connect4Stakes is Ownable, ReentrancyGuard {... */\n      0x20\n      mstore\n      keccak256(0x00, 0x40)\n        /* \"Connect4Stakes.sol\":2668:2741  mapping(uint256 => mapping(address => bool)) public withdrawnAfterTimeout */\n      swap1\n        /* \"Connect4Stakes.sol\":912:12937  contract Connect4Stakes is Ownable, ReentrancyGuard {... */\n      0x01\n      dup1\n      0xa0\n      shl\n      sub\n      and\n      0x00\n      mstore\n      0x20\n      mstore\n      0x20\n      and(sload(keccak256(0x00, 0x40)), 0xff)\n      mload(0x40)\n      swap1\n      iszero\n      iszero\n      dup2\n      mstore\n      return\n    tag_40:\n      jumpi(tag_114, callvalue)\n      jumpi(tag_114, slt(add(not(0x03), calldatasize), 0x20))\n      0x04\n      dup1\n      calldataload\n      0x00\n      swap1\n      dup2\n      mstore\n        /* \"Connect4Stakes.sol\":2622:2662  mapping(uint256 => Match) public matches */\n      0x05\n        /* \"Connect4Stakes.sol\":912:12937  contract Connect4Stakes is Ownable, ReentrancyGuard {... */\n      0x20\n      dup2\n      dup2\n      mstore\n      0x40\n      swap3\n      dup4\n      swap1\n      keccak256\n      dup1\n      sload\n      0x01\n        /* \"Connect4Stakes.sol\":2622:2662  mapping(uint256 => Match) public matches */\n      dup3\n      add\n        /* \"Connect4Stakes.sol\":912:12937  contract Connect4Stakes is Ownable, ReentrancyGuard {... */\n      sload\n        /* \"Connect4Stakes.sol\":2622:2662  mapping(uint256 => Match) public matches */\n      0x02\n      dup4\n      add\n        /* \"Connect4Stakes.sol\":912:12937  contract Connect4Stakes is Ownable, ReentrancyGuard {... */\n      sload\n        /* \"Connect4Stakes.sol\":2622:2662  mapping(uint256 => Match) public matches */\n      0x03\n      dup5\n      add\n        /* \"Connect4Stakes.sol\":912:12937  contract Connect4Stakes is Ownable, ReentrancyGuard {... */\n      sload\n        /* \"Connect4Stakes.sol\":2622:2662  mapping(uint256 => Match) public matches */\n      swap8\n      dup5\n      add\n        /* \"Connect4Stakes.sol\":912:12937  contract Connect4Stakes is Ownable, ReentrancyGuard {... */\n      sload\n        /* \"Connect4Stakes.sol\":2622:2662  mapping(uint256 => Match) public matches */\n      swap6\n      dup5\n      add\n        /* \"Connect4Stakes.sol\":912:12937  contract Connect4Stakes is Ownable, ReentrancyGuard {... */\n      sload\n        /* \"Connect4Stakes.sol\":2622:2662  mapping(uint256 => Match) public matches */\n      0x06\n      dup6\n      add\n        /* \"Connect4Stakes.sol\":912:12937  contract Connect4Stakes is Ownable, ReentrancyGuard {... */\n      sload\n        /* \"Connect4Stakes.sol\":2622:2662  mapping(uint256 => Match) public matches */\n      0x07\n      swap1\n      swap6\n      add\n        /* \"Connect4Stakes.sol\":912:12937  contract Connect4Stakes is Ownable, ReentrancyGuard {... */\n      sload\n      dup9\n      mload\n      sub(shl(0xa0, 0x01), 0x01)\n      swap6\n      dup7\n      and\n      dup2\n      mstore\n      swap4\n      dup6\n      and\n      swap7\n      dup5\n      add\n      swap7\n      swap1\n      swap7\n      mstore\n      dup2\n      dup5\n      and\n      swap8\n      dup4\n      add\n      swap8\n      swap1\n      swap8\n      mstore\n      0xa0\n      swap1\n      dup2\n      shr\n      0x60\n      dup4\n      add\n      mstore\n      0xffffffffff\n      dup1\n      dup10\n      and\n      0x80\n      dup5\n      add\n      mstore\n      0x28\n      dup10\n      swap1\n      shr\n      dup2\n      and\n      dup4\n      dup4\n      add\n      mstore\n      0x50\n      dup10\n      swap1\n      shr\n      and\n      0xc0\n      dup4\n      add\n      mstore\n      0x78\n      swap8\n      swap1\n      swap8\n      shr\n      0xffffffff\n      and\n      0xe0\n      dup3\n      add\n      mstore\n      dup5\n      dup3\n      and\n      0x0100\n      dup3\n      add\n      mstore\n      swap6\n      dup5\n      swap1\n      shr\n      0xffff\n      and\n      0x0120\n      dup8\n      add\n      mstore\n      0x01c0\n      swap6\n      swap5\n      swap3\n      dup2\n      and\n      swap4\n      swap2\n      dup2\n      and\n      swap3\n      and\n      swap1\n      tag_262\n      swap1\n      0x0140\n      dup7\n      add\n      swap1\n      0xb0\n      shr\n      0xff\n      and\n      tag_5\n      jump\t// in\n    tag_262:\n      0x0160\n      dup5\n      add\n      mstore\n      0x0180\n      dup4\n      add\n      mstore\n      0x01a0\n      dup3\n      add\n      mstore\n      return\n    tag_38:\n      jumpi(tag_114, callvalue)\n      jumpi(tag_114, slt(add(not(0x03), calldatasize), 0x00))\n        /* \"Connect4Stakes.sol\":2312:2339  address public feeRecipient */\n      0x02\n        /* \"Connect4Stakes.sol\":912:12937  contract Connect4Stakes is Ownable, ReentrancyGuard {... */\n      sload\n      mload(0x40)\n      sub(shl(0xa0, 0x01), 0x01)\n      swap1\n      swap2\n      and\n      dup2\n      mstore\n      0x20\n      swap1\n      return\n    tag_36:\n      jumpi(tag_114, callvalue)\n      jumpi(tag_114, slt(add(not(0x03), calldatasize), 0xc0))\n      tag_271\n      tag_1\n      jump\t// in\n    tag_271:\n      tag_272\n      tag_6\n      jump\t// in\n    tag_272:\n      tag_273\n      tag_2\n      jump\t// in\n    tag_273:\n      tag_274\n      tag_7\n      jump\t// in\n    tag_274:\n      swap2\n      tag_275\n      tag_8\n      jump\t// in\n    tag_275:\n      swap1\n      tag_276\n      tag_3\n      jump\t// in\n    tag_276:\n        /* \"@openzeppelin/contracts/security/ReentrancyGuard.sol\":2227:2330  modifier nonReentrant() {... */\n      swap1\n      tag_277\n      tag_24\n      jump\t// in\n    tag_277:\n        /* \"Connect4Stakes.sol\":5327:5343  resolveWindowSec */\n      tag_278\n      dup4\n      dup7\n      dup4\n      tag_25\n      jump\t// in\n    tag_278:\n        /* \"Connect4Stakes.sol\":912:12937  contract Connect4Stakes is Ownable, ReentrancyGuard {... */\n      sload(0x04)\n        /* \"Connect4Stakes.sol\":5360:5373  nextMatchId++ */\n      swap6\n      dup7\n      swap4\n      tag_279\n      dup6\n      tag_11\n      jump\t// in\n    tag_279:\n        /* \"Connect4Stakes.sol\":912:12937  contract Connect4Stakes is Ownable, ReentrancyGuard {... */\n      0x04\n      sstore\n      0x00\n      dup6\n      dup2\n      mstore\n        /* \"Connect4Stakes.sol\":5401:5408  matches */\n      0x05\n        /* \"Connect4Stakes.sol\":912:12937  contract Connect4Stakes is Ownable, ReentrancyGuard {... */\n      0x20\n      mstore\n      0x40\n      swap1\n      keccak256\n      dup1\n      sload\n      not(sub(shl(0xa0, 0x01), 0x01))\n      swap1\n      dup2\n      and\n        /* \"Connect4Stakes.sol\":5434:5444  msg.sender */\n      caller\n        /* \"Connect4Stakes.sol\":912:12937  contract Connect4Stakes is Ownable, ReentrancyGuard {... */\n      or\n      dup3\n      sstore\n      0x01\n        /* \"Connect4Stakes.sol\":5454:5464  m.opponent */\n      dup3\n      add\n        /* \"Connect4Stakes.sol\":912:12937  contract Connect4Stakes is Ownable, ReentrancyGuard {... */\n      dup1\n      sload\n      dup3\n      and\n      sub(shl(0xa0, 0x01), 0x01)\n      dup11\n      dup2\n      and\n      swap2\n      swap1\n      swap2\n      or\n      swap1\n      swap2\n      sstore\n      0xa0\n      dup7\n      swap1\n      shl\n      swap1\n      swap2\n      and\n      swap1\n      dup5\n      and\n      or\n        /* \"Connect4Stakes.sol\":5485:5492  m.token */\n      0x02\n      dup3\n      add\n        /* \"Connect4Stakes.sol\":912:12937  contract Connect4Stakes is Ownable, ReentrancyGuard {... */\n      sstore\n      swap1\n        /* \"Connect4Stakes.sol\":5535:5546  m.createdAt */\n      0x03\n      dup3\n      add\n        /* \"Connect4Stakes.sol\":5556:5571  block.timestamp */\n      swap8\n      timestamp\n        /* \"Connect4Stakes.sol\":912:12937  contract Connect4Stakes is Ownable, ReentrancyGuard {... */\n      0xffffffffff\n      and\n      0xffffffffff\n      and\n      not(0xffffffffff)\n      dup11\n      sload\n      and\n      or\n      dup10\n      sstore\n      0xffffffff\n      and\n        /* \"Connect4Stakes.sol\":5556:5571  block.timestamp */\n      timestamp\n        /* \"Connect4Stakes.sol\":5607:5641  block.timestamp + startDeadlineSec */\n      swap1\n      tag_281\n      swap2\n      tag_13\n      jump\t// in\n    tag_281:\n        /* \"Connect4Stakes.sol\":912:12937  contract Connect4Stakes is Ownable, ReentrancyGuard {... */\n      dup9\n      sload\n      not(0xffffffffff0000000000)\n      and\n      0x28\n      swap2\n      swap1\n      swap2\n      shl\n      0xffffffffff0000000000\n      and\n      or\n      dup9\n      sstore\n      dup8\n      sload\n      not(shl(0x78, 0xffffffff))\n      and\n      0x78\n      swap2\n      swap1\n      swap2\n      shl\n      shl(0x78, 0xffffffff)\n      and\n      or\n      dup8\n      sstore\n      0x04\n        /* \"Connect4Stakes.sol\":5696:5706  m.resolver */\n      add\n        /* \"Connect4Stakes.sol\":912:12937  contract Connect4Stakes is Ownable, ReentrancyGuard {... */\n      dup1\n      sload\n      sub(shl(0xa0, 0x01), 0x01)\n      dup6\n      and\n      not(sub(shl(0xa0, 0xff0001), 0x01))\n      dup3\n      and\n      dup2\n      or\n      dup4\n      sstore\n        /* \"Connect4Stakes.sol\":5485:5492  m.token */\n      0x02\n        /* \"Connect4Stakes.sol\":912:12937  contract Connect4Stakes is Ownable, ReentrancyGuard {... */\n      sload\n      shl(0xa0, 0xffff)\n      and\n      not(sub(shl(0xb8, 0x01), 0x01))\n      swap1\n      swap3\n      and\n      or\n      or\n      swap1\n      sstore\n      sub(shl(0xa0, 0x01), 0x01)\n      and\n      swap5\n        /* \"Connect4Stakes.sol\":5827:5891  IERC20(token).safeTransferFrom(msg.sender, address(this), stake) */\n      tag_128\n      sub(shl(0x60, 0x01), 0x01)\n        /* \"Connect4Stakes.sol\":912:12937  contract Connect4Stakes is Ownable, ReentrancyGuard {... */\n      dup4\n      and\n        /* \"Connect4Stakes.sol\":5878:5882  this */\n      address\n        /* \"Connect4Stakes.sol\":5434:5444  msg.sender */\n      caller\n        /* \"Connect4Stakes.sol\":912:12937  contract Connect4Stakes is Ownable, ReentrancyGuard {... */\n      dup10\n        /* \"Connect4Stakes.sol\":5827:5891  IERC20(token).safeTransferFrom(msg.sender, address(this), stake) */\n      tag_26\n      jump\t// in\n        /* \"Connect4Stakes.sol\":912:12937  contract Connect4Stakes is Ownable, ReentrancyGuard {... */\n    tag_34:\n      jumpi(tag_114, callvalue)\n      jumpi(tag_114, slt(add(not(0x03), calldatasize), 0x20))\n      0x00\n      0x01a0\n      mload(0x40)\n      tag_291\n      dup2\n      tag_9\n      jump\t// in\n    tag_291:\n      dup3\n      dup2\n      mstore\n      dup3\n      0x20\n      dup3\n      add\n      mstore\n      dup3\n      0x40\n      dup3\n      add\n      mstore\n      dup3\n      0x60\n      dup3\n      add\n      mstore\n      dup3\n      0x80\n      dup3\n      add\n      mstore\n      dup3\n      0xa0\n      dup3\n      add\n      mstore\n      dup3\n      0xc0\n      dup3\n      add\n      mstore\n      dup3\n      0xe0\n      dup3\n      add\n      mstore\n      dup3\n      0x0100\n      dup3\n      add\n      mstore\n      dup3\n      0x0120\n      dup3\n      add\n      mstore\n      dup3\n      0x0140\n      dup3\n      add\n      mstore\n      dup3\n      0x0160\n      dup3\n      add\n      mstore\n      dup3\n      0x0180\n      dup3\n      add\n      mstore\n      add\n      mstore\n      mstore(0x00, calldataload(0x04))\n        /* \"Connect4Stakes.sol\":11868:11875  matches */\n      0x05\n        /* \"Connect4Stakes.sol\":912:12937  contract Connect4Stakes is Ownable, ReentrancyGuard {... */\n      0x20\n      mstore\n      keccak256(0x00, 0x40)\n      mload(0x40)\n      tag_292\n      dup2\n      tag_9\n      jump\t// in\n    tag_292:\n      0x01\n      dup1\n      0xa0\n      shl\n      sub\n      dup3\n      sload\n      and\n      dup2\n      mstore\n      0x01\n      dup1\n      0xa0\n      shl\n      sub\n      0x01\n      dup4\n      add\n      sload\n      and\n      swap2\n      0x20\n      dup3\n      add\n      swap3\n      dup4\n      mstore\n      0x02\n      dup2\n      add\n      sload\n      0x40\n      dup4\n      add\n      swap1\n      0x01\n      dup1\n      0xa0\n      shl\n      sub\n      dup2\n      and\n      dup3\n      mstore\n      0x60\n      dup5\n      add\n      swap1\n      0xa0\n      shr\n      dup2\n      mstore\n      0x03\n      dup4\n      add\n      sload\n      0x80\n      dup6\n      add\n      0xffffffffff\n      dup3\n      and\n      dup2\n      mstore\n      0xa0\n      dup7\n      add\n      swap2\n      0xffffffffff\n      dup2\n      0x28\n      shr\n      and\n      dup4\n      mstore\n      0xc0\n      dup8\n      add\n      0xffffffffff\n      dup3\n      0x50\n      shr\n      and\n      dup2\n      mstore\n      0xffffffff\n      0xe0\n      dup10\n      add\n      swap3\n      0x78\n      shr\n      and\n      dup3\n      mstore\n      0x04\n      dup8\n      add\n      sload\n      swap4\n      0x0100\n      dup10\n      add\n      swap4\n      0x01\n      dup1\n      0xa0\n      shl\n      sub\n      dup7\n      and\n      dup6\n      mstore\n      0xff\n      0x0120\n      dup12\n      add\n      swap7\n      0xffff\n      dup2\n      0xa0\n      shr\n      and\n      dup9\n      mstore\n      0xb0\n      shr\n      and\n      swap7\n      0x0140\n      dup12\n      add\n      swap8\n      0x04\n      dup2\n      lt\n      iszero\n      tag_137\n      jumpi\n      dup9\n      mstore\n        /* \"Connect4Stakes.sol\":11868:11875  matches */\n      0x05\n        /* \"Connect4Stakes.sol\":912:12937  contract Connect4Stakes is Ownable, ReentrancyGuard {... */\n      dup11\n      add\n      sload\n      sub(shl(0xa0, 0x01), 0x01)\n      swap1\n      dup2\n      and\n      0x0160\n      dup14\n      add\n      swap1\n      dup2\n      mstore\n      0x06\n      dup13\n      add\n      sload\n      dup3\n      and\n      0x0180\n      dup15\n      add\n      swap1\n      dup2\n      mstore\n      0x07\n      swap1\n      swap13\n      add\n      sload\n      dup3\n      and\n      0x01a0\n      dup15\n      add\n      swap1\n      dup2\n      mstore\n      0x40\n      dup1\n      mload\n      swap15\n      mload\n      dup5\n      and\n      dup16\n      mstore\n      swap15\n      mload\n      dup4\n      and\n      0x20\n      dup16\n      add\n      mstore\n      swap11\n      mload\n      dup3\n      and\n      swap14\n      dup14\n      add\n      swap14\n      swap1\n      swap14\n      mstore\n      swap1\n      mload\n      sub(shl(0x60, 0x01), 0x01)\n      and\n      0x60\n      dup13\n      add\n      mstore\n      swap1\n      mload\n      0xffffffffff\n      swap1\n      dup2\n      and\n      0x80\n      dup13\n      add\n      mstore\n      swap2\n      mload\n      dup3\n      and\n      0xa0\n      dup12\n      add\n      mstore\n      swap2\n      mload\n      and\n      0xc0\n      dup10\n      add\n      mstore\n      swap1\n      mload\n      0xffffffff\n      and\n      0xe0\n      dup9\n      add\n      mstore\n      swap1\n      mload\n      and\n      0x0100\n      dup7\n      add\n      mstore\n      mload\n      0xffff\n      and\n      0x0120\n      dup6\n      add\n      mstore\n      mload\n      swap3\n      swap4\n      swap1\n      swap3\n      tag_295\n      swap1\n      0x0140\n      dup7\n      add\n      swap1\n      tag_5\n      jump\t// in\n    tag_295:\n      mload\n      sub(shl(0xa0, 0x01), 0x01)\n      swap1\n      dup2\n      and\n      0x0160\n      dup6\n      add\n      mstore\n      swap1\n      mload\n      dup2\n      and\n      0x0180\n      dup5\n      add\n      mstore\n      swap1\n      mload\n      and\n      0x01a0\n      dup3\n      add\n      mstore\n      0x01c0\n      swap1\n      return\n    tag_32:\n      jumpi(tag_114, callvalue)\n      jumpi(tag_114, slt(add(not(0x03), calldatasize), 0x40))\n      tag_300\n      tag_1\n      jump\t// in\n    tag_300:\n      calldataload(0x24)\n      swap1\n      dup2\n      iszero\n      iszero\n      dup1\n      swap3\n      sub\n      tag_114\n      jumpi\n      0x20\n        /* \"Connect4Stakes.sol\":3954:3983  ResolverSet(account, allowed) */\n      0x82b5558fdeb37cb74b6e8eb4a87486d06c7ef8951416a5dc76c25f0bd9c3bb43\n        /* \"@openzeppelin/contracts/access/Ownable.sol\":1500:1562  modifier onlyOwner() {... */\n      swap2\n      tag_303\n      tag_23\n      jump\t// in\n    tag_303:\n        /* \"Connect4Stakes.sol\":912:12937  contract Connect4Stakes is Ownable, ReentrancyGuard {... */\n      0x01\n      dup1\n      0xa0\n      shl\n      sub\n      and\n      swap3\n      dup4\n      0x00\n      mstore\n        /* \"Connect4Stakes.sol\":3910:3920  isResolver */\n      0x03\n        /* \"Connect4Stakes.sol\":912:12937  contract Connect4Stakes is Ownable, ReentrancyGuard {... */\n      dup3\n      mstore\n      keccak256(0x00, 0x40)\n      not(0xff)\n      dup2\n      sload\n      and\n      0xff\n      dup4\n      and\n      or\n      swap1\n      sstore\n      mload(0x40)\n      swap1\n      dup2\n      mstore\n        /* \"Connect4Stakes.sol\":3954:3983  ResolverSet(account, allowed) */\n      log2\n        /* \"Connect4Stakes.sol\":912:12937  contract Connect4Stakes is Ownable, ReentrancyGuard {... */\n      stop\n    tag_1:\n      calldataload(0x04)\n      swap1\n      sub(shl(0xa0, 0x01), 0x01)\n      dup3\n      and\n      dup3\n      sub\n      tag_114\n      jumpi\n      jump\t// out\n    tag_2:\n      calldataload(0x44)\n      swap1\n      sub(shl(0xa0, 0x01), 0x01)\n      dup3\n      and\n      dup3\n      sub\n      tag_114\n      jumpi\n      jump\t// out\n    tag_3:\n      calldataload(0xa4)\n      swap1\n      sub(shl(0xa0, 0x01), 0x01)\n      dup3\n      and\n      dup3\n      sub\n      tag_114\n      jumpi\n      jump\t// out\n    tag_4:\n      calldataload(0x24)\n      swap1\n      sub(shl(0xa0, 0x01), 0x01)\n      dup3\n      and\n      dup3\n      sub\n      tag_114\n      jumpi\n      jump\t// out\n    tag_5:\n      swap1\n      0x04\n      dup3\n      lt\n      iszero\n      tag_137\n      jumpi\n      mstore\n      jump\t// out\n    tag_6:\n      calldataload(0x24)\n      swap1\n      sub(shl(0x60, 0x01), 0x01)\n      dup3\n      and\n      dup3\n      sub\n      tag_114\n      jumpi\n      jump\t// out\n    tag_7:\n      calldataload(0x64)\n      swap1\n      0xffffffff\n      dup3\n      and\n      dup3\n      sub\n      tag_114\n      jumpi\n      jump\t// out\n    tag_8:\n      calldataload(0x84)\n      swap1\n      0xffffffff\n      dup3\n      and\n      dup3\n      sub\n      tag_114\n      jumpi\n      jump\t// out\n    tag_9:\n      0x01c0\n      dup2\n      add\n      swap1\n      dup2\n      lt\n      0xffffffffffffffff\n      dup3\n      gt\n      or\n      tag_320\n      jumpi\n      0x40\n      mstore\n      jump\t// out\n    tag_320:\n      mstore(0x00, shl(0xe0, 0x4e487b71))\n      mstore(0x04, 0x41)\n      revert(0x00, 0x24)\n    tag_10:\n      swap1\n      0x1f\n      dup1\n      not\n      swap2\n      add\n      and\n      dup2\n      add\n      swap1\n      dup2\n      lt\n      0xffffffffffffffff\n      dup3\n      gt\n      or\n      tag_320\n      jumpi\n      0x40\n      mstore\n      jump\t// out\n    tag_11:\n      not(0x00)\n      dup2\n      eq\n      tag_324\n      jumpi\n      0x01\n      add\n      swap1\n      jump\t// out\n    tag_324:\n      mstore(0x00, shl(0xe0, 0x4e487b71))\n      mstore(0x04, 0x11)\n      revert(0x00, 0x24)\n    tag_13:\n      swap2\n      swap1\n      dup3\n      add\n      dup1\n      swap3\n      gt\n      tag_324\n      jumpi\n      jump\t// out\n    tag_18:\n      iszero\n      tag_328\n      jumpi\n      jump\t// out\n    tag_328:\n      mload(0x40)\n      shl(0xe5, 0x461bcd)\n      dup2\n      mstore\n      0x20\n      0x04\n      dup3\n      add\n      mstore\n      0x0c\n      0x24\n      dup3\n      add\n      mstore\n      shl(0xa0, 0x77726f6e6720737461747573)\n      0x44\n      dup3\n      add\n      mstore\n      0x64\n      swap1\n      revert\n    tag_19:\n      iszero\n      tag_330\n      jumpi\n      jump\t// out\n    tag_330:\n      mload(0x40)\n      shl(0xe5, 0x461bcd)\n      dup2\n      mstore\n      0x20\n      0x04\n      dup3\n      add\n      mstore\n      0x0c\n      0x24\n      dup3\n      add\n      mstore\n      shl(0xa1, 0x3737ba103090383630bcb2b9)\n      0x44\n      dup3\n      add\n      mstore\n      0x64\n      swap1\n      revert\n    tag_20:\n      iszero\n      tag_332\n      jumpi\n      jump\t// out\n    tag_332:\n      mload(0x40)\n      shl(0xe5, 0x461bcd)\n      dup2\n      mstore\n      0x20\n      0x04\n      dup3\n      add\n      mstore\n      0x0b\n      0x24\n      dup3\n      add\n      mstore\n      shl(0xaa, 0x1b9bdd081cdd185c9d1959)\n      0x44\n      dup3\n      add\n      mstore\n      0x64\n      swap1\n      revert\n    tag_21:\n      iszero\n      tag_334\n      jumpi\n      jump\t// out\n    tag_334:\n      mload(0x40)\n      shl(0xe5, 0x461bcd)\n      dup2\n      mstore\n      0x20\n      0x04\n      dup3\n      add\n      mstore\n      0x0e\n      0x24\n      dup3\n      add\n      mstore\n      shl(0x91, 0x34b73b30b634b2103bb4b73732b9)\n      0x44\n      dup3\n      add\n      mstore\n      0x64\n      swap1\n      revert\n        /* \"Connect4Stakes.sol\":11892:12189  function pot(uint256 id) public view returns (uint256) {... */\n    tag_22:\n        /* \"Connect4Stakes.sol\":912:12937  contract Connect4Stakes is Ownable, ReentrancyGuard {... */\n      0x00\n      mstore\n        /* \"Connect4Stakes.sol\":11975:11982  matches */\n      0x05\n        /* \"Connect4Stakes.sol\":912:12937  contract Connect4Stakes is Ownable, ReentrancyGuard {... */\n      0x20\n      mstore\n      keccak256(0x00, 0x40)\n      0xff\n        /* \"Connect4Stakes.sol\":12000:12008  m.status */\n      0x04\n      dup3\n      add\n        /* \"Connect4Stakes.sol\":912:12937  contract Connect4Stakes is Ownable, ReentrancyGuard {... */\n      sload\n      0xb0\n      shr\n      and\n        /* \"Connect4Stakes.sol\":12000:12008  m.status */\n      0x04\n        /* \"Connect4Stakes.sol\":912:12937  contract Connect4Stakes is Ownable, ReentrancyGuard {... */\n      dup2\n      lt\n      iszero\n      tag_137\n      jumpi\n        /* \"Connect4Stakes.sol\":12000:12026  m.status == Status.Created */\n      dup1\n      iszero\n        /* \"Connect4Stakes.sol\":11996:12051  if (m.status == Status.Created) return uint256(m.stake) */\n      tag_338\n      jumpi\n        /* \"Connect4Stakes.sol\":912:12937  contract Connect4Stakes is Ownable, ReentrancyGuard {... */\n      0x01\n        /* \"Connect4Stakes.sol\":12093:12119  m.status == Status.Started */\n      eq\n        /* \"Connect4Stakes.sol\":12089:12148  if (m.status == Status.Started) return uint256(m.stake) * 2 */\n      tag_340\n      jumpi\n        /* \"Connect4Stakes.sol\":12174:12182  return 0 */\n      pop\n        /* \"Connect4Stakes.sol\":912:12937  contract Connect4Stakes is Ownable, ReentrancyGuard {... */\n      0x00\n        /* \"Connect4Stakes.sol\":11892:12189  function pot(uint256 id) public view returns (uint256) {... */\n      swap1\n      jump\t// out\n        /* \"Connect4Stakes.sol\":12089:12148  if (m.status == Status.Started) return uint256(m.stake) * 2 */\n    tag_340:\n        /* \"Connect4Stakes.sol\":12136:12143  m.stake */\n      0x02\n      add\n        /* \"Connect4Stakes.sol\":912:12937  contract Connect4Stakes is Ownable, ReentrancyGuard {... */\n      sload\n      0x01fffffffffffffffffffffffe\n      dup2\n      0xa0\n      shr\n      swap2\n      0x9f\n      shr\n      and\n      swap1\n      dup1\n      dup3\n      div\n        /* \"Connect4Stakes.sol\":12136:12143  m.stake */\n      0x02\n        /* \"Connect4Stakes.sol\":912:12937  contract Connect4Stakes is Ownable, ReentrancyGuard {... */\n      eq\n      swap1\n      iszero\n      or\n      iszero\n      tag_324\n      jumpi\n        /* \"Connect4Stakes.sol\":12121:12148  return uint256(m.stake) * 2 */\n      swap1\n      jump\t// out\n        /* \"Connect4Stakes.sol\":11996:12051  if (m.status == Status.Created) return uint256(m.stake) */\n    tag_338:\n        /* \"Connect4Stakes.sol\":12043:12050  m.stake */\n      pop\n      0x02\n      add\n        /* \"Connect4Stakes.sol\":912:12937  contract Connect4Stakes is Ownable, ReentrancyGuard {... */\n      sload\n      0xa0\n      shr\n        /* \"Connect4Stakes.sol\":12028:12051  return uint256(m.stake) */\n      swap1\n      jump\t// out\n        /* \"@openzeppelin/contracts/access/Ownable.sol\":1796:1958  function _checkOwner() internal view virtual {... */\n    tag_23:\n        /* \"@openzeppelin/contracts/access/Ownable.sol\":1710:1716  _owner */\n      0x00\n        /* \"Connect4Stakes.sol\":912:12937  contract Connect4Stakes is Ownable, ReentrancyGuard {... */\n      sload\n      sub(shl(0xa0, 0x01), 0x01)\n      and\n        /* \"@openzeppelin/contracts/utils/Context.sol\":735:745  msg.sender */\n      caller\n        /* \"@openzeppelin/contracts/access/Ownable.sol\":1855:1878  owner() != _msgSender() */\n      sub\n        /* \"@openzeppelin/contracts/access/Ownable.sol\":1851:1952  if (owner() != _msgSender()) {... */\n      tag_344\n      jumpi\n        /* \"@openzeppelin/contracts/access/Ownable.sol\":1796:1958  function _checkOwner() internal view virtual {... */\n      jump\t// out\n        /* \"@openzeppelin/contracts/access/Ownable.sol\":1851:1952  if (owner() != _msgSender()) {... */\n    tag_344:\n        /* \"@openzeppelin/contracts/access/Ownable.sol\":1901:1941  OwnableUnauthorizedAccount(_msgSender()) */\n      shl(0xe0, 0x118cdaa7)\n        /* \"@openzeppelin/contracts/access/Ownable.sol\":1710:1716  _owner */\n      0x00\n        /* \"@openzeppelin/contracts/access/Ownable.sol\":1901:1941  OwnableUnauthorizedAccount(_msgSender()) */\n      mstore\n        /* \"@openzeppelin/contracts/utils/Context.sol\":735:745  msg.sender */\n      caller\n        /* \"@openzeppelin/contracts/access/Ownable.sol\":1901:1941  OwnableUnauthorizedAccount(_msgSender()) */\n      0x04\n        /* \"Connect4Stakes.sol\":912:12937  contract Connect4Stakes is Ownable, ReentrancyGuard {... */\n      mstore\n      0x24\n        /* \"@openzeppelin/contracts/access/Ownable.sol\":1710:1716  _owner */\n      0x00\n        /* \"@openzeppelin/contracts/access/Ownable.sol\":1901:1941  OwnableUnauthorizedAccount(_msgSender()) */\n      revert\n        /* \"@openzeppelin/contracts/security/ReentrancyGuard.sol\":2336:2623  function _nonReentrantBefore() private {... */\n    tag_24:\n        /* \"@openzeppelin/contracts/security/ReentrancyGuard.sol\":1759:1760  2 */\n      0x02\n        /* \"@openzeppelin/contracts/security/ReentrancyGuard.sol\":2468:2475  _status */\n      0x01\n        /* \"Connect4Stakes.sol\":912:12937  contract Connect4Stakes is Ownable, ReentrancyGuard {... */\n      sload\n        /* \"@openzeppelin/contracts/security/ReentrancyGuard.sol\":2468:2487  _status != _ENTERED */\n      eq\n        /* \"@openzeppelin/contracts/security/ReentrancyGuard.sol\":1759:1760  2 */\n      tag_346\n      jumpi\n      0x02\n        /* \"@openzeppelin/contracts/security/ReentrancyGuard.sol\":2468:2475  _status */\n      0x01\n        /* \"Connect4Stakes.sol\":912:12937  contract Connect4Stakes is Ownable, ReentrancyGuard {... */\n      sstore\n        /* \"@openzeppelin/contracts/security/ReentrancyGuard.sol\":2336:2623  function _nonReentrantBefore() private {... */\n      jump\t// out\n        /* \"@openzeppelin/contracts/security/ReentrancyGuard.sol\":1759:1760  2 */\n    tag_346:\n        /* \"Connect4Stakes.sol\":912:12937  contract Connect4Stakes is Ownable, ReentrancyGuard {... */\n      mload(0x40)\n      shl(0xe5, 0x461bcd)\n        /* \"@openzeppelin/contracts/security/ReentrancyGuard.sol\":1759:1760  2 */\n      dup2\n      mstore\n      0x20\n      0x04\n      dup3\n      add\n      mstore\n      0x1f\n      0x24\n      dup3\n      add\n        /* \"Connect4Stakes.sol\":912:12937  contract Connect4Stakes is Ownable, ReentrancyGuard {... */\n      mstore\n        /* \"@openzeppelin/contracts/security/ReentrancyGuard.sol\":1759:1760  2 */\n      0x5265656e7472616e637947756172643a207265656e7472616e742063616c6c00\n        /* \"Connect4Stakes.sol\":912:12937  contract Connect4Stakes is Ownable, ReentrancyGuard {... */\n      0x44\n      dup3\n      add\n        /* \"@openzeppelin/contracts/security/ReentrancyGuard.sol\":1759:1760  2 */\n      mstore\n      0x64\n      swap1\n      revert\n        /* \"Connect4Stakes.sol\":7465:7752  function _validateCreate(uint96 stake, uint32 startDeadlineSec, uint32 resolveWindowSec) internal pure {... */\n    tag_25:\n      sub(shl(0x60, 0x01), 0x01)\n        /* \"Connect4Stakes.sol\":912:12937  contract Connect4Stakes is Ownable, ReentrancyGuard {... */\n      and\n        /* \"Connect4Stakes.sol\":7586:7595  stake > 0 */\n      iszero\n        /* \"Connect4Stakes.sol\":912:12937  contract Connect4Stakes is Ownable, ReentrancyGuard {... */\n      tag_348\n      jumpi\n      0xffffffff\n        /* \"Connect4Stakes.sol\":7647:7649  60 */\n      0x3c\n        /* \"Connect4Stakes.sol\":912:12937  contract Connect4Stakes is Ownable, ReentrancyGuard {... */\n      swap2\n      and\n        /* \"Connect4Stakes.sol\":7627:7649  startDeadlineSec >= 60 */\n      lt\n        /* \"Connect4Stakes.sol\":912:12937  contract Connect4Stakes is Ownable, ReentrancyGuard {... */\n      tag_350\n      jumpi\n      0xffffffff\n        /* \"Connect4Stakes.sol\":7713:7716  300 */\n      0x012c\n        /* \"Connect4Stakes.sol\":912:12937  contract Connect4Stakes is Ownable, ReentrancyGuard {... */\n      swap2\n      and\n        /* \"Connect4Stakes.sol\":7693:7716  resolveWindowSec >= 300 */\n      lt\n        /* \"Connect4Stakes.sol\":912:12937  contract Connect4Stakes is Ownable, ReentrancyGuard {... */\n      tag_352\n      jumpi\n        /* \"Connect4Stakes.sol\":7465:7752  function _validateCreate(uint96 stake, uint32 startDeadlineSec, uint32 resolveWindowSec) internal pure {... */\n      jump\t// out\n        /* \"Connect4Stakes.sol\":912:12937  contract Connect4Stakes is Ownable, ReentrancyGuard {... */\n    tag_352:\n      mload(0x40)\n      shl(0xe5, 0x461bcd)\n      dup2\n      mstore\n      0x20\n      0x04\n      dup3\n      add\n      mstore\n      0x18\n      0x24\n      dup3\n      add\n      mstore\n      0x7265736f6c76652077696e646f7720746f6f2073686f72740000000000000000\n      0x44\n      dup3\n      add\n      mstore\n      0x64\n      swap1\n      revert\n    tag_350:\n      mload(0x40)\n      shl(0xe5, 0x461bcd)\n      dup2\n      mstore\n      0x20\n      0x04\n      dup3\n      add\n      mstore\n      0x15\n      0x24\n      dup3\n      add\n      mstore\n      shl(0x5a, 0x1a9bda5b881dda5b991bddc81d1bdbc81cda1bdc9d)\n      0x44\n      dup3\n      add\n      mstore\n      0x64\n      swap1\n      revert\n    tag_348:\n      mload(0x40)\n      shl(0xe5, 0x461bcd)\n      dup2\n      mstore\n      0x20\n      0x04\n      dup3\n      add\n      mstore\n      0x09\n      0x24\n      dup3\n      add\n      mstore\n      shl(0xbc, 0x07374616b65203d203)\n      0x44\n      dup3\n      add\n      mstore\n      0x64\n      swap1\n      revert\n        /* \"@openzeppelin/contracts/token/ERC20/utils/SafeERC20.sol\":1618:1806  function safeTransferFrom(IERC20 token, address from, address to, uint256 value) internal {... */\n    tag_26:\n        /* \"Connect4Stakes.sol\":912:12937  contract Connect4Stakes is Ownable, ReentrancyGuard {... */\n      mload(0x40)\n      shl(0xe0, 0x23b872dd)\n        /* \"@openzeppelin/contracts/token/ERC20/utils/SafeERC20.sol\":1745:1798  abi.encodeCall(token.transferFrom, (from, to, value)) */\n      0x20\n      dup3\n      add\n      mstore\n      sub(shl(0xa0, 0x01), 0x01)\n        /* \"Connect4Stakes.sol\":912:12937  contract Connect4Stakes is Ownable, ReentrancyGuard {... */\n      swap3\n      dup4\n      and\n        /* \"@openzeppelin/contracts/token/ERC20/utils/SafeERC20.sol\":1745:1798  abi.encodeCall(token.transferFrom, (from, to, value)) */\n      0x24\n      dup3\n      add\n        /* \"Connect4Stakes.sol\":912:12937  contract Connect4Stakes is Ownable, ReentrancyGuard {... */\n      mstore\n      swap3\n      swap1\n      swap2\n      and\n      0x44\n      dup4\n      add\n      mstore\n      0x64\n      dup1\n      dup4\n      add\n      swap4\n      swap1\n      swap4\n      mstore\n        /* \"@openzeppelin/contracts/token/ERC20/utils/SafeERC20.sol\":1745:1798  abi.encodeCall(token.transferFrom, (from, to, value)) */\n      swap2\n      dup2\n      mstore\n      tag_354\n      swap2\n      tag_355\n      0x84\n        /* \"Connect4Stakes.sol\":912:12937  contract Connect4Stakes is Ownable, ReentrancyGuard {... */\n      dup4\n        /* \"@openzeppelin/contracts/token/ERC20/utils/SafeERC20.sol\":1745:1798  abi.encodeCall(token.transferFrom, (from, to, value)) */\n      tag_10\n      jump\t// in\n    tag_355:\n      tag_29\n      jump\t// in\n    tag_354:\n        /* \"@openzeppelin/contracts/token/ERC20/utils/SafeERC20.sol\":1618:1806  function safeTransferFrom(IERC20 token, address from, address to, uint256 value) internal {... */\n      jump\t// out\n        /* \"@openzeppelin/contracts/token/ERC20/utils/SafeERC20.sol\":1219:1379  function safeTransfer(IERC20 token, address to, uint256 value) internal {... */\n    tag_27:\n        /* \"Connect4Stakes.sol\":912:12937  contract Connect4Stakes is Ownable, ReentrancyGuard {... */\n      mload(0x40)\n      shl(0xe0, 0xa9059cbb)\n        /* \"@openzeppelin/contracts/token/ERC20/utils/SafeERC20.sol\":1328:1371  abi.encodeCall(token.transfer, (to, value)) */\n      0x20\n      dup3\n      add\n      mstore\n      sub(shl(0xa0, 0x01), 0x01)\n        /* \"Connect4Stakes.sol\":912:12937  contract Connect4Stakes is Ownable, ReentrancyGuard {... */\n      swap1\n      swap3\n      and\n        /* \"@openzeppelin/contracts/token/ERC20/utils/SafeERC20.sol\":1328:1371  abi.encodeCall(token.transfer, (to, value)) */\n      0x24\n      dup4\n      add\n        /* \"Connect4Stakes.sol\":912:12937  contract Connect4Stakes is Ownable, ReentrancyGuard {... */\n      mstore\n      0x44\n      dup1\n      dup4\n      add\n      swap4\n      swap1\n      swap4\n      mstore\n        /* \"@openzeppelin/contracts/token/ERC20/utils/SafeERC20.sol\":1328:1371  abi.encodeCall(token.transfer, (to, value)) */\n      swap2\n      dup2\n      mstore\n      tag_354\n      swap2\n      tag_355\n      0x64\n        /* \"Connect4Stakes.sol\":912:12937  contract Connect4Stakes is Ownable, ReentrancyGuard {... */\n      dup4\n        /* \"@openzeppelin/contracts/token/ERC20/utils/SafeERC20.sol\":1328:1371  abi.encodeCall(token.transfer, (to, value)) */\n      tag_10\n      jump\t// in\n        /* \"Connect4Stakes.sol\":12263:12935  function _payout(uint256 id, address winner) internal {... */\n    tag_28:\n        /* \"Connect4Stakes.sol\":912:12937  contract Connect4Stakes is Ownable, ReentrancyGuard {... */\n      dup1\n      0x00\n      mstore\n        /* \"Connect4Stakes.sol\":12345:12352  matches */\n      0x05\n        /* \"Connect4Stakes.sol\":912:12937  contract Connect4Stakes is Ownable, ReentrancyGuard {... */\n      0x20\n      mstore\n      keccak256(0x00, 0x40)\n        /* \"Connect4Stakes.sol\":12374:12382  m.status */\n      swap2\n      0x04\n      dup4\n      add\n        /* \"Connect4Stakes.sol\":912:12937  contract Connect4Stakes is Ownable, ReentrancyGuard {... */\n      swap3\n      0xff\n      dup5\n      sload\n      0xb0\n      shr\n      and\n        /* \"Connect4Stakes.sol\":12374:12382  m.status */\n      0x04\n        /* \"Connect4Stakes.sol\":912:12937  contract Connect4Stakes is Ownable, ReentrancyGuard {... */\n      dup2\n      lt\n      iszero\n      tag_137\n      jumpi\n        /* \"Connect4Stakes.sol\":12386:12400  Status.Started */\n      0x01\n        /* \"Connect4Stakes.sol\":12374:12400  m.status == Status.Started */\n      sub\n        /* \"Connect4Stakes.sol\":912:12937  contract Connect4Stakes is Ownable, ReentrancyGuard {... */\n      tag_360\n      jumpi\n      dup4\n      sload\n      not(shl(0xb0, 0xff))\n      and\n      shl(0xb1, 0x01)\n      or\n      dup5\n      sstore\n        /* \"Connect4Stakes.sol\":12345:12352  matches */\n      0x05\n        /* \"Connect4Stakes.sol\":12461:12469  m.winner */\n      dup2\n      add\n        /* \"Connect4Stakes.sol\":912:12937  contract Connect4Stakes is Ownable, ReentrancyGuard {... */\n      dup1\n      sload\n      not(sub(shl(0xa0, 0x01), 0x01))\n      and\n      sub(shl(0xa0, 0x01), 0x01)\n      dup5\n      and\n      or\n      swap1\n      sstore\n        /* \"Connect4Stakes.sol\":12436:12451  Status.Resolved */\n      0x02\n        /* \"Connect4Stakes.sol\":12513:12520  m.stake */\n      swap1\n      dup2\n      add\n        /* \"Connect4Stakes.sol\":912:12937  contract Connect4Stakes is Ownable, ReentrancyGuard {... */\n      dup1\n      sload\n      0x9f\n      dup2\n      swap1\n      shr\n      0x01fffffffffffffffffffffffe\n      and\n      swap6\n      swap1\n      swap4\n        /* \"Connect4Stakes.sol\":12513:12520  m.stake */\n      swap2\n      swap3\n        /* \"Connect4Stakes.sol\":912:12937  contract Connect4Stakes is Ownable, ReentrancyGuard {... */\n      0xa0\n      dup6\n      swap1\n      shr\n      dup1\n      iszero\n      swap1\n      dup9\n      div\n      swap1\n      swap2\n      eq\n      or\n      iszero\n      tag_324\n      jumpi\n        /* \"Connect4Stakes.sol\":12436:12451  Status.Resolved */\n      0x02\n        /* \"Connect4Stakes.sol\":912:12937  contract Connect4Stakes is Ownable, ReentrancyGuard {... */\n      sload\n      0x00\n      swap5\n      sub(shl(0xa0, 0x01), 0x01)\n      dup3\n      and\n      swap3\n        /* \"Connect4Stakes.sol\":12565:12591  feeRecipient != address(0) */\n      dup4\n      iszero\n      iszero\n      dup1\n        /* \"Connect4Stakes.sol\":12565:12607  feeRecipient != address(0) && m.feeBps > 0 */\n      tag_364\n      jumpi\n        /* \"Connect4Stakes.sol\":12263:12935  function _payout(uint256 id, address winner) internal {... */\n    tag_365:\n        /* \"Connect4Stakes.sol\":12561:12785  if (feeRecipient != address(0) && m.feeBps > 0) {... */\n      tag_366\n      jumpi\n        /* \"Connect4Stakes.sol\":12263:12935  function _payout(uint256 id, address winner) internal {... */\n    tag_367:\n        /* \"Connect4Stakes.sol\":912:12937  contract Connect4Stakes is Ownable, ReentrancyGuard {... */\n      pop\n      pop\n      pop\n      pop\n      dup3\n      dup6\n      sub\n      swap5\n      dup6\n      gt\n      tag_324\n      jumpi\n        /* \"Connect4Stakes.sol\":12891:12928  MatchResolved(id, winner, prize, fee) */\n      0xc681b7344754f412a9bd7ae2cc1cccd1e8bc6e7da75ab89b91e9eec5e4c40788\n        /* \"Connect4Stakes.sol\":912:12937  contract Connect4Stakes is Ownable, ReentrancyGuard {... */\n      swap3\n        /* \"Connect4Stakes.sol\":12869:12874  prize */\n      tag_370\n        /* \"Connect4Stakes.sol\":912:12937  contract Connect4Stakes is Ownable, ReentrancyGuard {... */\n      dup7\n      dup4\n      0x40\n      swap6\n      0x01\n      dup1\n      0xa0\n      shl\n      sub\n      swap1\n      sload\n      and\n        /* \"Connect4Stakes.sol\":12869:12874  prize */\n      tag_27\n      jump\t// in\n    tag_370:\n        /* \"Connect4Stakes.sol\":912:12937  contract Connect4Stakes is Ownable, ReentrancyGuard {... */\n      dup3\n      mload\n      swap6\n      dup7\n      mstore\n      0x20\n      dup7\n      add\n      mstore\n      sub(shl(0xa0, 0x01), 0x01)\n      and\n      swap4\n        /* \"Connect4Stakes.sol\":12891:12928  MatchResolved(id, winner, prize, fee) */\n      log3\n        /* \"Connect4Stakes.sol\":12263:12935  function _payout(uint256 id, address winner) internal {... */\n      jump\t// out\n        /* \"Connect4Stakes.sol\":12561:12785  if (feeRecipient != address(0) && m.feeBps > 0) {... */\n    tag_366:\n        /* \"Connect4Stakes.sol\":912:12937  contract Connect4Stakes is Ownable, ReentrancyGuard {... */\n      0xffff\n      swap2\n      swap3\n      swap4\n      swap7\n      pop\n      dup2\n      swap1\n      sload\n      0xa0\n      shr\n      and\n      swap3\n      0xb0\n      shr\n      and\n        /* \"Connect4Stakes.sol\":12631:12652  m.feeBps <= maxFeeBps */\n      dup3\n      gt\n        /* \"Connect4Stakes.sol\":912:12937  contract Connect4Stakes is Ownable, ReentrancyGuard {... */\n      tag_371\n      jumpi\n      dup2\n      dup8\n      mul\n      swap2\n      dup8\n      dup4\n      div\n      eq\n      dup8\n      iszero\n      or\n      iszero\n      tag_324\n      jumpi\n        /* \"Connect4Stakes.sol\":12707:12713  10_000 */\n      0x2710\n        /* \"Connect4Stakes.sol\":912:12937  contract Connect4Stakes is Ownable, ReentrancyGuard {... */\n      swap1\n      swap2\n      div\n      swap4\n        /* \"Connect4Stakes.sol\":12770:12773  fee */\n      tag_375\n      swap2\n        /* \"Connect4Stakes.sol\":912:12937  contract Connect4Stakes is Ownable, ReentrancyGuard {... */\n      dup6\n      swap2\n      swap1\n      sub(shl(0xa0, 0x01), 0x01)\n      and\n        /* \"Connect4Stakes.sol\":12770:12773  fee */\n      tag_27\n      jump\t// in\n    tag_375:\n        /* \"Connect4Stakes.sol\":12561:12785  if (feeRecipient != address(0) && m.feeBps > 0) {... */\n      0x00\n      dup1\n      dup1\n      dup1\n      jump(tag_367)\n        /* \"Connect4Stakes.sol\":912:12937  contract Connect4Stakes is Ownable, ReentrancyGuard {... */\n    tag_371:\n      mload(0x40)\n      shl(0xe5, 0x461bcd)\n      dup2\n      mstore\n      0x20\n        /* \"Connect4Stakes.sol\":12374:12382  m.status */\n      0x04\n        /* \"Connect4Stakes.sol\":912:12937  contract Connect4Stakes is Ownable, ReentrancyGuard {... */\n      dup3\n      add\n      mstore\n      0x09\n      0x24\n      dup3\n      add\n      mstore\n      shl(0xbb, 0x0cccaca407c40dac2f)\n      0x44\n      dup3\n      add\n      mstore\n      0x64\n      swap1\n      revert\n        /* \"Connect4Stakes.sol\":12565:12607  feeRecipient != address(0) && m.feeBps > 0 */\n    tag_364:\n        /* \"Connect4Stakes.sol\":912:12937  contract Connect4Stakes is Ownable, ReentrancyGuard {... */\n      pop\n      0xffff\n      dup2\n      sload\n      0xa0\n      shr\n      and\n        /* \"Connect4Stakes.sol\":12595:12607  m.feeBps > 0 */\n      iszero\n      iszero\n        /* \"Connect4Stakes.sol\":12565:12607  feeRecipient != address(0) && m.feeBps > 0 */\n      jump(tag_365)\n        /* \"Connect4Stakes.sol\":912:12937  contract Connect4Stakes is Ownable, ReentrancyGuard {... */\n    tag_360:\n      mload(0x40)\n      shl(0xe5, 0x461bcd)\n      dup2\n      mstore\n      0x20\n        /* \"Connect4Stakes.sol\":12374:12382  m.status */\n      0x04\n        /* \"Connect4Stakes.sol\":912:12937  contract Connect4Stakes is Ownable, ReentrancyGuard {... */\n      dup3\n      add\n      mstore\n      0x0a\n      0x24\n      dup3\n      add\n      mstore\n      shl(0xb0, 0x6e6f7420616374697665)\n      0x44\n      dup3\n      add\n      mstore\n      0x64\n      swap1\n      revert\n        /* \"@openzeppelin/contracts/token/ERC20/utils/SafeERC20.sol\":8370:9090  function _callOptionalReturn(IERC20 token, bytes memory data) private {... */\n    tag_29:\n      swap1\n      0x00\n        /* \"@openzeppelin/contracts/token/ERC20/utils/SafeERC20.sol\":8507:8928  assembly (\"memory-safe\") {... */\n      0x20\n        /* \"@openzeppelin/contracts/token/ERC20/utils/SafeERC20.sol\":8370:9090  function _callOptionalReturn(IERC20 token, bytes memory data) private {... */\n      swap2\n        /* \"@openzeppelin/contracts/token/ERC20/utils/SafeERC20.sol\":8507:8928  assembly (\"memory-safe\") {... */\n      dup3\n      dup2\n      mload\n      swap2\n      add\n      dup3\n      dup6\n      gas\n      call\n      iszero\n      tag_116\n      jumpi\n      mload(0x00)\n      returndatasize\n        /* \"@openzeppelin/contracts/token/ERC20/utils/SafeERC20.sol\":8942:8957  returnSize == 0 */\n      tag_378\n      jumpi\n      pop\n      sub(shl(0xa0, 0x01), 0x01)\n        /* \"Connect4Stakes.sol\":912:12937  contract Connect4Stakes is Ownable, ReentrancyGuard {... */\n      dup2\n      and\n        /* \"@openzeppelin/contracts/token/ERC20/utils/SafeERC20.sol\":8960:8986  address(token).code.length */\n      extcodesize\n        /* \"@openzeppelin/contracts/token/ERC20/utils/SafeERC20.sol\":8960:8991  address(token).code.length == 0 */\n      iszero\n        /* \"@openzeppelin/contracts/token/ERC20/utils/SafeERC20.sol\":8942:9010  returnSize == 0 ? address(token).code.length == 0 : returnValue != 1 */\n    tag_380:\n        /* \"@openzeppelin/contracts/token/ERC20/utils/SafeERC20.sol\":8938:9084  if (returnSize == 0 ? address(token).code.length == 0 : returnValue != 1) {... */\n      tag_381\n      jumpi\n        /* \"@openzeppelin/contracts/token/ERC20/utils/SafeERC20.sol\":8370:9090  function _callOptionalReturn(IERC20 token, bytes memory data) private {... */\n      pop\n      jump\t// out\n        /* \"@openzeppelin/contracts/token/ERC20/utils/SafeERC20.sol\":8938:9084  if (returnSize == 0 ? address(token).code.length == 0 : returnValue != 1) {... */\n    tag_381:\n      shl(0xe0, 0x5274afe7)\n      0x00\n        /* \"@openzeppelin/contracts/token/ERC20/utils/SafeERC20.sol\":9033:9073  SafeERC20FailedOperation(address(token)) */\n      swap1\n      dup2\n      mstore\n      sub(shl(0xa0, 0x01), 0x01)\n        /* \"Connect4Stakes.sol\":912:12937  contract Connect4Stakes is Ownable, ReentrancyGuard {... */\n      swap2\n      swap1\n      swap2\n      and\n        /* \"@openzeppelin/contracts/token/ERC20/utils/SafeERC20.sol\":9033:9073  SafeERC20FailedOperation(address(token)) */\n      0x04\n        /* \"Connect4Stakes.sol\":912:12937  contract Connect4Stakes is Ownable, ReentrancyGuard {... */\n      mstore\n      0x24\n      swap1\n        /* \"@openzeppelin/contracts/token/ERC20/utils/SafeERC20.sol\":9033:9073  SafeERC20FailedOperation(address(token)) */\n      revert\n        /* \"@openzeppelin/contracts/token/ERC20/utils/SafeERC20.sol\":8942:9010  returnSize == 0 ? address(token).code.length == 0 : returnValue != 1 */\n    tag_378:\n        /* \"@openzeppelin/contracts/token/ERC20/utils/SafeERC20.sol\":9009:9010  1 */\n      0x01\n        /* \"@openzeppelin/contracts/token/ERC20/utils/SafeERC20.sol\":8994:9010  returnValue != 1 */\n      eq\n      iszero\n        /* \"@openzeppelin/contracts/token/ERC20/utils/SafeERC20.sol\":8942:9010  returnSize == 0 ? address(token).code.length == 0 : returnValue != 1 */\n      jump(tag_380)\n\n    auxdata: 0xa2646970667358221220d9c7a77082d60ca6a3c024d82b3d19fc1d363a56156cbd496a6f8392536aa44364736f6c634300081a0033\n}\n",
				"bytecode": {
					"linkReferences": {},
					"object": "6080346100e457601f611c6738819003918201601f19168301916001600160401b038311848410176100e8578084926020946040528339810103126100e457516001600160a01b038116908190036100e45733156100d1575f8054336001600160a01b0319821681178355604051939290916001600160a01b0316907f8be0079c531659141344cd1fd0a4f28419497f9722a3daafe3b4186f6b6457e09080a36001808055600280546004929092556001600160c01b0319909116909117607d60b21b179055611b6a90816100fd8239f35b631e4fbdf760e01b5f525f60045260245ffd5b5f80fd5b634e487b7160e01b5f52604160045260245ffdfe60806040526004361015610011575f80fd5b5f803560e01c80631da6ed7c1461143a5780633d092b3d1461120257806345c67d861461108157806346904840146110595780634768d4ef14610f5e5780634e55a1c214610f1557806363feb74e14610cfe578063715018a614610ca75780638c4b2aae14610b855780638da5cb5b14610b5e57806392dc24bb146109af57806399ac48b4146108715780639ea7d58714610834578063bcae25a414610810578063bf769a3f146107ec578063c1eecdc6146107c6578063c5adf7c9146107a9578063e73b54a51461067c578063e8c228db146103a8578063f2fde38b146103225763feb8c43814610101575f80fd5b3461031f57602036600319011261031f5760043561011d611756565b808252600560205260408220906004820160ff815460b01c16600481101561030b576102d757600383019264ffffffffff845460281c16421161029f576001810180546001600160a01b03161561025e5780546001600160a01b0316330361022b577fbac6c1f65fa2e0f78a4e7dead8b72a284ff81ba7c397e22f9cf0e7ed2f7efd1a926101c460026020945b015460a081901c90309033906001600160a01b031661188c565b805460ff60b01b1916600160b01b179055845464ffffffffff60501b6101f4607883901c63ffffffff16426115cd565b60501b169064ffffffffff60501b19161780955560018060a01b039054169364ffffffffff6040519160501c168152a36001805580f35b60405162461bcd60e51b815260206004820152600b60248201526a1b9bdd081a5b9d9a5d195960aa1b6044820152606490fd5b80546001600160a01b031916331781557fbac6c1f65fa2e0f78a4e7dead8b72a284ff81ba7c397e22f9cf0e7ed2f7efd1a926020926101c4906002906101aa565b60405162461bcd60e51b815260206004820152601060248201526f3537b4b7103bb4b73237bb9037bb32b960811b6044820152606490fd5b60405162461bcd60e51b815260206004820152600c60248201526b6e6f74206a6f696e61626c6560a01b6044820152606490fd5b634e487b7160e01b85526021600452602485fd5b80fd5b503461031f57602036600319011261031f5761033c6114b7565b610344611730565b6001600160a01b031680156103945781546001600160a01b03198116821783556001600160a01b03167f8be0079c531659141344cd1fd0a4f28419497f9722a3daafe3b4186f6b6457e08380a380f35b631e4fbdf760e01b82526004829052602482fd5b503461067857610160366003190112610678576103c36114b7565b6103cb61151c565b916103d46114cd565b906103dd611532565b6103e5611545565b946103ee6114e3565b9160c435610104359660ff88168098036106785761040a611756565b6104158984866117ac565b6001600160a01b031696873b15610678576040519063d505accf60e01b825233600483015230602483015282604483015260e435606483015260848201526101243560a48201526101443560c48201525f8160e481838c5af1801561066d57610658575b506001600160601b0383168091106106225760045497889561049a876115ab565b60045586815260056020526040902080546001600160a01b03199081163317825560018201805482166001600160a01b038b8116919091179091558a1660a087901b9091161760028201559060038201934264ffffffffff1664ffffffffff1664ffffffffff1986541617855563ffffffff164290610518916115cd565b845469ffffffffff0000000000191660289190911b69ffffffffff000000000016178455835463ffffffff60781b191660789190911b63ffffffff60781b1617835560040180546001600160a01b038616600162ff000160a01b031982168117835560025461ffff60a01b166001600160b81b0319909216171790556105a09030338961188c565b54604080516001600160601b039390931683526001600160a01b039586166020840152602882901c64ffffffffff169083015260781c63ffffffff1660608201529216608083015233918060a08101037ff976ac1091ae1d609c0dc3a04834e4964b264db74217663204ce435fee968f5091a460018055604051908152602090f35b60405162461bcd60e51b815260206004820152600e60248201526d7065726d6974203c207374616b6560901b6044820152606490fd5b6106659195505f90611589565b5f935f610479565b6040513d5f823e3d90fd5b5f80fd5b34610678576040366003190112610678576004356106986114f9565b6106a0611756565b815f52600560205260405f2091600483015460ff8160b01c1660048110156107955760016106ce9114611650565b6001600160a01b03163314801561077f575b801561076c575b1561073657825461071993610714916001600160a01b038581169116811491821561071f575b505061168a565b611912565b60018055005b600101546001600160a01b0316149050858061070d565b60405162461bcd60e51b815260206004820152600e60248201526d1b9bdd08185d5d1a1bdc9a5e995960921b6044820152606490fd5b505f546001600160a01b031633146106e7565b50335f52600360205260ff60405f2054166106e0565b634e487b7160e01b5f52602160045260245ffd5b34610678575f366003190112610678576020600454604051908152f35b346106785760203660031901126106785760206107e46004356116c7565b604051908152f35b34610678575f36600319011261067857602061ffff60025460b01c16604051908152f35b34610678575f36600319011261067857602061ffff60025460a01c16604051908152f35b34610678576020366003190112610678576001600160a01b036108556114b7565b165f526003602052602060ff60405f2054166040519015158152f35b346106785760203660031901126106785760043561088d611756565b805f52600560205260405f20600481019060ff825460b01c166004811015610795576108b990156115da565b64ffffffffff600382015460281c164211156109735780546001600160a01b0316330361093f57815460ff60b01b1916600360b01b17909155600281015490546109159160a081901c916001600160a01b0390811691166118d7565b7fd032e44272ccb930cd0264251a97b70771f63de576a3fbeff5f2afe58f9c91be5f80a260018055005b60405162461bcd60e51b815260206004820152600c60248201526b37b7363c9031b932b0ba37b960a11b6044820152606490fd5b60405162461bcd60e51b81526020600482015260146024820152733537b4b7103bb4b73237bb903737ba1037bb32b960611b6044820152606490fd5b34610678576040366003190112610678576004356109cb6114f9565b6109d3611756565b815f52600560205260405f2060ff600482015460b01c1660048110156107955760016109ff9114611650565b64ffffffffff600382015460501c164211610b205780546001600160a01b0383811691168181148015610b0a575b610a369061168a565b3314808015610af4575b610a4990611615565b15610adb576006820180546001600160a01b031916821790555b604051908152837f0c9b740236bb539e45eb1efa55cd846ada59902e71f281c7e6f8db14fe6582f060203393a360068101546001600160a01b03168015159182610ac4575b5050610ab45760018055005b610abd91611912565b8080610719565b600701546001600160a01b03161490508380610aa8565b6007820180546001600160a01b03191682179055610a63565b5060018301546001600160a01b03163314610a40565b5060018301546001600160a01b03168214610a2d565b60405162461bcd60e51b81526020600482015260166024820152753932b9b7b63aba34b7b7103bb4b73237bb9037bb32b960511b6044820152606490fd5b34610678575f366003190112610678575f546040516001600160a01b039091168152602090f35b3461067857606036600319011261067857610b9e6114b7565b6024359061ffff821690818303610678576044359161ffff831680840361067857610bc7611730565b6103e88111610c7757808211610c42577ff44d9b22cdd87e55b71b9245548303c18d17a3c912a4e0b135ea1330351a1fc19360409360018060a01b031695866002549261ffff60b01b9060b01b169267ffffffffffffffff60c01b16179061ffff60a01b9060a01b16171760025582519182526020820152a2005b60405162461bcd60e51b815260206004820152600d60248201526c0c8caccc2ead8e8407c40dac2f609b1b6044820152606490fd5b60405162461bcd60e51b81526020600482015260086024820152676d6178203e31302560c01b6044820152606490fd5b34610678575f36600319011261067857610cbf611730565b5f80546001600160a01b0319811682556001600160a01b03167f8be0079c531659141344cd1fd0a4f28419497f9722a3daafe3b4186f6b6457e08280a3005b3461067857602036600319011261067857600435610d1a611756565b805f52600560205260405f20600481019060ff825460b01c166004811015610795576001610d4891146115da565b64ffffffffff600382015460501c16421115610ed05780546001600160a01b031633148015610eba575b610d7b90611615565b5f83815260066020908152604080832033845290915290205460ff16610e81575f838152600660209081526040808320338085529252909120805460ff191660011790556002820154610ddc9160a082901c916001600160a01b03166118d7565b5f83815260066020908152604080832084546001600160a01b0316845290915290205460ff169081610e50575b50610e145760018055005b805460ff60b01b1916600360b01b1790557fd032e44272ccb930cd0264251a97b70771f63de576a3fbeff5f2afe58f9c91be5f80a28080610719565b5f8481526006602090815260408083206001909401546001600160a01b03168352929052205460ff16905083610e09565b60405162461bcd60e51b815260206004820152601160248201527030b63932b0b23c903bb4ba34323930bbb760791b6044820152606490fd5b5060018101546001600160a01b03163314610d72565b60405162461bcd60e51b815260206004820152601760248201527f7265736f6c76652077696e646f77206e6f74206f7665720000000000000000006044820152606490fd5b3461067857604036600319011261067857610f2e6114f9565b6004355f52600660205260405f209060018060a01b03165f52602052602060ff60405f2054166040519015158152f35b3461067857602036600319011261067857600480355f9081526005602081815260409283902080546001820154600283015460038401549784015495840154600685015460079095015488516001600160a01b039586168152938516968401969096528184169783019790975260a090811c606083015264ffffffffff8089166080840152602889901c811683830152605089901c1660c083015260789790971c63ffffffff1660e08201528482166101008201529584901c61ffff166101208701526101c09594928116939181169216906110459061014086019060b01c60ff1661150f565b6101608401526101808301526101a0820152f35b34610678575f366003190112610678576002546040516001600160a01b039091168152602090f35b346106785760c03660031901126106785761109a6114b7565b6110a261151c565b6110aa6114cd565b6110b2611532565b916110bb611545565b906110c46114e3565b906110cd611756565b6110d88386836117ac565b6004549586936110e7856115ab565b6004555f85815260056020526040902080546001600160a01b03199081163317825560018201805482166001600160a01b038a81169190911790915560a086901b9091169084161760028201559060038201974264ffffffffff1664ffffffffff1664ffffffffff198a541617895563ffffffff164290611167916115cd565b885469ffffffffff0000000000191660289190911b69ffffffffff000000000016178855875463ffffffff60781b191660789190911b63ffffffff60781b1617875560040180546001600160a01b038516600162ff000160a01b031982168117835560025461ffff60a01b166001600160b81b0319909216171790556001600160a01b0316946105a06001600160601b03831630338961188c565b34610678576020366003190112610678575f6101a060405161122381611558565b8281528260208201528260408201528260608201528260808201528260a08201528260c08201528260e0820152826101008201528261012082015282610140820152826101608201528261018082015201526004355f52600560205260405f2060405161128f81611558565b60018060a01b03825416815260018060a01b0360018301541691602082019283526002810154604083019060018060a01b0381168252606084019060a01c815260038301546080850164ffffffffff8216815260a086019164ffffffffff8160281c16835260c0870164ffffffffff8260501c16815263ffffffff60e089019260781c16825260048701549361010089019360018060a01b038616855260ff6101208b019661ffff8160a01c16885260b01c16966101408b0197600481101561079557885260058a01546001600160a01b039081166101608d0190815260068c015482166101808e019081526007909c015482166101a08e01908152604080519e5184168f529e51831660208f01529a5182169d8d019d909d5290516001600160601b031660608c0152905164ffffffffff90811660808c01529151821660a08b015291511660c0890152905163ffffffff1660e08801529051166101008601525161ffff16610120850152519293909261140f9061014086019061150f565b516001600160a01b03908116610160850152905181166101808401529051166101a08201526101c090f35b34610678576040366003190112610678576114536114b7565b602435908115158092036106785760207f82b5558fdeb37cb74b6e8eb4a87486d06c7ef8951416a5dc76c25f0bd9c3bb439161148d611730565b60018060a01b031692835f526003825260405f2060ff1981541660ff8316179055604051908152a2005b600435906001600160a01b038216820361067857565b604435906001600160a01b038216820361067857565b60a435906001600160a01b038216820361067857565b602435906001600160a01b038216820361067857565b9060048210156107955752565b602435906001600160601b038216820361067857565b6064359063ffffffff8216820361067857565b6084359063ffffffff8216820361067857565b6101c0810190811067ffffffffffffffff82111761157557604052565b634e487b7160e01b5f52604160045260245ffd5b90601f8019910116810190811067ffffffffffffffff82111761157557604052565b5f1981146115b95760010190565b634e487b7160e01b5f52601160045260245ffd5b919082018092116115b957565b156115e157565b60405162461bcd60e51b815260206004820152600c60248201526b77726f6e672073746174757360a01b6044820152606490fd5b1561161c57565b60405162461bcd60e51b815260206004820152600c60248201526b3737ba103090383630bcb2b960a11b6044820152606490fd5b1561165757565b60405162461bcd60e51b815260206004820152600b60248201526a1b9bdd081cdd185c9d195960aa1b6044820152606490fd5b1561169157565b60405162461bcd60e51b815260206004820152600e60248201526d34b73b30b634b2103bb4b73732b960911b6044820152606490fd5b5f52600560205260405f2060ff600482015460b01c166004811015610795578015611725576001146116f857505f90565b600201546c01fffffffffffffffffffffffe8160a01c91609f1c1690808204600214901517156115b95790565b506002015460a01c90565b5f546001600160a01b0316330361174357565b63118cdaa760e01b5f523360045260245ffd5b600260015414611767576002600155565b60405162461bcd60e51b815260206004820152601f60248201527f5265656e7472616e637947756172643a207265656e7472616e742063616c6c006044820152606490fd5b6001600160601b03161561185b5763ffffffff603c91161061181e5763ffffffff61012c9116106117d957565b60405162461bcd60e51b815260206004820152601860248201527f7265736f6c76652077696e646f7720746f6f2073686f727400000000000000006044820152606490fd5b60405162461bcd60e51b81526020600482015260156024820152741a9bda5b881dda5b991bddc81d1bdbc81cda1bdc9d605a1b6044820152606490fd5b60405162461bcd60e51b815260206004820152600960248201526807374616b65203d20360bc1b6044820152606490fd5b6040516323b872dd60e01b60208201526001600160a01b0392831660248201529290911660448301526064808301939093529181526118d5916118d0608483611589565b611adc565b565b60405163a9059cbb60e01b60208201526001600160a01b0390921660248301526044808301939093529181526118d5916118d0606483611589565b805f52600560205260405f2091600483019260ff845460b01c16600481101561079557600103611aaa57835460ff60b01b1916600160b11b1784556005810180546001600160a01b0319166001600160a01b03841617905560029081018054609f81901c6c01fffffffffffffffffffffffe16959093919260a085901c801590880490911417156115b9576002545f946001600160a01b0382169283151580611a99575b611a19575b505050508285039485116115b9577fc681b7344754f412a9bd7ae2cc1cccd1e8bc6e7da75ab89b91e9eec5e4c4078892611a02868360409560018060a01b039054166118d7565b825195865260208601526001600160a01b031693a3565b61ffff919293965081905460a01c169260b01c168211611a68578187029187830414871517156115b95761271090910493611a5f918591906001600160a01b03166118d7565b5f8080806119bb565b60405162461bcd60e51b81526020600482015260096024820152680cccaca407c40dac2f60bb1b6044820152606490fd5b5061ffff815460a01c1615156119b6565b60405162461bcd60e51b815260206004820152600a6024820152696e6f742061637469766560b01b6044820152606490fd5b905f602091828151910182855af11561066d575f513d611b2b57506001600160a01b0381163b155b611b0b5750565b635274afe760e01b5f9081526001600160a01b0391909116600452602490fd5b60011415611b0456fea2646970667358221220d9c7a77082d60ca6a3c024d82b3d19fc1d363a56156cbd496a6f8392536aa44364736f6c634300081a0033",
					"opcodes": "PUSH1 0x80 CALLVALUE PUSH2 0xE4 JUMPI PUSH1 0x1F PUSH2 0x1C67 CODESIZE DUP2 SWAP1 SUB SWAP2 DUP3 ADD PUSH1 0x1F NOT AND DUP4 ADD SWAP2 PUSH1 0x1 PUSH1 0x1 PUSH1 0x40 SHL SUB DUP4 GT DUP5 DUP5 LT OR PUSH2 0xE8 JUMPI DUP1 DUP5 SWAP3 PUSH1 0x20 SWAP5 PUSH1 0x40 MSTORE DUP4 CODECOPY DUP2 ADD SUB SLT PUSH2 0xE4 JUMPI MLOAD PUSH1 0x1 PUSH1 0x1 PUSH1 0xA0 SHL SUB DUP2 AND SWAP1 DUP2 SWAP1 SUB PUSH2 0xE4 JUMPI CALLER ISZERO PUSH2 0xD1 JUMPI PUSH0 DUP1 SLOAD CALLER PUSH1 0x1 PUSH1 0x1 PUSH1 0xA0 SHL SUB NOT DUP3 AND DUP2 OR DUP4 SSTORE PUSH1 0x40 MLOAD SWAP4 SWAP3 SWAP1 SWAP2 PUSH1 0x1 PUSH1 0x1 PUSH1 0xA0 SHL SUB AND SWAP1 PUSH32 0x8BE0079C531659141344CD1FD0A4F28419497F9722A3DAAFE3B4186F6B6457E0 SWAP1 DUP1 LOG3 PUSH1 0x1 DUP1 DUP1 SSTORE PUSH1 0x2 DUP1 SLOAD PUSH1 0x4 SWAP3 SWAP1 SWAP3 SSTORE PUSH1 0x1 PUSH1 0x1 PUSH1 0xC0 SHL SUB NOT SWAP1 SWAP2 AND SWAP1 SWAP2 OR PUSH1 0x7D PUSH1 0xB2 SHL OR SWAP1 SSTORE PUSH2 0x1B6A SWAP1 DUP2 PUSH2 0xFD DUP3 CODECOPY RETURN JUMPDEST PUSH4 0x1E4FBDF7 PUSH1 0xE0 SHL PUSH0 MSTORE PUSH0 PUSH1 0x4 MSTORE PUSH1 0x24 PUSH0 REVERT JUMPDEST PUSH0 DUP1 REVERT JUMPDEST PUSH4 0x4E487B71 PUSH1 0xE0 SHL PUSH0 MSTORE PUSH1 0x41 PUSH1 0x4 MSTORE PUSH1 0x24 PUSH0 REVERT INVALID PUSH1 0x80 PUSH1 0x40 MSTORE PUSH1 0x4 CALLDATASIZE LT ISZERO PUSH2 0x11 JUMPI PUSH0 DUP1 REVERT JUMPDEST PUSH0 DUP1 CALLDATALOAD PUSH1 0xE0 SHR DUP1 PUSH4 0x1DA6ED7C EQ PUSH2 0x143A JUMPI DUP1 PUSH4 0x3D092B3D EQ PUSH2 0x1202 JUMPI DUP1 PUSH4 0x45C67D86 EQ PUSH2 0x1081 JUMPI DUP1 PUSH4 0x46904840 EQ PUSH2 0x1059 JUMPI DUP1 PUSH4 0x4768D4EF EQ PUSH2 0xF5E JUMPI DUP1 PUSH4 0x4E55A1C2 EQ PUSH2 0xF15 JUMPI DUP1 PUSH4 0x63FEB74E EQ PUSH2 0xCFE JUMPI DUP1 PUSH4 0x715018A6 EQ PUSH2 0xCA7 JUMPI DUP1 PUSH4 0x8C4B2AAE EQ PUSH2 0xB85 JUMPI DUP1 PUSH4 0x8DA5CB5B EQ PUSH2 0xB5E JUMPI DUP1 PUSH4 0x92DC24BB EQ PUSH2 0x9AF JUMPI DUP1 PUSH4 0x99AC48B4 EQ PUSH2 0x871 JUMPI DUP1 PUSH4 0x9EA7D587 EQ PUSH2 0x834 JUMPI DUP1 PUSH4 0xBCAE25A4 EQ PUSH2 0x810 JUMPI DUP1 PUSH4 0xBF769A3F EQ PUSH2 0x7EC JUMPI DUP1 PUSH4 0xC1EECDC6 EQ PUSH2 0x7C6 JUMPI DUP1 PUSH4 0xC5ADF7C9 EQ PUSH2 0x7A9 JUMPI DUP1 PUSH4 0xE73B54A5 EQ PUSH2 0x67C JUMPI DUP1 PUSH4 0xE8C228DB EQ PUSH2 0x3A8 JUMPI DUP1 PUSH4 0xF2FDE38B EQ PUSH2 0x322 JUMPI PUSH4 0xFEB8C438 EQ PUSH2 0x101 JUMPI PUSH0 DUP1 REVERT JUMPDEST CALLVALUE PUSH2 0x31F JUMPI PUSH1 0x20 CALLDATASIZE PUSH1 0x3 NOT ADD SLT PUSH2 0x31F JUMPI PUSH1 0x4 CALLDATALOAD PUSH2 0x11D PUSH2 0x1756 JUMP JUMPDEST DUP1 DUP3 MSTORE PUSH1 0x5 PUSH1 0x20 MSTORE PUSH1 0x40 DUP3 KECCAK256 SWAP1 PUSH1 0x4 DUP3 ADD PUSH1 0xFF DUP2 SLOAD PUSH1 0xB0 SHR AND PUSH1 0x4 DUP2 LT ISZERO PUSH2 0x30B JUMPI PUSH2 0x2D7 JUMPI PUSH1 0x3 DUP4 ADD SWAP3 PUSH5 0xFFFFFFFFFF DUP5 SLOAD PUSH1 0x28 SHR AND TIMESTAMP GT PUSH2 0x29F JUMPI PUSH1 0x1 DUP2 ADD DUP1 SLOAD PUSH1 0x1 PUSH1 0x1 PUSH1 0xA0 SHL SUB AND ISZERO PUSH2 0x25E JUMPI DUP1 SLOAD PUSH1 0x1 PUSH1 0x1 PUSH1 0xA0 SHL SUB AND CALLER SUB PUSH2 0x22B JUMPI PUSH32 0xBAC6C1F65FA2E0F78A4E7DEAD8B72A284FF81BA7C397E22F9CF0E7ED2F7EFD1A SWAP3 PUSH2 0x1C4 PUSH1 0x2 PUSH1 0x20 SWAP5 JUMPDEST ADD SLOAD PUSH1 0xA0 DUP2 SWAP1 SHR SWAP1 ADDRESS SWAP1 CALLER SWAP1 PUSH1 0x1 PUSH1 0x1 PUSH1 0xA0 SHL SUB AND PUSH2 0x188C JUMP JUMPDEST DUP1 SLOAD PUSH1 0xFF PUSH1 0xB0 SHL NOT AND PUSH1 0x1 PUSH1 0xB0 SHL OR SWAP1 SSTORE DUP5 SLOAD PUSH5 0xFFFFFFFFFF PUSH1 0x50 SHL PUSH2 0x1F4 PUSH1 0x78 DUP4 SWAP1 SHR PUSH4 0xFFFFFFFF AND TIMESTAMP PUSH2 0x15CD JUMP JUMPDEST PUSH1 0x50 SHL AND SWAP1 PUSH5 0xFFFFFFFFFF PUSH1 0x50 SHL NOT AND OR DUP1 SWAP6 SSTORE PUSH1 0x1 DUP1 PUSH1 0xA0 SHL SUB SWAP1 SLOAD AND SWAP4 PUSH5 0xFFFFFFFFFF PUSH1 0x40 MLOAD SWAP2 PUSH1 0x50 SHR AND DUP2 MSTORE LOG3 PUSH1 0x1 DUP1 SSTORE DUP1 RETURN JUMPDEST PUSH1 0x40 MLOAD PUSH3 0x461BCD PUSH1 0xE5 SHL DUP2 MSTORE PUSH1 0x20 PUSH1 0x4 DUP3 ADD MSTORE PUSH1 0xB PUSH1 0x24 DUP3 ADD MSTORE PUSH11 0x1B9BDD081A5B9D9A5D1959 PUSH1 0xAA SHL PUSH1 0x44 DUP3 ADD MSTORE PUSH1 0x64 SWAP1 REVERT JUMPDEST DUP1 SLOAD PUSH1 0x1 PUSH1 0x1 PUSH1 0xA0 SHL SUB NOT AND CALLER OR DUP2 SSTORE PUSH32 0xBAC6C1F65FA2E0F78A4E7DEAD8B72A284FF81BA7C397E22F9CF0E7ED2F7EFD1A SWAP3 PUSH1 0x20 SWAP3 PUSH2 0x1C4 SWAP1 PUSH1 0x2 SWAP1 PUSH2 0x1AA JUMP JUMPDEST PUSH1 0x40 MLOAD PUSH3 0x461BCD PUSH1 0xE5 SHL DUP2 MSTORE PUSH1 0x20 PUSH1 0x4 DUP3 ADD MSTORE PUSH1 0x10 PUSH1 0x24 DUP3 ADD MSTORE PUSH16 0x3537B4B7103BB4B73237BB9037BB32B9 PUSH1 0x81 SHL PUSH1 0x44 DUP3 ADD MSTORE PUSH1 0x64 SWAP1 REVERT JUMPDEST PUSH1 0x40 MLOAD PUSH3 0x461BCD PUSH1 0xE5 SHL DUP2 MSTORE PUSH1 0x20 PUSH1 0x4 DUP3 ADD MSTORE PUSH1 0xC PUSH1 0x24 DUP3 ADD MSTORE PUSH12 0x6E6F74206A6F696E61626C65 PUSH1 0xA0 SHL PUSH1 0x44 DUP3 ADD MSTORE PUSH1 0x64 SWAP1 REVERT JUMPDEST PUSH4 0x4E487B71 PUSH1 0xE0 SHL DUP6 MSTORE PUSH1 0x21 PUSH1 0x4 MSTORE PUSH1 0x24 DUP6 REVERT JUMPDEST DUP1 REVERT JUMPDEST POP CALLVALUE PUSH2 0x31F JUMPI PUSH1 0x20 CALLDATASIZE PUSH1 0x3 NOT ADD SLT PUSH2 0x31F JUMPI PUSH2 0x33C PUSH2 0x14B7 JUMP JUMPDEST PUSH2 0x344 PUSH2 0x1730 JUMP JUMPDEST PUSH1 0x1 PUSH1 0x1 PUSH1 0xA0 SHL SUB AND DUP1 ISZERO PUSH2 0x394 JUMPI DUP2 SLOAD PUSH1 0x1 PUSH1 0x1 PUSH1 0xA0 SHL SUB NOT DUP2 AND DUP3 OR DUP4 SSTORE PUSH1 0x1 PUSH1 0x1 PUSH1 0xA0 SHL SUB AND PUSH32 0x8BE0079C531659141344CD1FD0A4F28419497F9722A3DAAFE3B4186F6B6457E0 DUP4 DUP1 LOG3 DUP1 RETURN JUMPDEST PUSH4 0x1E4FBDF7 PUSH1 0xE0 SHL DUP3 MSTORE PUSH1 0x4 DUP3 SWAP1 MSTORE PUSH1 0x24 DUP3 REVERT JUMPDEST POP CALLVALUE PUSH2 0x678 JUMPI PUSH2 0x160 CALLDATASIZE PUSH1 0x3 NOT ADD SLT PUSH2 0x678 JUMPI PUSH2 0x3C3 PUSH2 0x14B7 JUMP JUMPDEST PUSH2 0x3CB PUSH2 0x151C JUMP JUMPDEST SWAP2 PUSH2 0x3D4 PUSH2 0x14CD JUMP JUMPDEST SWAP1 PUSH2 0x3DD PUSH2 0x1532 JUMP JUMPDEST PUSH2 0x3E5 PUSH2 0x1545 JUMP JUMPDEST SWAP5 PUSH2 0x3EE PUSH2 0x14E3 JUMP JUMPDEST SWAP2 PUSH1 0xC4 CALLDATALOAD PUSH2 0x104 CALLDATALOAD SWAP7 PUSH1 0xFF DUP9 AND DUP1 SWAP9 SUB PUSH2 0x678 JUMPI PUSH2 0x40A PUSH2 0x1756 JUMP JUMPDEST PUSH2 0x415 DUP10 DUP5 DUP7 PUSH2 0x17AC JUMP JUMPDEST PUSH1 0x1 PUSH1 0x1 PUSH1 0xA0 SHL SUB AND SWAP7 DUP8 EXTCODESIZE ISZERO PUSH2 0x678 JUMPI PUSH1 0x40 MLOAD SWAP1 PUSH4 0xD505ACCF PUSH1 0xE0 SHL DUP3 MSTORE CALLER PUSH1 0x4 DUP4 ADD MSTORE ADDRESS PUSH1 0x24 DUP4 ADD MSTORE DUP3 PUSH1 0x44 DUP4 ADD MSTORE PUSH1 0xE4 CALLDATALOAD PUSH1 0x64 DUP4 ADD MSTORE PUSH1 0x84 DUP3 ADD MSTORE PUSH2 0x124 CALLDATALOAD PUSH1 0xA4 DUP3 ADD MSTORE PUSH2 0x144 CALLDATALOAD PUSH1 0xC4 DUP3 ADD MSTORE PUSH0 DUP2 PUSH1 0xE4 DUP2 DUP4 DUP13 GAS CALL DUP1 ISZERO PUSH2 0x66D JUMPI PUSH2 0x658 JUMPI JUMPDEST POP PUSH1 0x1 PUSH1 0x1 PUSH1 0x60 SHL SUB DUP4 AND DUP1 SWAP2 LT PUSH2 0x622 JUMPI PUSH1 0x4 SLOAD SWAP8 DUP9 SWAP6 PUSH2 0x49A DUP8 PUSH2 0x15AB JUMP JUMPDEST PUSH1 0x4 SSTORE DUP7 DUP2 MSTORE PUSH1 0x5 PUSH1 0x20 MSTORE PUSH1 0x40 SWAP1 KECCAK256 DUP1 SLOAD PUSH1 0x1 PUSH1 0x1 PUSH1 0xA0 SHL SUB NOT SWAP1 DUP2 AND CALLER OR DUP3 SSTORE PUSH1 0x1 DUP3 ADD DUP1 SLOAD DUP3 AND PUSH1 0x1 PUSH1 0x1 PUSH1 0xA0 SHL SUB DUP12 DUP2 AND SWAP2 SWAP1 SWAP2 OR SWAP1 SWAP2 SSTORE DUP11 AND PUSH1 0xA0 DUP8 SWAP1 SHL SWAP1 SWAP2 AND OR PUSH1 0x2 DUP3 ADD SSTORE SWAP1 PUSH1 0x3 DUP3 ADD SWAP4 TIMESTAMP PUSH5 0xFFFFFFFFFF AND PUSH5 0xFFFFFFFFFF AND PUSH5 0xFFFFFFFFFF NOT DUP7 SLOAD AND OR DUP6 SSTORE PUSH4 0xFFFFFFFF AND TIMESTAMP SWAP1 PUSH2 0x518 SWAP2 PUSH2 0x15CD JUMP JUMPDEST DUP5 SLOAD PUSH10 0xFFFFFFFFFF0000000000 NOT AND PUSH1 0x28 SWAP2 SWAP1 SWAP2 SHL PUSH10 0xFFFFFFFFFF0000000000 AND OR DUP5 SSTORE DUP4 SLOAD PUSH4 0xFFFFFFFF PUSH1 0x78 SHL NOT AND PUSH1 0x78 SWAP2 SWAP1 SWAP2 SHL PUSH4 0xFFFFFFFF PUSH1 0x78 SHL AND OR DUP4 SSTORE PUSH1 0x4 ADD DUP1 SLOAD PUSH1 0x1 PUSH1 0x1 PUSH1 0xA0 SHL SUB DUP7 AND PUSH1 0x1 PUSH3 0xFF0001 PUSH1 0xA0 SHL SUB NOT DUP3 AND DUP2 OR DUP4 SSTORE PUSH1 0x2 SLOAD PUSH2 0xFFFF PUSH1 0xA0 SHL AND PUSH1 0x1 PUSH1 0x1 PUSH1 0xB8 SHL SUB NOT SWAP1 SWAP3 AND OR OR SWAP1 SSTORE PUSH2 0x5A0 SWAP1 ADDRESS CALLER DUP10 PUSH2 0x188C JUMP JUMPDEST SLOAD PUSH1 0x40 DUP1 MLOAD PUSH1 0x1 PUSH1 0x1 PUSH1 0x60 SHL SUB SWAP4 SWAP1 SWAP4 AND DUP4 MSTORE PUSH1 0x1 PUSH1 0x1 PUSH1 0xA0 SHL SUB SWAP6 DUP7 AND PUSH1 0x20 DUP5 ADD MSTORE PUSH1 0x28 DUP3 SWAP1 SHR PUSH5 0xFFFFFFFFFF AND SWAP1 DUP4 ADD MSTORE PUSH1 0x78 SHR PUSH4 0xFFFFFFFF AND PUSH1 0x60 DUP3 ADD MSTORE SWAP3 AND PUSH1 0x80 DUP4 ADD MSTORE CALLER SWAP2 DUP1 PUSH1 0xA0 DUP2 ADD SUB PUSH32 0xF976AC1091AE1D609C0DC3A04834E4964B264DB74217663204CE435FEE968F50 SWAP2 LOG4 PUSH1 0x1 DUP1 SSTORE PUSH1 0x40 MLOAD SWAP1 DUP2 MSTORE PUSH1 0x20 SWAP1 RETURN JUMPDEST PUSH1 0x40 MLOAD PUSH3 0x461BCD PUSH1 0xE5 SHL DUP2 MSTORE PUSH1 0x20 PUSH1 0x4 DUP3 ADD MSTORE PUSH1 0xE PUSH1 0x24 DUP3 ADD MSTORE PUSH14 0x7065726D6974203C207374616B65 PUSH1 0x90 SHL PUSH1 0x44 DUP3 ADD MSTORE PUSH1 0x64 SWAP1 REVERT JUMPDEST PUSH2 0x665 SWAP2 SWAP6 POP PUSH0 SWAP1 PUSH2 0x1589 JUMP JUMPDEST PUSH0 SWAP4 PUSH0 PUSH2 0x479 JUMP JUMPDEST PUSH1 0x40 MLOAD RETURNDATASIZE PUSH0 DUP3 RETURNDATACOPY RETURNDATASIZE SWAP1 REVERT JUMPDEST PUSH0 DUP1 REVERT JUMPDEST CALLVALUE PUSH2 0x678 JUMPI PUSH1 0x40 CALLDATASIZE PUSH1 0x3 NOT ADD SLT PUSH2 0x678 JUMPI PUSH1 0x4 CALLDATALOAD PUSH2 0x698 PUSH2 0x14F9 JUMP JUMPDEST PUSH2 0x6A0 PUSH2 0x1756 JUMP JUMPDEST DUP2 PUSH0 MSTORE PUSH1 0x5 PUSH1 0x20 MSTORE PUSH1 0x40 PUSH0 KECCAK256 SWAP2 PUSH1 0x4 DUP4 ADD SLOAD PUSH1 0xFF DUP2 PUSH1 0xB0 SHR AND PUSH1 0x4 DUP2 LT ISZERO PUSH2 0x795 JUMPI PUSH1 0x1 PUSH2 0x6CE SWAP2 EQ PUSH2 0x1650 JUMP JUMPDEST PUSH1 0x1 PUSH1 0x1 PUSH1 0xA0 SHL SUB AND CALLER EQ DUP1 ISZERO PUSH2 0x77F JUMPI JUMPDEST DUP1 ISZERO PUSH2 0x76C JUMPI JUMPDEST ISZERO PUSH2 0x736 JUMPI DUP3 SLOAD PUSH2 0x719 SWAP4 PUSH2 0x714 SWAP2 PUSH1 0x1 PUSH1 0x1 PUSH1 0xA0 SHL SUB DUP6 DUP2 AND SWAP2 AND DUP2 EQ SWAP2 DUP3 ISZERO PUSH2 0x71F JUMPI JUMPDEST POP POP PUSH2 0x168A JUMP JUMPDEST PUSH2 0x1912 JUMP JUMPDEST PUSH1 0x1 DUP1 SSTORE STOP JUMPDEST PUSH1 0x1 ADD SLOAD PUSH1 0x1 PUSH1 0x1 PUSH1 0xA0 SHL SUB AND EQ SWAP1 POP DUP6 DUP1 PUSH2 0x70D JUMP JUMPDEST PUSH1 0x40 MLOAD PUSH3 0x461BCD PUSH1 0xE5 SHL DUP2 MSTORE PUSH1 0x20 PUSH1 0x4 DUP3 ADD MSTORE PUSH1 0xE PUSH1 0x24 DUP3 ADD MSTORE PUSH14 0x1B9BDD08185D5D1A1BDC9A5E9959 PUSH1 0x92 SHL PUSH1 0x44 DUP3 ADD MSTORE PUSH1 0x64 SWAP1 REVERT JUMPDEST POP PUSH0 SLOAD PUSH1 0x1 PUSH1 0x1 PUSH1 0xA0 SHL SUB AND CALLER EQ PUSH2 0x6E7 JUMP JUMPDEST POP CALLER PUSH0 MSTORE PUSH1 0x3 PUSH1 0x20 MSTORE PUSH1 0xFF PUSH1 0x40 PUSH0 KECCAK256 SLOAD AND PUSH2 0x6E0 JUMP JUMPDEST PUSH4 0x4E487B71 PUSH1 0xE0 SHL PUSH0 MSTORE PUSH1 0x21 PUSH1 0x4 MSTORE PUSH1 0x24 PUSH0 REVERT JUMPDEST CALLVALUE PUSH2 0x678 JUMPI PUSH0 CALLDATASIZE PUSH1 0x3 NOT ADD SLT PUSH2 0x678 JUMPI PUSH1 0x20 PUSH1 0x4 SLOAD PUSH1 0x40 MLOAD SWAP1 DUP2 MSTORE RETURN JUMPDEST CALLVALUE PUSH2 0x678 JUMPI PUSH1 0x20 CALLDATASIZE PUSH1 0x3 NOT ADD SLT PUSH2 0x678 JUMPI PUSH1 0x20 PUSH2 0x7E4 PUSH1 0x4 CALLDATALOAD PUSH2 0x16C7 JUMP JUMPDEST PUSH1 0x40 MLOAD SWAP1 DUP2 MSTORE RETURN JUMPDEST CALLVALUE PUSH2 0x678 JUMPI PUSH0 CALLDATASIZE PUSH1 0x3 NOT ADD SLT PUSH2 0x678 JUMPI PUSH1 0x20 PUSH2 0xFFFF PUSH1 0x2 SLOAD PUSH1 0xB0 SHR AND PUSH1 0x40 MLOAD SWAP1 DUP2 MSTORE RETURN JUMPDEST CALLVALUE PUSH2 0x678 JUMPI PUSH0 CALLDATASIZE PUSH1 0x3 NOT ADD SLT PUSH2 0x678 JUMPI PUSH1 0x20 PUSH2 0xFFFF PUSH1 0x2 SLOAD PUSH1 0xA0 SHR AND PUSH1 0x40 MLOAD SWAP1 DUP2 MSTORE RETURN JUMPDEST CALLVALUE PUSH2 0x678 JUMPI PUSH1 0x20 CALLDATASIZE PUSH1 0x3 NOT ADD SLT PUSH2 0x678 JUMPI PUSH1 0x1 PUSH1 0x1 PUSH1 0xA0 SHL SUB PUSH2 0x855 PUSH2 0x14B7 JUMP JUMPDEST AND PUSH0 MSTORE PUSH1 0x3 PUSH1 0x20 MSTORE PUSH1 0x20 PUSH1 0xFF PUSH1 0x40 PUSH0 KECCAK256 SLOAD AND PUSH1 0x40 MLOAD SWAP1 ISZERO ISZERO DUP2 MSTORE RETURN JUMPDEST CALLVALUE PUSH2 0x678 JUMPI PUSH1 0x20 CALLDATASIZE PUSH1 0x3 NOT ADD SLT PUSH2 0x678 JUMPI PUSH1 0x4 CALLDATALOAD PUSH2 0x88D PUSH2 0x1756 JUMP JUMPDEST DUP1 PUSH0 MSTORE PUSH1 0x5 PUSH1 0x20 MSTORE PUSH1 0x40 PUSH0 KECCAK256 PUSH1 0x4 DUP2 ADD SWAP1 PUSH1 0xFF DUP3 SLOAD PUSH1 0xB0 SHR AND PUSH1 0x4 DUP2 LT ISZERO PUSH2 0x795 JUMPI PUSH2 0x8B9 SWAP1 ISZERO PUSH2 0x15DA JUMP JUMPDEST PUSH5 0xFFFFFFFFFF PUSH1 0x3 DUP3 ADD SLOAD PUSH1 0x28 SHR AND TIMESTAMP GT ISZERO PUSH2 0x973 JUMPI DUP1 SLOAD PUSH1 0x1 PUSH1 0x1 PUSH1 0xA0 SHL SUB AND CALLER SUB PUSH2 0x93F JUMPI DUP2 SLOAD PUSH1 0xFF PUSH1 0xB0 SHL NOT AND PUSH1 0x3 PUSH1 0xB0 SHL OR SWAP1 SWAP2 SSTORE PUSH1 0x2 DUP2 ADD SLOAD SWAP1 SLOAD PUSH2 0x915 SWAP2 PUSH1 0xA0 DUP2 SWAP1 SHR SWAP2 PUSH1 0x1 PUSH1 0x1 PUSH1 0xA0 SHL SUB SWAP1 DUP2 AND SWAP2 AND PUSH2 0x18D7 JUMP JUMPDEST PUSH32 0xD032E44272CCB930CD0264251A97B70771F63DE576A3FBEFF5F2AFE58F9C91BE PUSH0 DUP1 LOG2 PUSH1 0x1 DUP1 SSTORE STOP JUMPDEST PUSH1 0x40 MLOAD PUSH3 0x461BCD PUSH1 0xE5 SHL DUP2 MSTORE PUSH1 0x20 PUSH1 0x4 DUP3 ADD MSTORE PUSH1 0xC PUSH1 0x24 DUP3 ADD MSTORE PUSH12 0x37B7363C9031B932B0BA37B9 PUSH1 0xA1 SHL PUSH1 0x44 DUP3 ADD MSTORE PUSH1 0x64 SWAP1 REVERT JUMPDEST PUSH1 0x40 MLOAD PUSH3 0x461BCD PUSH1 0xE5 SHL DUP2 MSTORE PUSH1 0x20 PUSH1 0x4 DUP3 ADD MSTORE PUSH1 0x14 PUSH1 0x24 DUP3 ADD MSTORE PUSH20 0x3537B4B7103BB4B73237BB903737BA1037BB32B9 PUSH1 0x61 SHL PUSH1 0x44 DUP3 ADD MSTORE PUSH1 0x64 SWAP1 REVERT JUMPDEST CALLVALUE PUSH2 0x678 JUMPI PUSH1 0x40 CALLDATASIZE PUSH1 0x3 NOT ADD SLT PUSH2 0x678 JUMPI PUSH1 0x4 CALLDATALOAD PUSH2 0x9CB PUSH2 0x14F9 JUMP JUMPDEST PUSH2 0x9D3 PUSH2 0x1756 JUMP JUMPDEST DUP2 PUSH0 MSTORE PUSH1 0x5 PUSH1 0x20 MSTORE PUSH1 0x40 PUSH0 KECCAK256 PUSH1 0xFF PUSH1 0x4 DUP3 ADD SLOAD PUSH1 0xB0 SHR AND PUSH1 0x4 DUP2 LT ISZERO PUSH2 0x795 JUMPI PUSH1 0x1 PUSH2 0x9FF SWAP2 EQ PUSH2 0x1650 JUMP JUMPDEST PUSH5 0xFFFFFFFFFF PUSH1 0x3 DUP3 ADD SLOAD PUSH1 0x50 SHR AND TIMESTAMP GT PUSH2 0xB20 JUMPI DUP1 SLOAD PUSH1 0x1 PUSH1 0x1 PUSH1 0xA0 SHL SUB DUP4 DUP2 AND SWAP2 AND DUP2 DUP2 EQ DUP1 ISZERO PUSH2 0xB0A JUMPI JUMPDEST PUSH2 0xA36 SWAP1 PUSH2 0x168A JUMP JUMPDEST CALLER EQ DUP1 DUP1 ISZERO PUSH2 0xAF4 JUMPI JUMPDEST PUSH2 0xA49 SWAP1 PUSH2 0x1615 JUMP JUMPDEST ISZERO PUSH2 0xADB JUMPI PUSH1 0x6 DUP3 ADD DUP1 SLOAD PUSH1 0x1 PUSH1 0x1 PUSH1 0xA0 SHL SUB NOT AND DUP3 OR SWAP1 SSTORE JUMPDEST PUSH1 0x40 MLOAD SWAP1 DUP2 MSTORE DUP4 PUSH32 0xC9B740236BB539E45EB1EFA55CD846ADA59902E71F281C7E6F8DB14FE6582F0 PUSH1 0x20 CALLER SWAP4 LOG3 PUSH1 0x6 DUP2 ADD SLOAD PUSH1 0x1 PUSH1 0x1 PUSH1 0xA0 SHL SUB AND DUP1 ISZERO ISZERO SWAP2 DUP3 PUSH2 0xAC4 JUMPI JUMPDEST POP POP PUSH2 0xAB4 JUMPI PUSH1 0x1 DUP1 SSTORE STOP JUMPDEST PUSH2 0xABD SWAP2 PUSH2 0x1912 JUMP JUMPDEST DUP1 DUP1 PUSH2 0x719 JUMP JUMPDEST PUSH1 0x7 ADD SLOAD PUSH1 0x1 PUSH1 0x1 PUSH1 0xA0 SHL SUB AND EQ SWAP1 POP DUP4 DUP1 PUSH2 0xAA8 JUMP JUMPDEST PUSH1 0x7 DUP3 ADD DUP1 SLOAD PUSH1 0x1 PUSH1 0x1 PUSH1 0xA0 SHL SUB NOT AND DUP3 OR SWAP1 SSTORE PUSH2 0xA63 JUMP JUMPDEST POP PUSH1 0x1 DUP4 ADD SLOAD PUSH1 0x1 PUSH1 0x1 PUSH1 0xA0 SHL SUB AND CALLER EQ PUSH2 0xA40 JUMP JUMPDEST POP PUSH1 0x1 DUP4 ADD SLOAD PUSH1 0x1 PUSH1 0x1 PUSH1 0xA0 SHL SUB AND DUP3 EQ PUSH2 0xA2D JUMP JUMPDEST PUSH1 0x40 MLOAD PUSH3 0x461BCD PUSH1 0xE5 SHL DUP2 MSTORE PUSH1 0x20 PUSH1 0x4 DUP3 ADD MSTORE PUSH1 0x16 PUSH1 0x24 DUP3 ADD MSTORE PUSH22 0x3932B9B7B63ABA34B7B7103BB4B73237BB9037BB32B9 PUSH1 0x51 SHL PUSH1 0x44 DUP3 ADD MSTORE PUSH1 0x64 SWAP1 REVERT JUMPDEST CALLVALUE PUSH2 0x678 JUMPI PUSH0 CALLDATASIZE PUSH1 0x3 NOT ADD SLT PUSH2 0x678 JUMPI PUSH0 SLOAD PUSH1 0x40 MLOAD PUSH1 0x1 PUSH1 0x1 PUSH1 0xA0 SHL SUB SWAP1 SWAP2 AND DUP2 MSTORE PUSH1 0x20 SWAP1 RETURN JUMPDEST CALLVALUE PUSH2 0x678 JUMPI PUSH1 0x60 CALLDATASIZE PUSH1 0x3 NOT ADD SLT PUSH2 0x678 JUMPI PUSH2 0xB9E PUSH2 0x14B7 JUMP JUMPDEST PUSH1 0x24 CALLDATALOAD SWAP1 PUSH2 0xFFFF DUP3 AND SWAP1 DUP2 DUP4 SUB PUSH2 0x678 JUMPI PUSH1 0x44 CALLDATALOAD SWAP2 PUSH2 0xFFFF DUP4 AND DUP1 DUP5 SUB PUSH2 0x678 JUMPI PUSH2 0xBC7 PUSH2 0x1730 JUMP JUMPDEST PUSH2 0x3E8 DUP2 GT PUSH2 0xC77 JUMPI DUP1 DUP3 GT PUSH2 0xC42 JUMPI PUSH32 0xF44D9B22CDD87E55B71B9245548303C18D17A3C912A4E0B135EA1330351A1FC1 SWAP4 PUSH1 0x40 SWAP4 PUSH1 0x1 DUP1 PUSH1 0xA0 SHL SUB AND SWAP6 DUP7 PUSH1 0x2 SLOAD SWAP3 PUSH2 0xFFFF PUSH1 0xB0 SHL SWAP1 PUSH1 0xB0 SHL AND SWAP3 PUSH8 0xFFFFFFFFFFFFFFFF PUSH1 0xC0 SHL AND OR SWAP1 PUSH2 0xFFFF PUSH1 0xA0 SHL SWAP1 PUSH1 0xA0 SHL AND OR OR PUSH1 0x2 SSTORE DUP3 MLOAD SWAP2 DUP3 MSTORE PUSH1 0x20 DUP3 ADD MSTORE LOG2 STOP JUMPDEST PUSH1 0x40 MLOAD PUSH3 0x461BCD PUSH1 0xE5 SHL DUP2 MSTORE PUSH1 0x20 PUSH1 0x4 DUP3 ADD MSTORE PUSH1 0xD PUSH1 0x24 DUP3 ADD MSTORE PUSH13 0xC8CACCC2EAD8E8407C40DAC2F PUSH1 0x9B SHL PUSH1 0x44 DUP3 ADD MSTORE PUSH1 0x64 SWAP1 REVERT JUMPDEST PUSH1 0x40 MLOAD PUSH3 0x461BCD PUSH1 0xE5 SHL DUP2 MSTORE PUSH1 0x20 PUSH1 0x4 DUP3 ADD MSTORE PUSH1 0x8 PUSH1 0x24 DUP3 ADD MSTORE PUSH8 0x6D6178203E313025 PUSH1 0xC0 SHL PUSH1 0x44 DUP3 ADD MSTORE PUSH1 0x64 SWAP1 REVERT JUMPDEST CALLVALUE PUSH2 0x678 JUMPI PUSH0 CALLDATASIZE PUSH1 0x3 NOT ADD SLT PUSH2 0x678 JUMPI PUSH2 0xCBF PUSH2 0x1730 JUMP JUMPDEST PUSH0 DUP1 SLOAD PUSH1 0x1 PUSH1 0x1 PUSH1 0xA0 SHL SUB NOT DUP2 AND DUP3 SSTORE PUSH1 0x1 PUSH1 0x1 PUSH1 0xA0 SHL SUB AND PUSH32 0x8BE0079C531659141344CD1FD0A4F28419497F9722A3DAAFE3B4186F6B6457E0 DUP3 DUP1 LOG3 STOP JUMPDEST CALLVALUE PUSH2 0x678 JUMPI PUSH1 0x20 CALLDATASIZE PUSH1 0x3 NOT ADD SLT PUSH2 0x678 JUMPI PUSH1 0x4 CALLDATALOAD PUSH2 0xD1A PUSH2 0x1756 JUMP JUMPDEST DUP1 PUSH0 MSTORE PUSH1 0x5 PUSH1 0x20 MSTORE PUSH1 0x40 PUSH0 KECCAK256 PUSH1 0x4 DUP2 ADD SWAP1 PUSH1 0xFF DUP3 SLOAD PUSH1 0xB0 SHR AND PUSH1 0x4 DUP2 LT ISZERO PUSH2 0x795 JUMPI PUSH1 0x1 PUSH2 0xD48 SWAP2 EQ PUSH2 0x15DA JUMP JUMPDEST PUSH5 0xFFFFFFFFFF PUSH1 0x3 DUP3 ADD SLOAD PUSH1 0x50 SHR AND TIMESTAMP GT ISZERO PUSH2 0xED0 JUMPI DUP1 SLOAD PUSH1 0x1 PUSH1 0x1 PUSH1 0xA0 SHL SUB AND CALLER EQ DUP1 ISZERO PUSH2 0xEBA JUMPI JUMPDEST PUSH2 0xD7B SWAP1 PUSH2 0x1615 JUMP JUMPDEST PUSH0 DUP4 DUP2 MSTORE PUSH1 0x6 PUSH1 0x20 SWAP1 DUP2 MSTORE PUSH1 0x40 DUP1 DUP4 KECCAK256 CALLER DUP5 MSTORE SWAP1 SWAP2 MSTORE SWAP1 KECCAK256 SLOAD PUSH1 0xFF AND PUSH2 0xE81 JUMPI PUSH0 DUP4 DUP2 MSTORE PUSH1 0x6 PUSH1 0x20 SWAP1 DUP2 MSTORE PUSH1 0x40 DUP1 DUP4 KECCAK256 CALLER DUP1 DUP6 MSTORE SWAP3 MSTORE SWAP1 SWAP2 KECCAK256 DUP1 SLOAD PUSH1 0xFF NOT AND PUSH1 0x1 OR SWAP1 SSTORE PUSH1 0x2 DUP3 ADD SLOAD PUSH2 0xDDC SWAP2 PUSH1 0xA0 DUP3 SWAP1 SHR SWAP2 PUSH1 0x1 PUSH1 0x1 PUSH1 0xA0 SHL SUB AND PUSH2 0x18D7 JUMP JUMPDEST PUSH0 DUP4 DUP2 MSTORE PUSH1 0x6 PUSH1 0x20 SWAP1 DUP2 MSTORE PUSH1 0x40 DUP1 DUP4 KECCAK256 DUP5 SLOAD PUSH1 0x1 PUSH1 0x1 PUSH1 0xA0 SHL SUB AND DUP5 MSTORE SWAP1 SWAP2 MSTORE SWAP1 KECCAK256 SLOAD PUSH1 0xFF AND SWAP1 DUP2 PUSH2 0xE50 JUMPI JUMPDEST POP PUSH2 0xE14 JUMPI PUSH1 0x1 DUP1 SSTORE STOP JUMPDEST DUP1 SLOAD PUSH1 0xFF PUSH1 0xB0 SHL NOT AND PUSH1 0x3 PUSH1 0xB0 SHL OR SWAP1 SSTORE PUSH32 0xD032E44272CCB930CD0264251A97B70771F63DE576A3FBEFF5F2AFE58F9C91BE PUSH0 DUP1 LOG2 DUP1 DUP1 PUSH2 0x719 JUMP JUMPDEST PUSH0 DUP5 DUP2 MSTORE PUSH1 0x6 PUSH1 0x20 SWAP1 DUP2 MSTORE PUSH1 0x40 DUP1 DUP4 KECCAK256 PUSH1 0x1 SWAP1 SWAP5 ADD SLOAD PUSH1 0x1 PUSH1 0x1 PUSH1 0xA0 SHL SUB AND DUP4 MSTORE SWAP3 SWAP1 MSTORE KECCAK256 SLOAD PUSH1 0xFF AND SWAP1 POP DUP4 PUSH2 0xE09 JUMP JUMPDEST PUSH1 0x40 MLOAD PUSH3 0x461BCD PUSH1 0xE5 SHL DUP2 MSTORE PUSH1 0x20 PUSH1 0x4 DUP3 ADD MSTORE PUSH1 0x11 PUSH1 0x24 DUP3 ADD MSTORE PUSH17 0x30B63932B0B23C903BB4BA34323930BBB7 PUSH1 0x79 SHL PUSH1 0x44 DUP3 ADD MSTORE PUSH1 0x64 SWAP1 REVERT JUMPDEST POP PUSH1 0x1 DUP2 ADD SLOAD PUSH1 0x1 PUSH1 0x1 PUSH1 0xA0 SHL SUB AND CALLER EQ PUSH2 0xD72 JUMP JUMPDEST PUSH1 0x40 MLOAD PUSH3 0x461BCD PUSH1 0xE5 SHL DUP2 MSTORE PUSH1 0x20 PUSH1 0x4 DUP3 ADD MSTORE PUSH1 0x17 PUSH1 0x24 DUP3 ADD MSTORE PUSH32 0x7265736F6C76652077696E646F77206E6F74206F766572000000000000000000 PUSH1 0x44 DUP3 ADD MSTORE PUSH1 0x64 SWAP1 REVERT JUMPDEST CALLVALUE PUSH2 0x678 JUMPI PUSH1 0x40 CALLDATASIZE PUSH1 0x3 NOT ADD SLT PUSH2 0x678 JUMPI PUSH2 0xF2E PUSH2 0x14F9 JUMP JUMPDEST PUSH1 0x4 CALLDATALOAD PUSH0 MSTORE PUSH1 0x6 PUSH1 0x20 MSTORE PUSH1 0x40 PUSH0 KECCAK256 SWAP1 PUSH1 0x1 DUP1 PUSH1 0xA0 SHL SUB AND PUSH0 MSTORE PUSH1 0x20 MSTORE PUSH1 0x20 PUSH1 0xFF PUSH1 0x40 PUSH0 KECCAK256 SLOAD AND PUSH1 0x40 MLOAD SWAP1 ISZERO ISZERO DUP2 MSTORE RETURN JUMPDEST CALLVALUE PUSH2 0x678 JUMPI PUSH1 0x20 CALLDATASIZE PUSH1 0x3 NOT ADD SLT PUSH2 0x678 JUMPI PUSH1 0x4 DUP1 CALLDATALOAD PUSH0 SWAP1 DUP2 MSTORE PUSH1 0x5 PUSH1 0x20 DUP2 DUP2 MSTORE PUSH1 0x40 SWAP3 DUP4 SWAP1 KECCAK256 DUP1 SLOAD PUSH1 0x1 DUP3 ADD SLOAD PUSH1 0x2 DUP4 ADD SLOAD PUSH1 0x3 DUP5 ADD SLOAD SWAP8 DUP5 ADD SLOAD SWAP6 DUP5 ADD SLOAD PUSH1 0x6 DUP6 ADD SLOAD PUSH1 0x7 SWAP1 SWAP6 ADD SLOAD DUP9 MLOAD PUSH1 0x1 PUSH1 0x1 PUSH1 0xA0 SHL SUB SWAP6 DUP7 AND DUP2 MSTORE SWAP4 DUP6 AND SWAP7 DUP5 ADD SWAP7 SWAP1 SWAP7 MSTORE DUP2 DUP5 AND SWAP8 DUP4 ADD SWAP8 SWAP1 SWAP8 MSTORE PUSH1 0xA0 SWAP1 DUP2 SHR PUSH1 0x60 DUP4 ADD MSTORE PUSH5 0xFFFFFFFFFF DUP1 DUP10 AND PUSH1 0x80 DUP5 ADD MSTORE PUSH1 0x28 DUP10 SWAP1 SHR DUP2 AND DUP4 DUP4 ADD MSTORE PUSH1 0x50 DUP10 SWAP1 SHR AND PUSH1 0xC0 DUP4 ADD MSTORE PUSH1 0x78 SWAP8 SWAP1 SWAP8 SHR PUSH4 0xFFFFFFFF AND PUSH1 0xE0 DUP3 ADD MSTORE DUP5 DUP3 AND PUSH2 0x100 DUP3 ADD MSTORE SWAP6 DUP5 SWAP1 SHR PUSH2 0xFFFF AND PUSH2 0x120 DUP8 ADD MSTORE PUSH2 0x1C0 SWAP6 SWAP5 SWAP3 DUP2 AND SWAP4 SWAP2 DUP2 AND SWAP3 AND SWAP1 PUSH2 0x1045 SWAP1 PUSH2 0x140 DUP7 ADD SWAP1 PUSH1 0xB0 SHR PUSH1 0xFF AND PUSH2 0x150F JUMP JUMPDEST PUSH2 0x160 DUP5 ADD MSTORE PUSH2 0x180 DUP4 ADD MSTORE PUSH2 0x1A0 DUP3 ADD MSTORE RETURN JUMPDEST CALLVALUE PUSH2 0x678 JUMPI PUSH0 CALLDATASIZE PUSH1 0x3 NOT ADD SLT PUSH2 0x678 JUMPI PUSH1 0x2 SLOAD PUSH1 0x40 MLOAD PUSH1 0x1 PUSH1 0x1 PUSH1 0xA0 SHL SUB SWAP1 SWAP2 AND DUP2 MSTORE PUSH1 0x20 SWAP1 RETURN JUMPDEST CALLVALUE PUSH2 0x678 JUMPI PUSH1 0xC0 CALLDATASIZE PUSH1 0x3 NOT ADD SLT PUSH2 0x678 JUMPI PUSH2 0x109A PUSH2 0x14B7 JUMP JUMPDEST PUSH2 0x10A2 PUSH2 0x151C JUMP JUMPDEST PUSH2 0x10AA PUSH2 0x14CD JUMP JUMPDEST PUSH2 0x10B2 PUSH2 0x1532 JUMP JUMPDEST SWAP2 PUSH2 0x10BB PUSH2 0x1545 JUMP JUMPDEST SWAP1 PUSH2 0x10C4 PUSH2 0x14E3 JUMP JUMPDEST SWAP1 PUSH2 0x10CD PUSH2 0x1756 JUMP JUMPDEST PUSH2 0x10D8 DUP4 DUP7 DUP4 PUSH2 0x17AC JUMP JUMPDEST PUSH1 0x4 SLOAD SWAP6 DUP7 SWAP4 PUSH2 0x10E7 DUP6 PUSH2 0x15AB JUMP JUMPDEST PUSH1 0x4 SSTORE PUSH0 DUP6 DUP2 MSTORE PUSH1 0x5 PUSH1 0x20 MSTORE PUSH1 0x40 SWAP1 KECCAK256 DUP1 SLOAD PUSH1 0x1 PUSH1 0x1 PUSH1 0xA0 SHL SUB NOT SWAP1 DUP2 AND CALLER OR DUP3 SSTORE PUSH1 0x1 DUP3 ADD DUP1 SLOAD DUP3 AND PUSH1 0x1 PUSH1 0x1 PUSH1 0xA0 SHL SUB DUP11 DUP2 AND SWAP2 SWAP1 SWAP2 OR SWAP1 SWAP2 SSTORE PUSH1 0xA0 DUP7 SWAP1 SHL SWAP1 SWAP2 AND SWAP1 DUP5 AND OR PUSH1 0x2 DUP3 ADD SSTORE SWAP1 PUSH1 0x3 DUP3 ADD SWAP8 TIMESTAMP PUSH5 0xFFFFFFFFFF AND PUSH5 0xFFFFFFFFFF AND PUSH5 0xFFFFFFFFFF NOT DUP11 SLOAD AND OR DUP10 SSTORE PUSH4 0xFFFFFFFF AND TIMESTAMP SWAP1 PUSH2 0x1167 SWAP2 PUSH2 0x15CD JUMP JUMPDEST DUP9 SLOAD PUSH10 0xFFFFFFFFFF0000000000 NOT AND PUSH1 0x28 SWAP2 SWAP1 SWAP2 SHL PUSH10 0xFFFFFFFFFF0000000000 AND OR DUP9 SSTORE DUP8 SLOAD PUSH4 0xFFFFFFFF PUSH1 0x78 SHL NOT AND PUSH1 0x78 SWAP2 SWAP1 SWAP2 SHL PUSH4 0xFFFFFFFF PUSH1 0x78 SHL AND OR DUP8 SSTORE PUSH1 0x4 ADD DUP1 SLOAD PUSH1 0x1 PUSH1 0x1 PUSH1 0xA0 SHL SUB DUP6 AND PUSH1 0x1 PUSH3 0xFF0001 PUSH1 0xA0 SHL SUB NOT DUP3 AND DUP2 OR DUP4 SSTORE PUSH1 0x2 SLOAD PUSH2 0xFFFF PUSH1 0xA0 SHL AND PUSH1 0x1 PUSH1 0x1 PUSH1 0xB8 SHL SUB NOT SWAP1 SWAP3 AND OR OR SWAP1 SSTORE PUSH1 0x1 PUSH1 0x1 PUSH1 0xA0 SHL SUB AND SWAP5 PUSH2 0x5A0 PUSH1 0x1 PUSH1 0x1 PUSH1 0x60 SHL SUB DUP4 AND ADDRESS CALLER DUP10 PUSH2 0x188C JUMP JUMPDEST CALLVALUE PUSH2 0x678 JUMPI PUSH1 0x20 CALLDATASIZE PUSH1 0x3 NOT ADD SLT PUSH2 0x678 JUMPI PUSH0 PUSH2 0x1A0 PUSH1 0x40 MLOAD PUSH2 0x1223 DUP2 PUSH2 0x1558 JUMP JUMPDEST DUP3 DUP2 MSTORE DUP3 PUSH1 0x20 DUP3 ADD MSTORE DUP3 PUSH1 0x40 DUP3 ADD MSTORE DUP3 PUSH1 0x60 DUP3 ADD MSTORE DUP3 PUSH1 0x80 DUP3 ADD MSTORE DUP3 PUSH1 0xA0 DUP3 ADD MSTORE DUP3 PUSH1 0xC0 DUP3 ADD MSTORE DUP3 PUSH1 0xE0 DUP3 ADD MSTORE DUP3 PUSH2 0x100 DUP3 ADD MSTORE DUP3 PUSH2 0x120 DUP3 ADD MSTORE DUP3 PUSH2 0x140 DUP3 ADD MSTORE DUP3 PUSH2 0x160 DUP3 ADD MSTORE DUP3 PUSH2 0x180 DUP3 ADD MSTORE ADD MSTORE PUSH1 0x4 CALLDATALOAD PUSH0 MSTORE PUSH1 0x5 PUSH1 0x20 MSTORE PUSH1 0x40 PUSH0 KECCAK256 PUSH1 0x40 MLOAD PUSH2 0x128F DUP2 PUSH2 0x1558 JUMP JUMPDEST PUSH1 0x1 DUP1 PUSH1 0xA0 SHL SUB DUP3 SLOAD AND DUP2 MSTORE PUSH1 0x1 DUP1 PUSH1 0xA0 SHL SUB PUSH1 0x1 DUP4 ADD SLOAD AND SWAP2 PUSH1 0x20 DUP3 ADD SWAP3 DUP4 MSTORE PUSH1 0x2 DUP2 ADD SLOAD PUSH1 0x40 DUP4 ADD SWAP1 PUSH1 0x1 DUP1 PUSH1 0xA0 SHL SUB DUP2 AND DUP3 MSTORE PUSH1 0x60 DUP5 ADD SWAP1 PUSH1 0xA0 SHR DUP2 MSTORE PUSH1 0x3 DUP4 ADD SLOAD PUSH1 0x80 DUP6 ADD PUSH5 0xFFFFFFFFFF DUP3 AND DUP2 MSTORE PUSH1 0xA0 DUP7 ADD SWAP2 PUSH5 0xFFFFFFFFFF DUP2 PUSH1 0x28 SHR AND DUP4 MSTORE PUSH1 0xC0 DUP8 ADD PUSH5 0xFFFFFFFFFF DUP3 PUSH1 0x50 SHR AND DUP2 MSTORE PUSH4 0xFFFFFFFF PUSH1 0xE0 DUP10 ADD SWAP3 PUSH1 0x78 SHR AND DUP3 MSTORE PUSH1 0x4 DUP8 ADD SLOAD SWAP4 PUSH2 0x100 DUP10 ADD SWAP4 PUSH1 0x1 DUP1 PUSH1 0xA0 SHL SUB DUP7 AND DUP6 MSTORE PUSH1 0xFF PUSH2 0x120 DUP12 ADD SWAP7 PUSH2 0xFFFF DUP2 PUSH1 0xA0 SHR AND DUP9 MSTORE PUSH1 0xB0 SHR AND SWAP7 PUSH2 0x140 DUP12 ADD SWAP8 PUSH1 0x4 DUP2 LT ISZERO PUSH2 0x795 JUMPI DUP9 MSTORE PUSH1 0x5 DUP11 ADD SLOAD PUSH1 0x1 PUSH1 0x1 PUSH1 0xA0 SHL SUB SWAP1 DUP2 AND PUSH2 0x160 DUP14 ADD SWAP1 DUP2 MSTORE PUSH1 0x6 DUP13 ADD SLOAD DUP3 AND PUSH2 0x180 DUP15 ADD SWAP1 DUP2 MSTORE PUSH1 0x7 SWAP1 SWAP13 ADD SLOAD DUP3 AND PUSH2 0x1A0 DUP15 ADD SWAP1 DUP2 MSTORE PUSH1 0x40 DUP1 MLOAD SWAP15 MLOAD DUP5 AND DUP16 MSTORE SWAP15 MLOAD DUP4 AND PUSH1 0x20 DUP16 ADD MSTORE SWAP11 MLOAD DUP3 AND SWAP14 DUP14 ADD SWAP14 SWAP1 SWAP14 MSTORE SWAP1 MLOAD PUSH1 0x1 PUSH1 0x1 PUSH1 0x60 SHL SUB AND PUSH1 0x60 DUP13 ADD MSTORE SWAP1 MLOAD PUSH5 0xFFFFFFFFFF SWAP1 DUP2 AND PUSH1 0x80 DUP13 ADD MSTORE SWAP2 MLOAD DUP3 AND PUSH1 0xA0 DUP12 ADD MSTORE SWAP2 MLOAD AND PUSH1 0xC0 DUP10 ADD MSTORE SWAP1 MLOAD PUSH4 0xFFFFFFFF AND PUSH1 0xE0 DUP9 ADD MSTORE SWAP1 MLOAD AND PUSH2 0x100 DUP7 ADD MSTORE MLOAD PUSH2 0xFFFF AND PUSH2 0x120 DUP6 ADD MSTORE MLOAD SWAP3 SWAP4 SWAP1 SWAP3 PUSH2 0x140F SWAP1 PUSH2 0x140 DUP7 ADD SWAP1 PUSH2 0x150F JUMP JUMPDEST MLOAD PUSH1 0x1 PUSH1 0x1 PUSH1 0xA0 SHL SUB SWAP1 DUP2 AND PUSH2 0x160 DUP6 ADD MSTORE SWAP1 MLOAD DUP2 AND PUSH2 0x180 DUP5 ADD MSTORE SWAP1 MLOAD AND PUSH2 0x1A0 DUP3 ADD MSTORE PUSH2 0x1C0 SWAP1 RETURN JUMPDEST CALLVALUE PUSH2 0x678 JUMPI PUSH1 0x40 CALLDATASIZE PUSH1 0x3 NOT ADD SLT PUSH2 0x678 JUMPI PUSH2 0x1453 PUSH2 0x14B7 JUMP JUMPDEST PUSH1 0x24 CALLDATALOAD SWAP1 DUP2 ISZERO ISZERO DUP1 SWAP3 SUB PUSH2 0x678 JUMPI PUSH1 0x20 PUSH32 0x82B5558FDEB37CB74B6E8EB4A87486D06C7EF8951416A5DC76C25F0BD9C3BB43 SWAP2 PUSH2 0x148D PUSH2 0x1730 JUMP JUMPDEST PUSH1 0x1 DUP1 PUSH1 0xA0 SHL SUB AND SWAP3 DUP4 PUSH0 MSTORE PUSH1 0x3 DUP3 MSTORE PUSH1 0x40 PUSH0 KECCAK256 PUSH1 0xFF NOT DUP2 SLOAD AND PUSH1 0xFF DUP4 AND OR SWAP1 SSTORE PUSH1 0x40 MLOAD SWAP1 DUP2 MSTORE LOG2 STOP JUMPDEST PUSH1 0x4 CALLDATALOAD SWAP1 PUSH1 0x1 PUSH1 0x1 PUSH1 0xA0 SHL SUB DUP3 AND DUP3 SUB PUSH2 0x678 JUMPI JUMP JUMPDEST PUSH1 0x44 CALLDATALOAD SWAP1 PUSH1 0x1 PUSH1 0x1 PUSH1 0xA0 SHL SUB DUP3 AND DUP3 SUB PUSH2 0x678 JUMPI JUMP JUMPDEST PUSH1 0xA4 CALLDATALOAD SWAP1 PUSH1 0x1 PUSH1 0x1 PUSH1 0xA0 SHL SUB DUP3 AND DUP3 SUB PUSH2 0x678 JUMPI JUMP JUMPDEST PUSH1 0x24 CALLDATALOAD SWAP1 PUSH1 0x1 PUSH1 0x1 PUSH1 0xA0 SHL SUB DUP3 AND DUP3 SUB PUSH2 0x678 JUMPI JUMP JUMPDEST SWAP1 PUSH1 0x4 DUP3 LT ISZERO PUSH2 0x795 JUMPI MSTORE JUMP JUMPDEST PUSH1 0x24 CALLDATALOAD SWAP1 PUSH1 0x1 PUSH1 0x1 PUSH1 0x60 SHL SUB DUP3 AND DUP3 SUB PUSH2 0x678 JUMPI JUMP JUMPDEST PUSH1 0x64 CALLDATALOAD SWAP1 PUSH4 0xFFFFFFFF DUP3 AND DUP3 SUB PUSH2 0x678 JUMPI JUMP JUMPDEST PUSH1 0x84 CALLDATALOAD SWAP1 PUSH4 0xFFFFFFFF DUP3 AND DUP3 SUB PUSH2 0x678 JUMPI JUMP JUMPDEST PUSH2 0x1C0 DUP2 ADD SWAP1 DUP2 LT PUSH8 0xFFFFFFFFFFFFFFFF DUP3 GT OR PUSH2 0x1575 JUMPI PUSH1 0x40 MSTORE JUMP JUMPDEST PUSH4 0x4E487B71 PUSH1 0xE0 SHL PUSH0 MSTORE PUSH1 0x41 PUSH1 0x4 MSTORE PUSH1 0x24 PUSH0 REVERT JUMPDEST SWAP1 PUSH1 0x1F DUP1 NOT SWAP2 ADD AND DUP2 ADD SWAP1 DUP2 LT PUSH8 0xFFFFFFFFFFFFFFFF DUP3 GT OR PUSH2 0x1575 JUMPI PUSH1 0x40 MSTORE JUMP JUMPDEST PUSH0 NOT DUP2 EQ PUSH2 0x15B9 JUMPI PUSH1 0x1 ADD SWAP1 JUMP JUMPDEST PUSH4 0x4E487B71 PUSH1 0xE0 SHL PUSH0 MSTORE PUSH1 0x11 PUSH1 0x4 MSTORE PUSH1 0x24 PUSH0 REVERT JUMPDEST SWAP2 SWAP1 DUP3 ADD DUP1 SWAP3 GT PUSH2 0x15B9 JUMPI JUMP JUMPDEST ISZERO PUSH2 0x15E1 JUMPI JUMP JUMPDEST PUSH1 0x40 MLOAD PUSH3 0x461BCD PUSH1 0xE5 SHL DUP2 MSTORE PUSH1 0x20 PUSH1 0x4 DUP3 ADD MSTORE PUSH1 0xC PUSH1 0x24 DUP3 ADD MSTORE PUSH12 0x77726F6E6720737461747573 PUSH1 0xA0 SHL PUSH1 0x44 DUP3 ADD MSTORE PUSH1 0x64 SWAP1 REVERT JUMPDEST ISZERO PUSH2 0x161C JUMPI JUMP JUMPDEST PUSH1 0x40 MLOAD PUSH3 0x461BCD PUSH1 0xE5 SHL DUP2 MSTORE PUSH1 0x20 PUSH1 0x4 DUP3 ADD MSTORE PUSH1 0xC PUSH1 0x24 DUP3 ADD MSTORE PUSH12 0x3737BA103090383630BCB2B9 PUSH1 0xA1 SHL PUSH1 0x44 DUP3 ADD MSTORE PUSH1 0x64 SWAP1 REVERT JUMPDEST ISZERO PUSH2 0x1657 JUMPI JUMP JUMPDEST PUSH1 0x40 MLOAD PUSH3 0x461BCD PUSH1 0xE5 SHL DUP2 MSTORE PUSH1 0x20 PUSH1 0x4 DUP3 ADD MSTORE PUSH1 0xB PUSH1 0x24 DUP3 ADD MSTORE PUSH11 0x1B9BDD081CDD185C9D1959 PUSH1 0xAA SHL PUSH1 0x44 DUP3 ADD MSTORE PUSH1 0x64 SWAP1 REVERT JUMPDEST ISZERO PUSH2 0x1691 JUMPI JUMP JUMPDEST PUSH1 0x40 MLOAD PUSH3 0x461BCD PUSH1 0xE5 SHL DUP2 MSTORE PUSH1 0x20 PUSH1 0x4 DUP3 ADD MSTORE PUSH1 0xE PUSH1 0x24 DUP3 ADD MSTORE PUSH14 0x34B73B30B634B2103BB4B73732B9 PUSH1 0x91 SHL PUSH1 0x44 DUP3 ADD MSTORE PUSH1 0x64 SWAP1 REVERT JUMPDEST PUSH0 MSTORE PUSH1 0x5 PUSH1 0x20 MSTORE PUSH1 0x40 PUSH0 KECCAK256 PUSH1 0xFF PUSH1 0x4 DUP3 ADD SLOAD PUSH1 0xB0 SHR AND PUSH1 0x4 DUP2 LT ISZERO PUSH2 0x795 JUMPI DUP1 ISZERO PUSH2 0x1725 JUMPI PUSH1 0x1 EQ PUSH2 0x16F8 JUMPI POP PUSH0 SWAP1 JUMP JUMPDEST PUSH1 0x2 ADD SLOAD PUSH13 0x1FFFFFFFFFFFFFFFFFFFFFFFE DUP2 PUSH1 0xA0 SHR SWAP2 PUSH1 0x9F SHR AND SWAP1 DUP1 DUP3 DIV PUSH1 0x2 EQ SWAP1 ISZERO OR ISZERO PUSH2 0x15B9 JUMPI SWAP1 JUMP JUMPDEST POP PUSH1 0x2 ADD SLOAD PUSH1 0xA0 SHR SWAP1 JUMP JUMPDEST PUSH0 SLOAD PUSH1 0x1 PUSH1 0x1 PUSH1 0xA0 SHL SUB AND CALLER SUB PUSH2 0x1743 JUMPI JUMP JUMPDEST PUSH4 0x118CDAA7 PUSH1 0xE0 SHL PUSH0 MSTORE CALLER PUSH1 0x4 MSTORE PUSH1 0x24 PUSH0 REVERT JUMPDEST PUSH1 0x2 PUSH1 0x1 SLOAD EQ PUSH2 0x1767 JUMPI PUSH1 0x2 PUSH1 0x1 SSTORE JUMP JUMPDEST PUSH1 0x40 MLOAD PUSH3 0x461BCD PUSH1 0xE5 SHL DUP2 MSTORE PUSH1 0x20 PUSH1 0x4 DUP3 ADD MSTORE PUSH1 0x1F PUSH1 0x24 DUP3 ADD MSTORE PUSH32 0x5265656E7472616E637947756172643A207265656E7472616E742063616C6C00 PUSH1 0x44 DUP3 ADD MSTORE PUSH1 0x64 SWAP1 REVERT JUMPDEST PUSH1 0x1 PUSH1 0x1 PUSH1 0x60 SHL SUB AND ISZERO PUSH2 0x185B JUMPI PUSH4 0xFFFFFFFF PUSH1 0x3C SWAP2 AND LT PUSH2 0x181E JUMPI PUSH4 0xFFFFFFFF PUSH2 0x12C SWAP2 AND LT PUSH2 0x17D9 JUMPI JUMP JUMPDEST PUSH1 0x40 MLOAD PUSH3 0x461BCD PUSH1 0xE5 SHL DUP2 MSTORE PUSH1 0x20 PUSH1 0x4 DUP3 ADD MSTORE PUSH1 0x18 PUSH1 0x24 DUP3 ADD MSTORE PUSH32 0x7265736F6C76652077696E646F7720746F6F2073686F72740000000000000000 PUSH1 0x44 DUP3 ADD MSTORE PUSH1 0x64 SWAP1 REVERT JUMPDEST PUSH1 0x40 MLOAD PUSH3 0x461BCD PUSH1 0xE5 SHL DUP2 MSTORE PUSH1 0x20 PUSH1 0x4 DUP3 ADD MSTORE PUSH1 0x15 PUSH1 0x24 DUP3 ADD MSTORE PUSH21 0x1A9BDA5B881DDA5B991BDDC81D1BDBC81CDA1BDC9D PUSH1 0x5A SHL PUSH1 0x44 DUP3 ADD MSTORE PUSH1 0x64 SWAP1 REVERT JUMPDEST PUSH1 0x40 MLOAD PUSH3 0x461BCD PUSH1 0xE5 SHL DUP2 MSTORE PUSH1 0x20 PUSH1 0x4 DUP3 ADD MSTORE PUSH1 0x9 PUSH1 0x24 DUP3 ADD MSTORE PUSH9 0x7374616B65203D203 PUSH1 0xBC SHL PUSH1 0x44 DUP3 ADD MSTORE PUSH1 0x64 SWAP1 REVERT JUMPDEST PUSH1 0x40 MLOAD PUSH4 0x23B872DD PUSH1 0xE0 SHL PUSH1 0x20 DUP3 ADD MSTORE PUSH1 0x1 PUSH1 0x1 PUSH1 0xA0 SHL SUB SWAP3 DUP4 AND PUSH1 0x24 DUP3 ADD MSTORE SWAP3 SWAP1 SWAP2 AND PUSH1 0x44 DUP4 ADD MSTORE PUSH1 0x64 DUP1 DUP4 ADD SWAP4 SWAP1 SWAP4 MSTORE SWAP2 DUP2 MSTORE PUSH2 0x18D5 SWAP2 PUSH2 0x18D0 PUSH1 0x84 DUP4 PUSH2 0x1589 JUMP JUMPDEST PUSH2 0x1ADC JUMP JUMPDEST JUMP JUMPDEST PUSH1 0x40 MLOAD PUSH4 0xA9059CBB PUSH1 0xE0 SHL PUSH1 0x20 DUP3 ADD MSTORE PUSH1 0x1 PUSH1 0x1 PUSH1 0xA0 SHL SUB SWAP1 SWAP3 AND PUSH1 0x24 DUP4 ADD MSTORE PUSH1 0x44 DUP1 DUP4 ADD SWAP4 SWAP1 SWAP4 MSTORE SWAP2 DUP2 MSTORE PUSH2 0x18D5 SWAP2 PUSH2 0x18D0 PUSH1 0x64 DUP4 PUSH2 0x1589 JUMP JUMPDEST DUP1 PUSH0 MSTORE PUSH1 0x5 PUSH1 0x20 MSTORE PUSH1 0x40 PUSH0 KECCAK256 SWAP2 PUSH1 0x4 DUP4 ADD SWAP3 PUSH1 0xFF DUP5 SLOAD PUSH1 0xB0 SHR AND PUSH1 0x4 DUP2 LT ISZERO PUSH2 0x795 JUMPI PUSH1 0x1 SUB PUSH2 0x1AAA JUMPI DUP4 SLOAD PUSH1 0xFF PUSH1 0xB0 SHL NOT AND PUSH1 0x1 PUSH1 0xB1 SHL OR DUP5 SSTORE PUSH1 0x5 DUP2 ADD DUP1 SLOAD PUSH1 0x1 PUSH1 0x1 PUSH1 0xA0 SHL SUB NOT AND PUSH1 0x1 PUSH1 0x1 PUSH1 0xA0 SHL SUB DUP5 AND OR SWAP1 SSTORE PUSH1 0x2 SWAP1 DUP2 ADD DUP1 SLOAD PUSH1 0x9F DUP2 SWAP1 SHR PUSH13 0x1FFFFFFFFFFFFFFFFFFFFFFFE AND SWAP6 SWAP1 SWAP4 SWAP2 SWAP3 PUSH1 0xA0 DUP6 SWAP1 SHR DUP1 ISZERO SWAP1 DUP9 DIV SWAP1 SWAP2 EQ OR ISZERO PUSH2 0x15B9 JUMPI PUSH1 0x2 SLOAD PUSH0 SWAP5 PUSH1 0x1 PUSH1 0x1 PUSH1 0xA0 SHL SUB DUP3 AND SWAP3 DUP4 ISZERO ISZERO DUP1 PUSH2 0x1A99 JUMPI JUMPDEST PUSH2 0x1A19 JUMPI JUMPDEST POP POP POP POP DUP3 DUP6 SUB SWAP5 DUP6 GT PUSH2 0x15B9 JUMPI PUSH32 0xC681B7344754F412A9BD7AE2CC1CCCD1E8BC6E7DA75AB89B91E9EEC5E4C40788 SWAP3 PUSH2 0x1A02 DUP7 DUP4 PUSH1 0x40 SWAP6 PUSH1 0x1 DUP1 PUSH1 0xA0 SHL SUB SWAP1 SLOAD AND PUSH2 0x18D7 JUMP JUMPDEST DUP3 MLOAD SWAP6 DUP7 MSTORE PUSH1 0x20 DUP7 ADD MSTORE PUSH1 0x1 PUSH1 0x1 PUSH1 0xA0 SHL SUB AND SWAP4 LOG3 JUMP JUMPDEST PUSH2 0xFFFF SWAP2 SWAP3 SWAP4 SWAP7 POP DUP2 SWAP1 SLOAD PUSH1 0xA0 SHR AND SWAP3 PUSH1 0xB0 SHR AND DUP3 GT PUSH2 0x1A68 JUMPI DUP2 DUP8 MUL SWAP2 DUP8 DUP4 DIV EQ DUP8 ISZERO OR ISZERO PUSH2 0x15B9 JUMPI PUSH2 0x2710 SWAP1 SWAP2 DIV SWAP4 PUSH2 0x1A5F SWAP2 DUP6 SWAP2 SWAP1 PUSH1 0x1 PUSH1 0x1 PUSH1 0xA0 SHL SUB AND PUSH2 0x18D7 JUMP JUMPDEST PUSH0 DUP1 DUP1 DUP1 PUSH2 0x19BB JUMP JUMPDEST PUSH1 0x40 MLOAD PUSH3 0x461BCD PUSH1 0xE5 SHL DUP2 MSTORE PUSH1 0x20 PUSH1 0x4 DUP3 ADD MSTORE PUSH1 0x9 PUSH1 0x24 DUP3 ADD MSTORE PUSH9 0xCCCACA407C40DAC2F PUSH1 0xBB SHL PUSH1 0x44 DUP3 ADD MSTORE PUSH1 0x64 SWAP1 REVERT JUMPDEST POP PUSH2 0xFFFF DUP2 SLOAD PUSH1 0xA0 SHR AND ISZERO ISZERO PUSH2 0x19B6 JUMP JUMPDEST PUSH1 0x40 MLOAD PUSH3 0x461BCD PUSH1 0xE5 SHL DUP2 MSTORE PUSH1 0x20 PUSH1 0x4 DUP3 ADD MSTORE PUSH1 0xA PUSH1 0x24 DUP3 ADD MSTORE PUSH10 0x6E6F7420616374697665 PUSH1 0xB0 SHL PUSH1 0x44 DUP3 ADD MSTORE PUSH1 0x64 SWAP1 REVERT JUMPDEST SWAP1 PUSH0 PUSH1 0x20 SWAP2 DUP3 DUP2 MLOAD SWAP2 ADD DUP3 DUP6 GAS CALL ISZERO PUSH2 0x66D JUMPI PUSH0 MLOAD RETURNDATASIZE PUSH2 0x1B2B JUMPI POP PUSH1 0x1 PUSH1 0x1 PUSH1 0xA0 SHL SUB DUP2 AND EXTCODESIZE ISZERO JUMPDEST PUSH2 0x1B0B JUMPI POP JUMP JUMPDEST PUSH4 0x5274AFE7 PUSH1 0xE0 SHL PUSH0 SWAP1 DUP2 MSTORE PUSH1 0x1 PUSH1 0x1 PUSH1 0xA0 SHL SUB SWAP2 SWAP1 SWAP2 AND PUSH1 0x4 MSTORE PUSH1 0x24 SWAP1 REVERT JUMPDEST PUSH1 0x1 EQ ISZERO PUSH2 0x1B04 JUMP INVALID LOG2 PUSH5 0x6970667358 0x22 SLT KECCAK256 0xD9 0xC7 0xA7 PUSH17 0x82D60CA6A3C024D82B3D19FC1D363A5615 PUSH13 0xBD496A6F8392536AA44364736F PUSH13 0x634300081A0033000000000000 "
				},
				"gasEstimates": {
					"creation": {
						"codeDepositCost": "1403600",
						"executionCost": "infinite",
						"totalCost": "infinite"
					},
					"external": {
						"createMatch(address,uint96,address,uint32,uint32,address)": "infinite",
						"createMatchWithPermit(address,uint96,address,uint32,uint32,address,uint256,uint256,uint8,bytes32,bytes32)": "infinite",
						"defaultFeeBps()": "2549",
						"feeRecipient()": "2341",
						"getMatch(uint256)": "infinite",
						"isResolver(address)": "2677",
						"joinMatch(uint256)": "infinite",
						"matches(uint256)": "17658",
						"maxFeeBps()": "2571",
						"nextMatchId()": "2603",
						"owner()": "2472",
						"pot(uint256)": "4933",
						"refundIfUnjoined(uint256)": "infinite",
						"renounceOwnership()": "28199",
						"resolveByReferee(uint256,address)": "infinite",
						"setFees(address,uint16,uint16)": "28650",
						"setResolver(address,bool)": "28123",
						"submitResult(uint256,address)": "infinite",
						"transferOwnership(address)": "28583",
						"withdrawAfterTimeout(uint256)": "infinite",
						"withdrawnAfterTimeout(uint256,address)": "2590"
					},
					"internal": {
						"_payout(uint256,address)": "infinite",
						"_validateCreate(uint96,uint32,uint32)": "infinite"
					}
				},
				"methodIdentifiers": {
					"createMatch(address,uint96,address,uint32,uint32,address)": "45c67d86",
					"createMatchWithPermit(address,uint96,address,uint32,uint32,address,uint256,uint256,uint8,bytes32,bytes32)": "e8c228db",
					"defaultFeeBps()": "bcae25a4",
					"feeRecipient()": "46904840",
					"getMatch(uint256)": "3d092b3d",
					"isResolver(address)": "9ea7d587",
					"joinMatch(uint256)": "feb8c438",
					"matches(uint256)": "4768d4ef",
					"maxFeeBps()": "bf769a3f",
					"nextMatchId()": "c5adf7c9",
					"owner()": "8da5cb5b",
					"pot(uint256)": "c1eecdc6",
					"refundIfUnjoined(uint256)": "99ac48b4",
					"renounceOwnership()": "715018a6",
					"resolveByReferee(uint256,address)": "e73b54a5",
					"setFees(address,uint16,uint16)": "8c4b2aae",
					"setResolver(address,bool)": "1da6ed7c",
					"submitResult(uint256,address)": "92dc24bb",
					"transferOwnership(address)": "f2fde38b",
					"withdrawAfterTimeout(uint256)": "63feb74e",
					"withdrawnAfterTimeout(uint256,address)": "4e55a1c2"
				}
			},
			"storageLayout": {
				"storage": [
					{
						"astId": 8,
						"contract": "Connect4Stakes.sol:Connect4Stakes",
						"label": "_owner",
						"offset": 0,
						"slot": "0",
						"type": "t_address"
					},
					{
						"astId": 248,
						"contract": "Connect4Stakes.sol:Connect4Stakes",
						"label": "_status",
						"offset": 0,
						"slot": "1",
						"type": "t_uint256"
					},
					{
						"astId": 973,
						"contract": "Connect4Stakes.sol:Connect4Stakes",
						"label": "feeRecipient",
						"offset": 0,
						"slot": "2",
						"type": "t_address"
					},
					{
						"astId": 976,
						"contract": "Connect4Stakes.sol:Connect4Stakes",
						"label": "defaultFeeBps",
						"offset": 20,
						"slot": "2",
						"type": "t_uint16"
					},
					{
						"astId": 979,
						"contract": "Connect4Stakes.sol:Connect4Stakes",
						"label": "maxFeeBps",
						"offset": 22,
						"slot": "2",
						"type": "t_uint16"
					},
					{
						"astId": 983,
						"contract": "Connect4Stakes.sol:Connect4Stakes",
						"label": "isResolver",
						"offset": 0,
						"slot": "3",
						"type": "t_mapping(t_address,t_bool)"
					},
					{
						"astId": 986,
						"contract": "Connect4Stakes.sol:Connect4Stakes",
						"label": "nextMatchId",
						"offset": 0,
						"slot": "4",
						"type": "t_uint256"
					},
					{
						"astId": 991,
						"contract": "Connect4Stakes.sol:Connect4Stakes",
						"label": "matches",
						"offset": 0,
						"slot": "5",
						"type": "t_mapping(t_uint256,t_struct(Match)971_storage)"
					},
					{
						"astId": 997,
						"contract": "Connect4Stakes.sol:Connect4Stakes",
						"label": "withdrawnAfterTimeout",
						"offset": 0,
						"slot": "6",
						"type": "t_mapping(t_uint256,t_mapping(t_address,t_bool))"
					}
				],
				"types": {
					"t_address": {
						"encoding": "inplace",
						"label": "address",
						"numberOfBytes": "20"
					},
					"t_bool": {
						"encoding": "inplace",
						"label": "bool",
						"numberOfBytes": "1"
					},
					"t_enum(Status)941": {
						"encoding": "inplace",
						"label": "enum Connect4Stakes.Status",
						"numberOfBytes": "1"
					},
					"t_mapping(t_address,t_bool)": {
						"encoding": "mapping",
						"key": "t_address",
						"label": "mapping(address => bool)",
						"numberOfBytes": "32",
						"value": "t_bool"
					},
					"t_mapping(t_uint256,t_mapping(t_address,t_bool))": {
						"encoding": "mapping",
						"key": "t_uint256",
						"label": "mapping(uint256 => mapping(address => bool))",
						"numberOfBytes": "32",
						"value": "t_mapping(t_address,t_bool)"
					},
					"t_mapping(t_uint256,t_struct(Match)971_storage)": {
						"encoding": "mapping",
						"key": "t_uint256",
						"label": "mapping(uint256 => struct Connect4Stakes.Match)",
						"numberOfBytes": "32",
						"value": "t_struct(Match)971_storage"
					},
					"t_struct(Match)971_storage": {
						"encoding": "inplace",
						"label": "struct Connect4Stakes.Match",
						"members": [
							{
								"astId": 943,
								"contract": "Connect4Stakes.sol:Connect4Stakes",
								"label": "creator",
								"offset": 0,
								"slot": "0",
								"type": "t_address"
							},
							{
								"astId": 945,
								"contract": "Connect4Stakes.sol:Connect4Stakes",
								"label": "opponent",
								"offset": 0,
								"slot": "1",
								"type": "t_address"
							},
							{
								"astId": 947,
								"contract": "Connect4Stakes.sol:Connect4Stakes",
								"label": "token",
								"offset": 0,
								"slot": "2",
								"type": "t_address"
							},
							{
								"astId": 949,
								"contract": "Connect4Stakes.sol:Connect4Stakes",
								"label": "stake",
								"offset": 20,
								"slot": "2",
								"type": "t_uint96"
							},
							{
								"astId": 951,
								"contract": "Connect4Stakes.sol:Connect4Stakes",
								"label": "createdAt",
								"offset": 0,
								"slot": "3",
								"type": "t_uint40"
							},
							{
								"astId": 953,
								"contract": "Connect4Stakes.sol:Connect4Stakes",
								"label": "startDeadline",
								"offset": 5,
								"slot": "3",
								"type": "t_uint40"
							},
							{
								"astId": 955,
								"contract": "Connect4Stakes.sol:Connect4Stakes",
								"label": "resolveDeadline",
								"offset": 10,
								"slot": "3",
								"type": "t_uint40"
							},
							{
								"astId": 957,
								"contract": "Connect4Stakes.sol:Connect4Stakes",
								"label": "resolveWindow",
								"offset": 15,
								"slot": "3",
								"type": "t_uint32"
							},
							{
								"astId": 959,
								"contract": "Connect4Stakes.sol:Connect4Stakes",
								"label": "resolver",
								"offset": 0,
								"slot": "4",
								"type": "t_address"
							},
							{
								"astId": 961,
								"contract": "Connect4Stakes.sol:Connect4Stakes",
								"label": "feeBps",
								"offset": 20,
								"slot": "4",
								"type": "t_uint16"
							},
							{
								"astId": 964,
								"contract": "Connect4Stakes.sol:Connect4Stakes",
								"label": "status",
								"offset": 22,
								"slot": "4",
								"type": "t_enum(Status)941"
							},
							{
								"astId": 966,
								"contract": "Connect4Stakes.sol:Connect4Stakes",
								"label": "winner",
								"offset": 0,
								"slot": "5",
								"type": "t_address"
							},
							{
								"astId": 968,
								"contract": "Connect4Stakes.sol:Connect4Stakes",
								"label": "creatorVote",
								"offset": 0,
								"slot": "6",
								"type": "t_address"
							},
							{
								"astId": 970,
								"contract": "Connect4Stakes.sol:Connect4Stakes",
								"label": "opponentVote",
								"offset": 0,
								"slot": "7",
								"type": "t_address"
							}
						],
						"numberOfBytes": "256"
					},
					"t_uint16": {
						"encoding": "inplace",
						"label": "uint16",
						"numberOfBytes": "2"
					},
					"t_uint256": {
						"encoding": "inplace",
						"label": "uint256",
						"numberOfBytes": "32"
					},
					"t_uint32": {
						"encoding": "inplace",
						"label": "uint32",
						"numberOfBytes": "4"
					},
					"t_uint40": {
						"encoding": "inplace",
						"label": "uint40",
						"numberOfBytes": "5"
					},
					"t_uint96": {
						"encoding": "inplace",
						"label": "uint96",
						"numberOfBytes": "12"
					}
				}
			},
			"userdoc": {
				"kind": "user",
				"methods": {
					"createMatch(address,uint96,address,uint32,uint32,address)": {
						"notice": "Create a match (creator must approve this contract for `stake` first, unless using permit)."
					},
					"createMatchWithPermit(address,uint96,address,uint32,uint32,address,uint256,uint256,uint8,bytes32,bytes32)": {
						"notice": "Same as createMatch but uses EIP-2612 permit so the creator can skip an approve tx."
					},
					"joinMatch(uint256)": {
						"notice": "Opponent joins an existing match by depositing the same stake.         If opponent was unspecified (open challenge), the caller becomes opponent."
					},
					"refundIfUnjoined(uint256)": {
						"notice": "If nobody joined by startDeadline, creator refunds their stake."
					},
					"resolveByReferee(uint256,address)": {
						"notice": "Referee path: per-match resolver, global resolver, or owner can finalize anytime after start."
					},
					"submitResult(uint256,address)": {
						"notice": "Players submit their view of the winner. If both match, payout immediately."
					},
					"withdrawAfterTimeout(uint256)": {
						"notice": "If a started match wasn't resolved by resolveDeadline, each player can withdraw their own stake.         When both have withdrawn, status flips to Refunded."
					}
				},
				"version": 1
			}
		}
	}
}